{
  "_format": "hh-sol-artifact-1",
  "contractName": "NFT",
  "sourceName": "contracts/NFT.sol",
  "abi": [
    {
      "inputs": [
        {
          "internalType": "string",
          "name": "_name",
          "type": "string"
        },
        {
          "internalType": "string",
          "name": "_symbol",
          "type": "string"
        },
        {
          "internalType": "uint256",
          "name": "_mintPrice",
          "type": "uint256"
        },
        {
          "internalType": "uint256",
          "name": "_maxSupply",
          "type": "uint256"
        }
      ],
      "stateMutability": "payable",
      "type": "constructor"
    },
    {
      "inputs": [
        {
          "internalType": "address",
          "name": "sender",
          "type": "address"
        },
        {
          "internalType": "uint256",
          "name": "tokenId",
          "type": "uint256"
        },
        {
          "internalType": "address",
          "name": "owner",
          "type": "address"
        }
      ],
      "name": "ERC721IncorrectOwner",
      "type": "error"
    },
    {
      "inputs": [
        {
          "internalType": "address",
          "name": "operator",
          "type": "address"
        },
        {
          "internalType": "uint256",
          "name": "tokenId",
          "type": "uint256"
        }
      ],
      "name": "ERC721InsufficientApproval",
      "type": "error"
    },
    {
      "inputs": [
        {
          "internalType": "address",
          "name": "approver",
          "type": "address"
        }
      ],
      "name": "ERC721InvalidApprover",
      "type": "error"
    },
    {
      "inputs": [
        {
          "internalType": "address",
          "name": "operator",
          "type": "address"
        }
      ],
      "name": "ERC721InvalidOperator",
      "type": "error"
    },
    {
      "inputs": [
        {
          "internalType": "address",
          "name": "owner",
          "type": "address"
        }
      ],
      "name": "ERC721InvalidOwner",
      "type": "error"
    },
    {
      "inputs": [
        {
          "internalType": "address",
          "name": "receiver",
          "type": "address"
        }
      ],
      "name": "ERC721InvalidReceiver",
      "type": "error"
    },
    {
      "inputs": [
        {
          "internalType": "address",
          "name": "sender",
          "type": "address"
        }
      ],
      "name": "ERC721InvalidSender",
      "type": "error"
    },
    {
      "inputs": [
        {
          "internalType": "uint256",
          "name": "tokenId",
          "type": "uint256"
        }
      ],
      "name": "ERC721NonexistentToken",
      "type": "error"
    },
    {
      "inputs": [
        {
          "internalType": "address",
          "name": "owner",
          "type": "address"
        }
      ],
      "name": "OwnableInvalidOwner",
      "type": "error"
    },
    {
      "inputs": [
        {
          "internalType": "address",
          "name": "account",
          "type": "address"
        }
      ],
      "name": "OwnableUnauthorizedAccount",
      "type": "error"
    },
    {
      "anonymous": false,
      "inputs": [
        {
          "indexed": true,
          "internalType": "address",
          "name": "owner",
          "type": "address"
        },
        {
          "indexed": true,
          "internalType": "address",
          "name": "approved",
          "type": "address"
        },
        {
          "indexed": true,
          "internalType": "uint256",
          "name": "tokenId",
          "type": "uint256"
        }
      ],
      "name": "Approval",
      "type": "event"
    },
    {
      "anonymous": false,
      "inputs": [
        {
          "indexed": true,
          "internalType": "address",
          "name": "owner",
          "type": "address"
        },
        {
          "indexed": true,
          "internalType": "address",
          "name": "operator",
          "type": "address"
        },
        {
          "indexed": false,
          "internalType": "bool",
          "name": "approved",
          "type": "bool"
        }
      ],
      "name": "ApprovalForAll",
      "type": "event"
    },
    {
      "anonymous": false,
      "inputs": [
        {
          "indexed": false,
          "internalType": "uint256",
          "name": "_fromTokenId",
          "type": "uint256"
        },
        {
          "indexed": false,
          "internalType": "uint256",
          "name": "_toTokenId",
          "type": "uint256"
        }
      ],
      "name": "BatchMetadataUpdate",
      "type": "event"
    },
    {
      "anonymous": false,
      "inputs": [
        {
          "indexed": false,
          "internalType": "uint256",
          "name": "_tokenId",
          "type": "uint256"
        }
      ],
      "name": "MetadataUpdate",
      "type": "event"
    },
    {
      "anonymous": false,
      "inputs": [
        {
          "indexed": true,
          "internalType": "address",
          "name": "previousOwner",
          "type": "address"
        },
        {
          "indexed": true,
          "internalType": "address",
          "name": "newOwner",
          "type": "address"
        }
      ],
      "name": "OwnershipTransferred",
      "type": "event"
    },
    {
      "anonymous": false,
      "inputs": [
        {
          "indexed": true,
          "internalType": "address",
          "name": "from",
          "type": "address"
        },
        {
          "indexed": true,
          "internalType": "address",
          "name": "to",
          "type": "address"
        },
        {
          "indexed": true,
          "internalType": "uint256",
          "name": "tokenId",
          "type": "uint256"
        }
      ],
      "name": "Transfer",
      "type": "event"
    },
    {
      "inputs": [
        {
          "internalType": "address",
          "name": "to",
          "type": "address"
        },
        {
          "internalType": "uint256",
          "name": "tokenId",
          "type": "uint256"
        }
      ],
      "name": "approve",
      "outputs": [],
      "stateMutability": "nonpayable",
      "type": "function"
    },
    {
      "inputs": [
        {
          "internalType": "address",
          "name": "owner",
          "type": "address"
        }
      ],
      "name": "balanceOf",
      "outputs": [
        {
          "internalType": "uint256",
          "name": "",
          "type": "uint256"
        }
      ],
      "stateMutability": "view",
      "type": "function"
    },
    {
      "inputs": [
        {
          "internalType": "uint256",
          "name": "tokenId",
          "type": "uint256"
        }
      ],
      "name": "getApproved",
      "outputs": [
        {
          "internalType": "address",
          "name": "",
          "type": "address"
        }
      ],
      "stateMutability": "view",
      "type": "function"
    },
    {
      "inputs": [
        {
          "internalType": "address",
          "name": "owner",
          "type": "address"
        },
        {
          "internalType": "address",
          "name": "operator",
          "type": "address"
        }
      ],
      "name": "isApprovedForAll",
      "outputs": [
        {
          "internalType": "bool",
          "name": "",
          "type": "bool"
        }
      ],
      "stateMutability": "view",
      "type": "function"
    },
    {
      "inputs": [],
      "name": "isPublicMintEnabled",
      "outputs": [
        {
          "internalType": "bool",
          "name": "",
          "type": "bool"
        }
      ],
      "stateMutability": "view",
      "type": "function"
    },
    {
      "inputs": [],
      "name": "maxPerWallet",
      "outputs": [
        {
          "internalType": "uint256",
          "name": "",
          "type": "uint256"
        }
      ],
      "stateMutability": "view",
      "type": "function"
    },
    {
      "inputs": [],
      "name": "maxSupply",
      "outputs": [
        {
          "internalType": "uint256",
          "name": "",
          "type": "uint256"
        }
      ],
      "stateMutability": "view",
      "type": "function"
    },
    {
      "inputs": [
        {
          "internalType": "uint256",
          "name": "_tokenId",
          "type": "uint256"
        },
        {
          "internalType": "string",
          "name": "_uri",
          "type": "string"
        }
      ],
      "name": "mint",
      "outputs": [],
      "stateMutability": "payable",
      "type": "function"
    },
    {
      "inputs": [],
      "name": "mintPrice",
      "outputs": [
        {
          "internalType": "uint256",
          "name": "",
          "type": "uint256"
        }
      ],
      "stateMutability": "view",
      "type": "function"
    },
    {
      "inputs": [],
      "name": "name",
      "outputs": [
        {
          "internalType": "string",
          "name": "",
          "type": "string"
        }
      ],
      "stateMutability": "view",
      "type": "function"
    },
    {
      "inputs": [],
      "name": "owner",
      "outputs": [
        {
          "internalType": "address",
          "name": "",
          "type": "address"
        }
      ],
      "stateMutability": "view",
      "type": "function"
    },
    {
      "inputs": [
        {
          "internalType": "uint256",
          "name": "tokenId",
          "type": "uint256"
        }
      ],
      "name": "ownerOf",
      "outputs": [
        {
          "internalType": "address",
          "name": "",
          "type": "address"
        }
      ],
      "stateMutability": "view",
      "type": "function"
    },
    {
      "inputs": [],
      "name": "renounceOwnership",
      "outputs": [],
      "stateMutability": "nonpayable",
      "type": "function"
    },
    {
      "inputs": [
        {
          "internalType": "address",
          "name": "from",
          "type": "address"
        },
        {
          "internalType": "address",
          "name": "to",
          "type": "address"
        },
        {
          "internalType": "uint256",
          "name": "tokenId",
          "type": "uint256"
        }
      ],
      "name": "safeTransferFrom",
      "outputs": [],
      "stateMutability": "nonpayable",
      "type": "function"
    },
    {
      "inputs": [
        {
          "internalType": "address",
          "name": "from",
          "type": "address"
        },
        {
          "internalType": "address",
          "name": "to",
          "type": "address"
        },
        {
          "internalType": "uint256",
          "name": "tokenId",
          "type": "uint256"
        },
        {
          "internalType": "bytes",
          "name": "data",
          "type": "bytes"
        }
      ],
      "name": "safeTransferFrom",
      "outputs": [],
      "stateMutability": "nonpayable",
      "type": "function"
    },
    {
      "inputs": [
        {
          "internalType": "address",
          "name": "operator",
          "type": "address"
        },
        {
          "internalType": "bool",
          "name": "approved",
          "type": "bool"
        }
      ],
      "name": "setApprovalForAll",
      "outputs": [],
      "stateMutability": "nonpayable",
      "type": "function"
    },
    {
      "inputs": [
        {
          "internalType": "bool",
          "name": "_isPublicMintEnabled",
          "type": "bool"
        }
      ],
      "name": "setIsPublicMintEnabled",
      "outputs": [],
      "stateMutability": "nonpayable",
      "type": "function"
    },
    {
      "inputs": [
        {
          "internalType": "bytes4",
          "name": "interfaceId",
          "type": "bytes4"
        }
      ],
      "name": "supportsInterface",
      "outputs": [
        {
          "internalType": "bool",
          "name": "",
          "type": "bool"
        }
      ],
      "stateMutability": "view",
      "type": "function"
    },
    {
      "inputs": [],
      "name": "symbol",
      "outputs": [
        {
          "internalType": "string",
          "name": "",
          "type": "string"
        }
      ],
      "stateMutability": "view",
      "type": "function"
    },
    {
      "inputs": [
        {
          "internalType": "uint256",
          "name": "tokenId",
          "type": "uint256"
        }
      ],
      "name": "tokenURI",
      "outputs": [
        {
          "internalType": "string",
          "name": "",
          "type": "string"
        }
      ],
      "stateMutability": "view",
      "type": "function"
    },
    {
      "inputs": [],
      "name": "totalSupply",
      "outputs": [
        {
          "internalType": "uint256",
          "name": "",
          "type": "uint256"
        }
      ],
      "stateMutability": "view",
      "type": "function"
    },
    {
      "inputs": [
        {
          "internalType": "address",
          "name": "from",
          "type": "address"
        },
        {
          "internalType": "address",
          "name": "to",
          "type": "address"
        },
        {
          "internalType": "uint256",
          "name": "tokenId",
          "type": "uint256"
        }
      ],
      "name": "transferFrom",
      "outputs": [],
      "stateMutability": "nonpayable",
      "type": "function"
    },
    {
      "inputs": [
        {
          "internalType": "address",
          "name": "newOwner",
          "type": "address"
        }
      ],
      "name": "transferOwnership",
      "outputs": [],
      "stateMutability": "nonpayable",
      "type": "function"
    },
    {
      "inputs": [
        {
          "internalType": "address",
          "name": "",
          "type": "address"
        }
      ],
      "name": "walletMints",
      "outputs": [
        {
          "internalType": "uint256",
          "name": "",
          "type": "uint256"
        }
      ],
      "stateMutability": "view",
      "type": "function"
    },
    {
      "inputs": [
        {
          "internalType": "address",
          "name": "_address",
          "type": "address"
        }
      ],
      "name": "withdraw",
      "outputs": [],
      "stateMutability": "nonpayable",
      "type": "function"
    },
    {
      "inputs": [],
      "name": "withdrawWallet",
      "outputs": [
        {
          "internalType": "address payable",
          "name": "",
          "type": "address"
        }
      ],
      "stateMutability": "view",
      "type": "function"
    }
  ],
  "bytecode": "0x6080604052604051620036cf380380620036cf833981810160405281019062000029919062000395565b33848481600090816200003d919062000686565b5080600190816200004f919062000686565b505050600073ffffffffffffffffffffffffffffffffffffffff168173ffffffffffffffffffffffffffffffffffffffff1603620000c75760006040517f1e4fbdf7000000000000000000000000000000000000000000000000000000008152600401620000be9190620007b2565b60405180910390fd5b620000d8816200010160201b60201c565b5081600881905550600060098190555080600a819055506001600b8190555050505050620007cf565b6000600760009054906101000a900473ffffffffffffffffffffffffffffffffffffffff16905081600760006101000a81548173ffffffffffffffffffffffffffffffffffffffff021916908373ffffffffffffffffffffffffffffffffffffffff1602179055508173ffffffffffffffffffffffffffffffffffffffff168173ffffffffffffffffffffffffffffffffffffffff167f8be0079c531659141344cd1fd0a4f28419497f9722a3daafe3b4186f6b6457e060405160405180910390a35050565b6000604051905090565b600080fd5b600080fd5b600080fd5b600080fd5b6000601f19601f8301169050919050565b7f4e487b7100000000000000000000000000000000000000000000000000000000600052604160045260246000fd5b6200023082620001e5565b810181811067ffffffffffffffff82111715620002525762000251620001f6565b5b80604052505050565b600062000267620001c7565b905062000275828262000225565b919050565b600067ffffffffffffffff821115620002985762000297620001f6565b5b620002a382620001e5565b9050602081019050919050565b60005b83811015620002d0578082015181840152602081019050620002b3565b60008484015250505050565b6000620002f3620002ed846200027a565b6200025b565b905082815260208101848484011115620003125762000311620001e0565b5b6200031f848285620002b0565b509392505050565b600082601f8301126200033f576200033e620001db565b5b815162000351848260208601620002dc565b91505092915050565b6000819050919050565b6200036f816200035a565b81146200037b57600080fd5b50565b6000815190506200038f8162000364565b92915050565b60008060008060808587031215620003b257620003b1620001d1565b5b600085015167ffffffffffffffff811115620003d357620003d2620001d6565b5b620003e18782880162000327565b945050602085015167ffffffffffffffff811115620004055762000404620001d6565b5b620004138782880162000327565b935050604062000426878288016200037e565b925050606062000439878288016200037e565b91505092959194509250565b600081519050919050565b7f4e487b7100000000000000000000000000000000000000000000000000000000600052602260045260246000fd5b600060028204905060018216806200049857607f821691505b602082108103620004ae57620004ad62000450565b5b50919050565b60008190508160005260206000209050919050565b60006020601f8301049050919050565b600082821b905092915050565b600060088302620005187fffffffffffffffffffffffffffffffffffffffffffffffffffffffffffffffff82620004d9565b620005248683620004d9565b95508019841693508086168417925050509392505050565b6000819050919050565b600062000567620005616200055b846200035a565b6200053c565b6200035a565b9050919050565b6000819050919050565b620005838362000546565b6200059b62000592826200056e565b848454620004e6565b825550505050565b600090565b620005b2620005a3565b620005bf81848462000578565b505050565b5b81811015620005e757620005db600082620005a8565b600181019050620005c5565b5050565b601f82111562000636576200060081620004b4565b6200060b84620004c9565b810160208510156200061b578190505b620006336200062a85620004c9565b830182620005c4565b50505b505050565b600082821c905092915050565b60006200065b600019846008026200063b565b1980831691505092915050565b600062000676838362000648565b9150826002028217905092915050565b620006918262000445565b67ffffffffffffffff811115620006ad57620006ac620001f6565b5b620006b982546200047f565b620006c6828285620005eb565b600060209050601f831160018114620006fe5760008415620006e9578287015190505b620006f5858262000668565b86555062000765565b601f1984166200070e86620004b4565b60005b82811015620007385784890151825560018201915060208501945060208101905062000711565b8683101562000758578489015162000754601f89168262000648565b8355505b6001600288020188555050505b505050505050565b600073ffffffffffffffffffffffffffffffffffffffff82169050919050565b60006200079a826200076d565b9050919050565b620007ac816200078d565b82525050565b6000602082019050620007c96000830184620007a1565b92915050565b612ef080620007df6000396000f3fe6080604052600436106101815760003560e01c806370a08231116100d1578063a22cb4651161008a578063d5abeb0111610064578063d5abeb0114610561578063e985e9c51461058c578063f0293fd3146105c9578063f2fde38b1461060657610181565b8063a22cb465146104d2578063b88d4fde146104fb578063c87b56dd1461052457610181565b806370a08231146103e1578063715018a61461041e57806377097fc81461043557806385d178f4146104515780638da5cb5b1461047c57806395d89b41146104a757610181565b80632373ac221161013e578063453c231011610118578063453c23101461032557806351cff8d9146103505780636352211e146103795780636817c76c146103b657610181565b80632373ac22146102aa57806323b872dd146102d357806342842e0e146102fc57610181565b80630116bc2d1461018657806301ffc9a7146101b157806306fdde03146101ee578063081812fc14610219578063095ea7b31461025657806318160ddd1461027f575b600080fd5b34801561019257600080fd5b5061019b61062f565b6040516101a89190612069565b60405180910390f35b3480156101bd57600080fd5b506101d860048036038101906101d391906120f0565b610642565b6040516101e59190612069565b60405180910390f35b3480156101fa57600080fd5b506102036106a3565b60405161021091906121ad565b60405180910390f35b34801561022557600080fd5b50610240600480360381019061023b9190612205565b610735565b60405161024d9190612273565b60405180910390f35b34801561026257600080fd5b5061027d600480360381019061027891906122ba565b610751565b005b34801561028b57600080fd5b50610294610767565b6040516102a19190612309565b60405180910390f35b3480156102b657600080fd5b506102d160048036038101906102cc9190612350565b61076d565b005b3480156102df57600080fd5b506102fa60048036038101906102f5919061237d565b610792565b005b34801561030857600080fd5b50610323600480360381019061031e919061237d565b610894565b005b34801561033157600080fd5b5061033a6108b4565b6040516103479190612309565b60405180910390f35b34801561035c57600080fd5b50610377600480360381019061037291906123d0565b6108ba565b005b34801561038557600080fd5b506103a0600480360381019061039b9190612205565b610972565b6040516103ad9190612273565b60405180910390f35b3480156103c257600080fd5b506103cb610984565b6040516103d89190612309565b60405180910390f35b3480156103ed57600080fd5b50610408600480360381019061040391906123d0565b61098a565b6040516104159190612309565b60405180910390f35b34801561042a57600080fd5b50610433610a44565b005b61044f600480360381019061044a9190612462565b610a58565b005b34801561045d57600080fd5b50610466610c7f565b60405161047391906124e3565b60405180910390f35b34801561048857600080fd5b50610491610ca5565b60405161049e9190612273565b60405180910390f35b3480156104b357600080fd5b506104bc610ccf565b6040516104c991906121ad565b60405180910390f35b3480156104de57600080fd5b506104f960048036038101906104f491906124fe565b610d61565b005b34801561050757600080fd5b50610522600480360381019061051d919061266e565b610d77565b005b34801561053057600080fd5b5061054b60048036038101906105469190612205565b610d94565b60405161055891906121ad565b60405180910390f35b34801561056d57600080fd5b50610576610ea7565b6040516105839190612309565b60405180910390f35b34801561059857600080fd5b506105b360048036038101906105ae91906126f1565b610ead565b6040516105c09190612069565b60405180910390f35b3480156105d557600080fd5b506105f060048036038101906105eb91906123d0565b610f41565b6040516105fd9190612309565b60405180910390f35b34801561061257600080fd5b5061062d600480360381019061062891906123d0565b610f59565b005b600c60009054906101000a900460ff1681565b6000634906490660e01b7bffffffffffffffffffffffffffffffffffffffffffffffffffffffff1916827bffffffffffffffffffffffffffffffffffffffffffffffffffffffff1916148061069c575061069b82610fdf565b5b9050919050565b6060600080546106b290612760565b80601f01602080910402602001604051908101604052809291908181526020018280546106de90612760565b801561072b5780601f106107005761010080835404028352916020019161072b565b820191906000526020600020905b81548152906001019060200180831161070e57829003601f168201915b5050505050905090565b6000610740826110c1565b5061074a82611149565b9050919050565b610763828261075e611186565b61118e565b5050565b60095481565b6107756111a0565b80600c60006101000a81548160ff02191690831515021790555050565b600073ffffffffffffffffffffffffffffffffffffffff168273ffffffffffffffffffffffffffffffffffffffff16036108045760006040517f64a0ae920000000000000000000000000000000000000000000000000000000081526004016107fb9190612273565b60405180910390fd5b60006108188383610813611186565b611227565b90508373ffffffffffffffffffffffffffffffffffffffff168173ffffffffffffffffffffffffffffffffffffffff161461088e578382826040517f64283d7b00000000000000000000000000000000000000000000000000000000815260040161088593929190612791565b60405180910390fd5b50505050565b6108af83838360405180602001604052806000815250610d77565b505050565b600b5481565b6108c26111a0565b60008173ffffffffffffffffffffffffffffffffffffffff16476040516108e8906127f9565b60006040518083038185875af1925050503d8060008114610925576040519150601f19603f3d011682016040523d82523d6000602084013e61092a565b606091505b505090508061096e576040517f08c379a00000000000000000000000000000000000000000000000000000000081526004016109659061285a565b60405180910390fd5b5050565b600061097d826110c1565b9050919050565b60085481565b60008073ffffffffffffffffffffffffffffffffffffffff168273ffffffffffffffffffffffffffffffffffffffff16036109fd5760006040517f89c62b640000000000000000000000000000000000000000000000000000000081526004016109f49190612273565b60405180910390fd5b600360008373ffffffffffffffffffffffffffffffffffffffff1673ffffffffffffffffffffffffffffffffffffffff168152602001908152602001600020549050919050565b610a4c6111a0565b610a566000611441565b565b600c60009054906101000a900460ff16610aa7576040517f08c379a0000000000000000000000000000000000000000000000000000000008152600401610a9e906128c6565b60405180910390fd5b6008543414610aeb576040517f08c379a0000000000000000000000000000000000000000000000000000000008152600401610ae290612932565b60405180910390fd5b600a546009541115610b32576040517f08c379a0000000000000000000000000000000000000000000000000000000008152600401610b299061299e565b60405180910390fd5b600b54600f60003373ffffffffffffffffffffffffffffffffffffffff1673ffffffffffffffffffffffffffffffffffffffff1681526020019081526020016000205410610bb5576040517f08c379a0000000000000000000000000000000000000000000000000000000008152600401610bac90612a0a565b60405180910390fd5b60096000815480929190610bc890612a59565b9190505550600f60003373ffffffffffffffffffffffffffffffffffffffff1673ffffffffffffffffffffffffffffffffffffffff1681526020019081526020016000206000815480929190610c1d90612a59565b9190505550610c2c3384611507565b610c7a8383838080601f016020809104026020016040519081016040528093929190818152602001838380828437600081840152601f19601f82011690508083019250505050505050611525565b505050565b600e60009054906101000a900473ffffffffffffffffffffffffffffffffffffffff1681565b6000600760009054906101000a900473ffffffffffffffffffffffffffffffffffffffff16905090565b606060018054610cde90612760565b80601f0160208091040260200160405190810160405280929190818152602001828054610d0a90612760565b8015610d575780601f10610d2c57610100808354040283529160200191610d57565b820191906000526020600020905b815481529060010190602001808311610d3a57829003601f168201915b5050505050905090565b610d73610d6c611186565b8383611581565b5050565b610d82848484610792565b610d8e848484846116f0565b50505050565b6060610d9f826110c1565b506000600660008481526020019081526020016000208054610dc090612760565b80601f0160208091040260200160405190810160405280929190818152602001828054610dec90612760565b8015610e395780601f10610e0e57610100808354040283529160200191610e39565b820191906000526020600020905b815481529060010190602001808311610e1c57829003601f168201915b505050505090506000610e4a6118a7565b90506000815103610e5f578192505050610ea2565b600082511115610e94578082604051602001610e7c929190612add565b60405160208183030381529060405292505050610ea2565b610e9d846118be565b925050505b919050565b600a5481565b6000600560008473ffffffffffffffffffffffffffffffffffffffff1673ffffffffffffffffffffffffffffffffffffffff16815260200190815260200160002060008373ffffffffffffffffffffffffffffffffffffffff1673ffffffffffffffffffffffffffffffffffffffff16815260200190815260200160002060009054906101000a900460ff16905092915050565b600f6020528060005260406000206000915090505481565b610f616111a0565b600073ffffffffffffffffffffffffffffffffffffffff168173ffffffffffffffffffffffffffffffffffffffff1603610fd35760006040517f1e4fbdf7000000000000000000000000000000000000000000000000000000008152600401610fca9190612273565b60405180910390fd5b610fdc81611441565b50565b60007f80ac58cd000000000000000000000000000000000000000000000000000000007bffffffffffffffffffffffffffffffffffffffffffffffffffffffff1916827bffffffffffffffffffffffffffffffffffffffffffffffffffffffff191614806110aa57507f5b5e139f000000000000000000000000000000000000000000000000000000007bffffffffffffffffffffffffffffffffffffffffffffffffffffffff1916827bffffffffffffffffffffffffffffffffffffffffffffffffffffffff1916145b806110ba57506110b982611927565b5b9050919050565b6000806110cd83611991565b9050600073ffffffffffffffffffffffffffffffffffffffff168173ffffffffffffffffffffffffffffffffffffffff160361114057826040517f7e2732890000000000000000000000000000000000000000000000000000000081526004016111379190612309565b60405180910390fd5b80915050919050565b60006004600083815260200190815260200160002060009054906101000a900473ffffffffffffffffffffffffffffffffffffffff169050919050565b600033905090565b61119b83838360016119ce565b505050565b6111a8611186565b73ffffffffffffffffffffffffffffffffffffffff166111c6610ca5565b73ffffffffffffffffffffffffffffffffffffffff1614611225576111e9611186565b6040517f118cdaa700000000000000000000000000000000000000000000000000000000815260040161121c9190612273565b60405180910390fd5b565b60008061123384611991565b9050600073ffffffffffffffffffffffffffffffffffffffff168373ffffffffffffffffffffffffffffffffffffffff161461127557611274818486611b93565b5b600073ffffffffffffffffffffffffffffffffffffffff168173ffffffffffffffffffffffffffffffffffffffff1614611306576112b76000856000806119ce565b6001600360008373ffffffffffffffffffffffffffffffffffffffff1673ffffffffffffffffffffffffffffffffffffffff168152602001908152602001600020600082825403925050819055505b600073ffffffffffffffffffffffffffffffffffffffff168573ffffffffffffffffffffffffffffffffffffffff1614611389576001600360008773ffffffffffffffffffffffffffffffffffffffff1673ffffffffffffffffffffffffffffffffffffffff168152602001908152602001600020600082825401925050819055505b846002600086815260200190815260200160002060006101000a81548173ffffffffffffffffffffffffffffffffffffffff021916908373ffffffffffffffffffffffffffffffffffffffff160217905550838573ffffffffffffffffffffffffffffffffffffffff168273ffffffffffffffffffffffffffffffffffffffff167fddf252ad1be2c89b69c2b068fc378daa952ba7f163c4a11628f55a4df523b3ef60405160405180910390a4809150509392505050565b6000600760009054906101000a900473ffffffffffffffffffffffffffffffffffffffff16905081600760006101000a81548173ffffffffffffffffffffffffffffffffffffffff021916908373ffffffffffffffffffffffffffffffffffffffff1602179055508173ffffffffffffffffffffffffffffffffffffffff168173ffffffffffffffffffffffffffffffffffffffff167f8be0079c531659141344cd1fd0a4f28419497f9722a3daafe3b4186f6b6457e060405160405180910390a35050565b611521828260405180602001604052806000815250611c57565b5050565b806006600084815260200190815260200160002090816115459190612cad565b507ff8e1a15aba9398e019f0b49df1a4fde98ee17ae345cb5f6b5e2c27f5033e8ce7826040516115759190612309565b60405180910390a15050565b600073ffffffffffffffffffffffffffffffffffffffff168273ffffffffffffffffffffffffffffffffffffffff16036115f257816040517f5b08ba180000000000000000000000000000000000000000000000000000000081526004016115e99190612273565b60405180910390fd5b80600560008573ffffffffffffffffffffffffffffffffffffffff1673ffffffffffffffffffffffffffffffffffffffff16815260200190815260200160002060008473ffffffffffffffffffffffffffffffffffffffff1673ffffffffffffffffffffffffffffffffffffffff16815260200190815260200160002060006101000a81548160ff0219169083151502179055508173ffffffffffffffffffffffffffffffffffffffff168373ffffffffffffffffffffffffffffffffffffffff167f17307eab39ab6107e8899845ad3d59bd9653f200f220920489ca2b5937696c31836040516116e39190612069565b60405180910390a3505050565b60008373ffffffffffffffffffffffffffffffffffffffff163b11156118a1578273ffffffffffffffffffffffffffffffffffffffff1663150b7a02611734611186565b8685856040518563ffffffff1660e01b81526004016117569493929190612dd4565b6020604051808303816000875af192505050801561179257506040513d601f19601f8201168201806040525081019061178f9190612e35565b60015b611816573d80600081146117c2576040519150601f19603f3d011682016040523d82523d6000602084013e6117c7565b606091505b50600081510361180e57836040517f64a0ae920000000000000000000000000000000000000000000000000000000081526004016118059190612273565b60405180910390fd5b805181602001fd5b63150b7a0260e01b7bffffffffffffffffffffffffffffffffffffffffffffffffffffffff1916817bffffffffffffffffffffffffffffffffffffffffffffffffffffffff19161461189f57836040517f64a0ae920000000000000000000000000000000000000000000000000000000081526004016118969190612273565b60405180910390fd5b505b50505050565b606060405180602001604052806000815250905090565b60606118c9826110c1565b5060006118d46118a7565b905060008151116118f4576040518060200160405280600081525061191f565b806118fe84611c73565b60405160200161190f929190612add565b6040516020818303038152906040525b915050919050565b60007f01ffc9a7000000000000000000000000000000000000000000000000000000007bffffffffffffffffffffffffffffffffffffffffffffffffffffffff1916827bffffffffffffffffffffffffffffffffffffffffffffffffffffffff1916149050919050565b60006002600083815260200190815260200160002060009054906101000a900473ffffffffffffffffffffffffffffffffffffffff169050919050565b8080611a075750600073ffffffffffffffffffffffffffffffffffffffff168273ffffffffffffffffffffffffffffffffffffffff1614155b15611b3b576000611a17846110c1565b9050600073ffffffffffffffffffffffffffffffffffffffff168373ffffffffffffffffffffffffffffffffffffffff1614158015611a8257508273ffffffffffffffffffffffffffffffffffffffff168173ffffffffffffffffffffffffffffffffffffffff1614155b8015611a955750611a938184610ead565b155b15611ad757826040517fa9fbf51f000000000000000000000000000000000000000000000000000000008152600401611ace9190612273565b60405180910390fd5b8115611b3957838573ffffffffffffffffffffffffffffffffffffffff168273ffffffffffffffffffffffffffffffffffffffff167f8c5be1e5ebec7d5bd14f71427d1e84f3dd0314c0f7b2291e5b200ac8c7c3b92560405160405180910390a45b505b836004600085815260200190815260200160002060006101000a81548173ffffffffffffffffffffffffffffffffffffffff021916908373ffffffffffffffffffffffffffffffffffffffff16021790555050505050565b611b9e838383611d41565b611c5257600073ffffffffffffffffffffffffffffffffffffffff168373ffffffffffffffffffffffffffffffffffffffff1603611c1357806040517f7e273289000000000000000000000000000000000000000000000000000000008152600401611c0a9190612309565b60405180910390fd5b81816040517f177e802f000000000000000000000000000000000000000000000000000000008152600401611c49929190612e62565b60405180910390fd5b505050565b611c618383611e02565b611c6e60008484846116f0565b505050565b606060006001611c8284611efb565b01905060008167ffffffffffffffff811115611ca157611ca0612543565b5b6040519080825280601f01601f191660200182016040528015611cd35781602001600182028036833780820191505090505b509050600082602001820190505b600115611d36578080600190039150507f3031323334353637383961626364656600000000000000000000000000000000600a86061a8153600a8581611d2a57611d29612e8b565b5b04945060008503611ce1575b819350505050919050565b60008073ffffffffffffffffffffffffffffffffffffffff168373ffffffffffffffffffffffffffffffffffffffff1614158015611df957508273ffffffffffffffffffffffffffffffffffffffff168473ffffffffffffffffffffffffffffffffffffffff161480611dba5750611db98484610ead565b5b80611df857508273ffffffffffffffffffffffffffffffffffffffff16611de083611149565b73ffffffffffffffffffffffffffffffffffffffff16145b5b90509392505050565b600073ffffffffffffffffffffffffffffffffffffffff168273ffffffffffffffffffffffffffffffffffffffff1603611e745760006040517f64a0ae92000000000000000000000000000000000000000000000000000000008152600401611e6b9190612273565b60405180910390fd5b6000611e8283836000611227565b9050600073ffffffffffffffffffffffffffffffffffffffff168173ffffffffffffffffffffffffffffffffffffffff1614611ef65760006040517f73c6ac6e000000000000000000000000000000000000000000000000000000008152600401611eed9190612273565b60405180910390fd5b505050565b600080600090507a184f03e93ff9f4daa797ed6e38ed64bf6a1f0100000000000000008310611f59577a184f03e93ff9f4daa797ed6e38ed64bf6a1f0100000000000000008381611f4f57611f4e612e8b565b5b0492506040810190505b6d04ee2d6d415b85acef81000000008310611f96576d04ee2d6d415b85acef81000000008381611f8c57611f8b612e8b565b5b0492506020810190505b662386f26fc100008310611fc557662386f26fc100008381611fbb57611fba612e8b565b5b0492506010810190505b6305f5e1008310611fee576305f5e1008381611fe457611fe3612e8b565b5b0492506008810190505b612710831061201357612710838161200957612008612e8b565b5b0492506004810190505b60648310612036576064838161202c5761202b612e8b565b5b0492506002810190505b600a8310612045576001810190505b80915050919050565b60008115159050919050565b6120638161204e565b82525050565b600060208201905061207e600083018461205a565b92915050565b6000604051905090565b600080fd5b600080fd5b60007fffffffff0000000000000000000000000000000000000000000000000000000082169050919050565b6120cd81612098565b81146120d857600080fd5b50565b6000813590506120ea816120c4565b92915050565b6000602082840312156121065761210561208e565b5b6000612114848285016120db565b91505092915050565b600081519050919050565b600082825260208201905092915050565b60005b8381101561215757808201518184015260208101905061213c565b60008484015250505050565b6000601f19601f8301169050919050565b600061217f8261211d565b6121898185612128565b9350612199818560208601612139565b6121a281612163565b840191505092915050565b600060208201905081810360008301526121c78184612174565b905092915050565b6000819050919050565b6121e2816121cf565b81146121ed57600080fd5b50565b6000813590506121ff816121d9565b92915050565b60006020828403121561221b5761221a61208e565b5b6000612229848285016121f0565b91505092915050565b600073ffffffffffffffffffffffffffffffffffffffff82169050919050565b600061225d82612232565b9050919050565b61226d81612252565b82525050565b60006020820190506122886000830184612264565b92915050565b61229781612252565b81146122a257600080fd5b50565b6000813590506122b48161228e565b92915050565b600080604083850312156122d1576122d061208e565b5b60006122df858286016122a5565b92505060206122f0858286016121f0565b9150509250929050565b612303816121cf565b82525050565b600060208201905061231e60008301846122fa565b92915050565b61232d8161204e565b811461233857600080fd5b50565b60008135905061234a81612324565b92915050565b6000602082840312156123665761236561208e565b5b60006123748482850161233b565b91505092915050565b6000806000606084860312156123965761239561208e565b5b60006123a4868287016122a5565b93505060206123b5868287016122a5565b92505060406123c6868287016121f0565b9150509250925092565b6000602082840312156123e6576123e561208e565b5b60006123f4848285016122a5565b91505092915050565b600080fd5b600080fd5b600080fd5b60008083601f840112612422576124216123fd565b5b8235905067ffffffffffffffff81111561243f5761243e612402565b5b60208301915083600182028301111561245b5761245a612407565b5b9250929050565b60008060006040848603121561247b5761247a61208e565b5b6000612489868287016121f0565b935050602084013567ffffffffffffffff8111156124aa576124a9612093565b5b6124b68682870161240c565b92509250509250925092565b60006124cd82612232565b9050919050565b6124dd816124c2565b82525050565b60006020820190506124f860008301846124d4565b92915050565b600080604083850312156125155761251461208e565b5b6000612523858286016122a5565b92505060206125348582860161233b565b9150509250929050565b600080fd5b7f4e487b7100000000000000000000000000000000000000000000000000000000600052604160045260246000fd5b61257b82612163565b810181811067ffffffffffffffff8211171561259a57612599612543565b5b80604052505050565b60006125ad612084565b90506125b98282612572565b919050565b600067ffffffffffffffff8211156125d9576125d8612543565b5b6125e282612163565b9050602081019050919050565b82818337600083830152505050565b600061261161260c846125be565b6125a3565b90508281526020810184848401111561262d5761262c61253e565b5b6126388482856125ef565b509392505050565b600082601f830112612655576126546123fd565b5b81356126658482602086016125fe565b91505092915050565b600080600080608085870312156126885761268761208e565b5b6000612696878288016122a5565b94505060206126a7878288016122a5565b93505060406126b8878288016121f0565b925050606085013567ffffffffffffffff8111156126d9576126d8612093565b5b6126e587828801612640565b91505092959194509250565b600080604083850312156127085761270761208e565b5b6000612716858286016122a5565b9250506020612727858286016122a5565b9150509250929050565b7f4e487b7100000000000000000000000000000000000000000000000000000000600052602260045260246000fd5b6000600282049050600182168061277857607f821691505b60208210810361278b5761278a612731565b5b50919050565b60006060820190506127a66000830186612264565b6127b360208301856122fa565b6127c06040830184612264565b949350505050565b600081905092915050565b50565b60006127e36000836127c8565b91506127ee826127d3565b600082019050919050565b6000612804826127d6565b9150819050919050565b7f5769746864726177206661696c65640000000000000000000000000000000000600082015250565b6000612844600f83612128565b915061284f8261280e565b602082019050919050565b6000602082019050818103600083015261287381612837565b9050919050565b7f5075626c6963206d696e74696e67206e6f7420656e61626c6564000000000000600082015250565b60006128b0601a83612128565b91506128bb8261287a565b602082019050919050565b600060208201905081810360008301526128df816128a3565b9050919050565b7f57726f6e67206d696e742076616c756500000000000000000000000000000000600082015250565b600061291c601083612128565b9150612927826128e6565b602082019050919050565b6000602082019050818103600083015261294b8161290f565b9050919050565b7f536f6c64206f7574000000000000000000000000000000000000000000000000600082015250565b6000612988600883612128565b915061299382612952565b602082019050919050565b600060208201905081810360008301526129b78161297b565b9050919050565b7f457863656564206d6178207175616e7469747900000000000000000000000000600082015250565b60006129f4601383612128565b91506129ff826129be565b602082019050919050565b60006020820190508181036000830152612a23816129e7565b9050919050565b7f4e487b7100000000000000000000000000000000000000000000000000000000600052601160045260246000fd5b6000612a64826121cf565b91507fffffffffffffffffffffffffffffffffffffffffffffffffffffffffffffffff8203612a9657612a95612a2a565b5b600182019050919050565b600081905092915050565b6000612ab78261211d565b612ac18185612aa1565b9350612ad1818560208601612139565b80840191505092915050565b6000612ae98285612aac565b9150612af58284612aac565b91508190509392505050565b60008190508160005260206000209050919050565b60006020601f8301049050919050565b600082821b905092915050565b600060088302612b637fffffffffffffffffffffffffffffffffffffffffffffffffffffffffffffffff82612b26565b612b6d8683612b26565b95508019841693508086168417925050509392505050565b6000819050919050565b6000612baa612ba5612ba0846121cf565b612b85565b6121cf565b9050919050565b6000819050919050565b612bc483612b8f565b612bd8612bd082612bb1565b848454612b33565b825550505050565b600090565b612bed612be0565b612bf8818484612bbb565b505050565b5b81811015612c1c57612c11600082612be5565b600181019050612bfe565b5050565b601f821115612c6157612c3281612b01565b612c3b84612b16565b81016020851015612c4a578190505b612c5e612c5685612b16565b830182612bfd565b50505b505050565b600082821c905092915050565b6000612c8460001984600802612c66565b1980831691505092915050565b6000612c9d8383612c73565b9150826002028217905092915050565b612cb68261211d565b67ffffffffffffffff811115612ccf57612cce612543565b5b612cd98254612760565b612ce4828285612c20565b600060209050601f831160018114612d175760008415612d05578287015190505b612d0f8582612c91565b865550612d77565b601f198416612d2586612b01565b60005b82811015612d4d57848901518255600182019150602085019450602081019050612d28565b86831015612d6a5784890151612d66601f891682612c73565b8355505b6001600288020188555050505b505050505050565b600081519050919050565b600082825260208201905092915050565b6000612da682612d7f565b612db08185612d8a565b9350612dc0818560208601612139565b612dc981612163565b840191505092915050565b6000608082019050612de96000830187612264565b612df66020830186612264565b612e0360408301856122fa565b8181036060830152612e158184612d9b565b905095945050505050565b600081519050612e2f816120c4565b92915050565b600060208284031215612e4b57612e4a61208e565b5b6000612e5984828501612e20565b91505092915050565b6000604082019050612e776000830185612264565b612e8460208301846122fa565b9392505050565b7f4e487b7100000000000000000000000000000000000000000000000000000000600052601260045260246000fdfea2646970667358221220a6db48985197a22700894b40567958747c794ac2454b2ef17af5067d02c8a88c64736f6c63430008180033",
  "linkReferences": {},
  "deployedLinkReferences": {}
}