{
  "_format": "hh-sol-artifact-1",
  "contractName": "NFT",
  "sourceName": "contracts/NFT.sol",
  "abi": [
    {
      "inputs": [
        {
          "internalType": "string",
          "name": "_name",
          "type": "string"
        },
        {
          "internalType": "string",
          "name": "_symbol",
          "type": "string"
        },
        {
          "internalType": "uint256",
          "name": "_mintPrice",
          "type": "uint256"
        },
        {
          "internalType": "uint256",
          "name": "_maxSupply",
          "type": "uint256"
        }
      ],
      "stateMutability": "payable",
      "type": "constructor"
    },
    {
      "inputs": [
        {
          "internalType": "address",
          "name": "sender",
          "type": "address"
        },
        {
          "internalType": "uint256",
          "name": "tokenId",
          "type": "uint256"
        },
        {
          "internalType": "address",
          "name": "owner",
          "type": "address"
        }
      ],
      "name": "ERC721IncorrectOwner",
      "type": "error"
    },
    {
      "inputs": [
        {
          "internalType": "address",
          "name": "operator",
          "type": "address"
        },
        {
          "internalType": "uint256",
          "name": "tokenId",
          "type": "uint256"
        }
      ],
      "name": "ERC721InsufficientApproval",
      "type": "error"
    },
    {
      "inputs": [
        {
          "internalType": "address",
          "name": "approver",
          "type": "address"
        }
      ],
      "name": "ERC721InvalidApprover",
      "type": "error"
    },
    {
      "inputs": [
        {
          "internalType": "address",
          "name": "operator",
          "type": "address"
        }
      ],
      "name": "ERC721InvalidOperator",
      "type": "error"
    },
    {
      "inputs": [
        {
          "internalType": "address",
          "name": "owner",
          "type": "address"
        }
      ],
      "name": "ERC721InvalidOwner",
      "type": "error"
    },
    {
      "inputs": [
        {
          "internalType": "address",
          "name": "receiver",
          "type": "address"
        }
      ],
      "name": "ERC721InvalidReceiver",
      "type": "error"
    },
    {
      "inputs": [
        {
          "internalType": "address",
          "name": "sender",
          "type": "address"
        }
      ],
      "name": "ERC721InvalidSender",
      "type": "error"
    },
    {
      "inputs": [
        {
          "internalType": "uint256",
          "name": "tokenId",
          "type": "uint256"
        }
      ],
      "name": "ERC721NonexistentToken",
      "type": "error"
    },
    {
      "inputs": [
        {
          "internalType": "address",
          "name": "owner",
          "type": "address"
        }
      ],
      "name": "OwnableInvalidOwner",
      "type": "error"
    },
    {
      "inputs": [
        {
          "internalType": "address",
          "name": "account",
          "type": "address"
        }
      ],
      "name": "OwnableUnauthorizedAccount",
      "type": "error"
    },
    {
      "anonymous": false,
      "inputs": [
        {
          "indexed": true,
          "internalType": "address",
          "name": "owner",
          "type": "address"
        },
        {
          "indexed": true,
          "internalType": "address",
          "name": "approved",
          "type": "address"
        },
        {
          "indexed": true,
          "internalType": "uint256",
          "name": "tokenId",
          "type": "uint256"
        }
      ],
      "name": "Approval",
      "type": "event"
    },
    {
      "anonymous": false,
      "inputs": [
        {
          "indexed": true,
          "internalType": "address",
          "name": "owner",
          "type": "address"
        },
        {
          "indexed": true,
          "internalType": "address",
          "name": "operator",
          "type": "address"
        },
        {
          "indexed": false,
          "internalType": "bool",
          "name": "approved",
          "type": "bool"
        }
      ],
      "name": "ApprovalForAll",
      "type": "event"
    },
    {
      "anonymous": false,
      "inputs": [
        {
          "indexed": true,
          "internalType": "address",
          "name": "previousOwner",
          "type": "address"
        },
        {
          "indexed": true,
          "internalType": "address",
          "name": "newOwner",
          "type": "address"
        }
      ],
      "name": "OwnershipTransferred",
      "type": "event"
    },
    {
      "anonymous": false,
      "inputs": [
        {
          "indexed": true,
          "internalType": "address",
          "name": "from",
          "type": "address"
        },
        {
          "indexed": true,
          "internalType": "address",
          "name": "to",
          "type": "address"
        },
        {
          "indexed": true,
          "internalType": "uint256",
          "name": "tokenId",
          "type": "uint256"
        }
      ],
      "name": "Transfer",
      "type": "event"
    },
    {
      "inputs": [
        {
          "internalType": "address",
          "name": "to",
          "type": "address"
        },
        {
          "internalType": "uint256",
          "name": "tokenId",
          "type": "uint256"
        }
      ],
      "name": "approve",
      "outputs": [],
      "stateMutability": "nonpayable",
      "type": "function"
    },
    {
      "inputs": [
        {
          "internalType": "address",
          "name": "owner",
          "type": "address"
        }
      ],
      "name": "balanceOf",
      "outputs": [
        {
          "internalType": "uint256",
          "name": "",
          "type": "uint256"
        }
      ],
      "stateMutability": "view",
      "type": "function"
    },
    {
      "inputs": [
        {
          "internalType": "uint256",
          "name": "tokenId",
          "type": "uint256"
        }
      ],
      "name": "getApproved",
      "outputs": [
        {
          "internalType": "address",
          "name": "",
          "type": "address"
        }
      ],
      "stateMutability": "view",
      "type": "function"
    },
    {
      "inputs": [
        {
          "internalType": "address",
          "name": "owner",
          "type": "address"
        },
        {
          "internalType": "address",
          "name": "operator",
          "type": "address"
        }
      ],
      "name": "isApprovedForAll",
      "outputs": [
        {
          "internalType": "bool",
          "name": "",
          "type": "bool"
        }
      ],
      "stateMutability": "view",
      "type": "function"
    },
    {
      "inputs": [],
      "name": "isPublicMintEnabled",
      "outputs": [
        {
          "internalType": "bool",
          "name": "",
          "type": "bool"
        }
      ],
      "stateMutability": "view",
      "type": "function"
    },
    {
      "inputs": [],
      "name": "maxPerWallet",
      "outputs": [
        {
          "internalType": "uint256",
          "name": "",
          "type": "uint256"
        }
      ],
      "stateMutability": "view",
      "type": "function"
    },
    {
      "inputs": [],
      "name": "maxSupply",
      "outputs": [
        {
          "internalType": "uint256",
          "name": "",
          "type": "uint256"
        }
      ],
      "stateMutability": "view",
      "type": "function"
    },
    {
      "inputs": [],
      "name": "mint",
      "outputs": [],
      "stateMutability": "payable",
      "type": "function"
    },
    {
      "inputs": [],
      "name": "mintPrice",
      "outputs": [
        {
          "internalType": "uint256",
          "name": "",
          "type": "uint256"
        }
      ],
      "stateMutability": "view",
      "type": "function"
    },
    {
      "inputs": [],
      "name": "name",
      "outputs": [
        {
          "internalType": "string",
          "name": "",
          "type": "string"
        }
      ],
      "stateMutability": "view",
      "type": "function"
    },
    {
      "inputs": [],
      "name": "owner",
      "outputs": [
        {
          "internalType": "address",
          "name": "",
          "type": "address"
        }
      ],
      "stateMutability": "view",
      "type": "function"
    },
    {
      "inputs": [
        {
          "internalType": "uint256",
          "name": "tokenId",
          "type": "uint256"
        }
      ],
      "name": "ownerOf",
      "outputs": [
        {
          "internalType": "address",
          "name": "",
          "type": "address"
        }
      ],
      "stateMutability": "view",
      "type": "function"
    },
    {
      "inputs": [],
      "name": "renounceOwnership",
      "outputs": [],
      "stateMutability": "nonpayable",
      "type": "function"
    },
    {
      "inputs": [
        {
          "internalType": "address",
          "name": "from",
          "type": "address"
        },
        {
          "internalType": "address",
          "name": "to",
          "type": "address"
        },
        {
          "internalType": "uint256",
          "name": "tokenId",
          "type": "uint256"
        }
      ],
      "name": "safeTransferFrom",
      "outputs": [],
      "stateMutability": "nonpayable",
      "type": "function"
    },
    {
      "inputs": [
        {
          "internalType": "address",
          "name": "from",
          "type": "address"
        },
        {
          "internalType": "address",
          "name": "to",
          "type": "address"
        },
        {
          "internalType": "uint256",
          "name": "tokenId",
          "type": "uint256"
        },
        {
          "internalType": "bytes",
          "name": "data",
          "type": "bytes"
        }
      ],
      "name": "safeTransferFrom",
      "outputs": [],
      "stateMutability": "nonpayable",
      "type": "function"
    },
    {
      "inputs": [
        {
          "internalType": "address",
          "name": "operator",
          "type": "address"
        },
        {
          "internalType": "bool",
          "name": "approved",
          "type": "bool"
        }
      ],
      "name": "setApprovalForAll",
      "outputs": [],
      "stateMutability": "nonpayable",
      "type": "function"
    },
    {
      "inputs": [
        {
          "internalType": "string",
          "name": "_baseTokenUri",
          "type": "string"
        }
      ],
      "name": "setBaseTokenUri",
      "outputs": [],
      "stateMutability": "nonpayable",
      "type": "function"
    },
    {
      "inputs": [
        {
          "internalType": "bool",
          "name": "_isPublicMintEnabled",
          "type": "bool"
        }
      ],
      "name": "setIsPublicMintEnabled",
      "outputs": [],
      "stateMutability": "nonpayable",
      "type": "function"
    },
    {
      "inputs": [
        {
          "internalType": "bytes4",
          "name": "interfaceId",
          "type": "bytes4"
        }
      ],
      "name": "supportsInterface",
      "outputs": [
        {
          "internalType": "bool",
          "name": "",
          "type": "bool"
        }
      ],
      "stateMutability": "view",
      "type": "function"
    },
    {
      "inputs": [],
      "name": "symbol",
      "outputs": [
        {
          "internalType": "string",
          "name": "",
          "type": "string"
        }
      ],
      "stateMutability": "view",
      "type": "function"
    },
    {
      "inputs": [
        {
          "internalType": "uint256",
          "name": "_tokenId",
          "type": "uint256"
        }
      ],
      "name": "tokenURI",
      "outputs": [
        {
          "internalType": "string",
          "name": "",
          "type": "string"
        }
      ],
      "stateMutability": "view",
      "type": "function"
    },
    {
      "inputs": [],
      "name": "totalSupply",
      "outputs": [
        {
          "internalType": "uint256",
          "name": "",
          "type": "uint256"
        }
      ],
      "stateMutability": "view",
      "type": "function"
    },
    {
      "inputs": [
        {
          "internalType": "address",
          "name": "from",
          "type": "address"
        },
        {
          "internalType": "address",
          "name": "to",
          "type": "address"
        },
        {
          "internalType": "uint256",
          "name": "tokenId",
          "type": "uint256"
        }
      ],
      "name": "transferFrom",
      "outputs": [],
      "stateMutability": "nonpayable",
      "type": "function"
    },
    {
      "inputs": [
        {
          "internalType": "address",
          "name": "newOwner",
          "type": "address"
        }
      ],
      "name": "transferOwnership",
      "outputs": [],
      "stateMutability": "nonpayable",
      "type": "function"
    },
    {
      "inputs": [
        {
          "internalType": "address",
          "name": "",
          "type": "address"
        }
      ],
      "name": "walletMints",
      "outputs": [
        {
          "internalType": "uint256",
          "name": "",
          "type": "uint256"
        }
      ],
      "stateMutability": "view",
      "type": "function"
    },
    {
      "inputs": [
        {
          "internalType": "address",
          "name": "_address",
          "type": "address"
        }
      ],
      "name": "withdraw",
      "outputs": [],
      "stateMutability": "nonpayable",
      "type": "function"
    },
    {
      "inputs": [],
      "name": "withdrawWallet",
      "outputs": [
        {
          "internalType": "address payable",
          "name": "",
          "type": "address"
        }
      ],
      "stateMutability": "view",
      "type": "function"
    }
  ],
  "bytecode": "0x60806040526040516200365838038062003658833981810160405281019062000029919062000395565b33848481600090816200003d919062000686565b5080600190816200004f919062000686565b505050600073ffffffffffffffffffffffffffffffffffffffff168173ffffffffffffffffffffffffffffffffffffffff1603620000c75760006040517f1e4fbdf7000000000000000000000000000000000000000000000000000000008152600401620000be9190620007b2565b60405180910390fd5b620000d8816200010160201b60201c565b50816007819055506000600881905550806009819055506001600a8190555050505050620007cf565b6000600660009054906101000a900473ffffffffffffffffffffffffffffffffffffffff16905081600660006101000a81548173ffffffffffffffffffffffffffffffffffffffff021916908373ffffffffffffffffffffffffffffffffffffffff1602179055508173ffffffffffffffffffffffffffffffffffffffff168173ffffffffffffffffffffffffffffffffffffffff167f8be0079c531659141344cd1fd0a4f28419497f9722a3daafe3b4186f6b6457e060405160405180910390a35050565b6000604051905090565b600080fd5b600080fd5b600080fd5b600080fd5b6000601f19601f8301169050919050565b7f4e487b7100000000000000000000000000000000000000000000000000000000600052604160045260246000fd5b6200023082620001e5565b810181811067ffffffffffffffff82111715620002525762000251620001f6565b5b80604052505050565b600062000267620001c7565b905062000275828262000225565b919050565b600067ffffffffffffffff821115620002985762000297620001f6565b5b620002a382620001e5565b9050602081019050919050565b60005b83811015620002d0578082015181840152602081019050620002b3565b60008484015250505050565b6000620002f3620002ed846200027a565b6200025b565b905082815260208101848484011115620003125762000311620001e0565b5b6200031f848285620002b0565b509392505050565b600082601f8301126200033f576200033e620001db565b5b815162000351848260208601620002dc565b91505092915050565b6000819050919050565b6200036f816200035a565b81146200037b57600080fd5b50565b6000815190506200038f8162000364565b92915050565b60008060008060808587031215620003b257620003b1620001d1565b5b600085015167ffffffffffffffff811115620003d357620003d2620001d6565b5b620003e18782880162000327565b945050602085015167ffffffffffffffff811115620004055762000404620001d6565b5b620004138782880162000327565b935050604062000426878288016200037e565b925050606062000439878288016200037e565b91505092959194509250565b600081519050919050565b7f4e487b7100000000000000000000000000000000000000000000000000000000600052602260045260246000fd5b600060028204905060018216806200049857607f821691505b602082108103620004ae57620004ad62000450565b5b50919050565b60008190508160005260206000209050919050565b60006020601f8301049050919050565b600082821b905092915050565b600060088302620005187fffffffffffffffffffffffffffffffffffffffffffffffffffffffffffffffff82620004d9565b620005248683620004d9565b95508019841693508086168417925050509392505050565b6000819050919050565b600062000567620005616200055b846200035a565b6200053c565b6200035a565b9050919050565b6000819050919050565b620005838362000546565b6200059b62000592826200056e565b848454620004e6565b825550505050565b600090565b620005b2620005a3565b620005bf81848462000578565b505050565b5b81811015620005e757620005db600082620005a8565b600181019050620005c5565b5050565b601f82111562000636576200060081620004b4565b6200060b84620004c9565b810160208510156200061b578190505b620006336200062a85620004c9565b830182620005c4565b50505b505050565b600082821c905092915050565b60006200065b600019846008026200063b565b1980831691505092915050565b600062000676838362000648565b9150826002028217905092915050565b620006918262000445565b67ffffffffffffffff811115620006ad57620006ac620001f6565b5b620006b982546200047f565b620006c6828285620005eb565b600060209050601f831160018114620006fe5760008415620006e9578287015190505b620006f5858262000668565b86555062000765565b601f1984166200070e86620004b4565b60005b82811015620007385784890151825560018201915060208501945060208101905062000711565b8683101562000758578489015162000754601f89168262000648565b8355505b6001600288020188555050505b505050505050565b600073ffffffffffffffffffffffffffffffffffffffff82169050919050565b60006200079a826200076d565b9050919050565b620007ac816200078d565b82525050565b6000602082019050620007c96000830184620007a1565b92915050565b612e7980620007df6000396000f3fe60806040526004361061019c5760003560e01c80636817c76c116100ec578063a22cb4651161008a578063d5abeb0111610064578063d5abeb0114610593578063e985e9c5146105be578063f0293fd3146105fb578063f2fde38b146106385761019c565b8063a22cb46514610504578063b88d4fde1461052d578063c87b56dd146105565761019c565b806385d178f4116100c657806385d178f41461045a5780638da5cb5b1461048557806395652cfa146104b057806395d89b41146104d95761019c565b80636817c76c146103db57806370a0823114610406578063715018a6146104435761019c565b806318160ddd1161015957806342842e0e1161013357806342842e0e14610321578063453c23101461034a57806351cff8d9146103755780636352211e1461039e5761019c565b806318160ddd146102a45780632373ac22146102cf57806323b872dd146102f85761019c565b80630116bc2d146101a157806301ffc9a7146101cc57806306fdde0314610209578063081812fc14610234578063095ea7b3146102715780631249c58b1461029a575b600080fd5b3480156101ad57600080fd5b506101b6610661565b6040516101c39190611e82565b60405180910390f35b3480156101d857600080fd5b506101f360048036038101906101ee9190611f09565b610674565b6040516102009190611e82565b60405180910390f35b34801561021557600080fd5b5061021e610756565b60405161022b9190611fc6565b60405180910390f35b34801561024057600080fd5b5061025b6004803603810190610256919061201e565b6107e8565b604051610268919061208c565b60405180910390f35b34801561027d57600080fd5b50610298600480360381019061029391906120d3565b610804565b005b6102a261081a565b005b3480156102b057600080fd5b506102b96109af565b6040516102c69190612122565b60405180910390f35b3480156102db57600080fd5b506102f660048036038101906102f19190612169565b6109b5565b005b34801561030457600080fd5b5061031f600480360381019061031a9190612196565b6109da565b005b34801561032d57600080fd5b5061034860048036038101906103439190612196565b610adc565b005b34801561035657600080fd5b5061035f610afc565b60405161036c9190612122565b60405180910390f35b34801561038157600080fd5b5061039c600480360381019061039791906121e9565b610b02565b005b3480156103aa57600080fd5b506103c560048036038101906103c0919061201e565b610bba565b6040516103d2919061208c565b60405180910390f35b3480156103e757600080fd5b506103f0610bcc565b6040516103fd9190612122565b60405180910390f35b34801561041257600080fd5b5061042d600480360381019061042891906121e9565b610bd2565b60405161043a9190612122565b60405180910390f35b34801561044f57600080fd5b50610458610c8c565b005b34801561046657600080fd5b5061046f610ca0565b60405161047c9190612237565b60405180910390f35b34801561049157600080fd5b5061049a610cc6565b6040516104a7919061208c565b60405180910390f35b3480156104bc57600080fd5b506104d760048036038101906104d291906122b7565b610cf0565b005b3480156104e557600080fd5b506104ee610d0e565b6040516104fb9190611fc6565b60405180910390f35b34801561051057600080fd5b5061052b60048036038101906105269190612304565b610da0565b005b34801561053957600080fd5b50610554600480360381019061054f9190612474565b610db6565b005b34801561056257600080fd5b5061057d6004803603810190610578919061201e565b610dd3565b60405161058a9190611fc6565b60405180910390f35b34801561059f57600080fd5b506105a8610e7e565b6040516105b59190612122565b60405180910390f35b3480156105ca57600080fd5b506105e560048036038101906105e091906124f7565b610e84565b6040516105f29190611e82565b60405180910390f35b34801561060757600080fd5b50610622600480360381019061061d91906121e9565b610f18565b60405161062f9190612122565b60405180910390f35b34801561064457600080fd5b5061065f600480360381019061065a91906121e9565b610f30565b005b600b60009054906101000a900460ff1681565b60007f80ac58cd000000000000000000000000000000000000000000000000000000007bffffffffffffffffffffffffffffffffffffffffffffffffffffffff1916827bffffffffffffffffffffffffffffffffffffffffffffffffffffffff1916148061073f57507f5b5e139f000000000000000000000000000000000000000000000000000000007bffffffffffffffffffffffffffffffffffffffffffffffffffffffff1916827bffffffffffffffffffffffffffffffffffffffffffffffffffffffff1916145b8061074f575061074e82610fb6565b5b9050919050565b60606000805461076590612566565b80601f016020809104026020016040519081016040528092919081815260200182805461079190612566565b80156107de5780601f106107b3576101008083540402835291602001916107de565b820191906000526020600020905b8154815290600101906020018083116107c157829003601f168201915b5050505050905090565b60006107f382611020565b506107fd826110a8565b9050919050565b61081682826108116110e5565b6110ed565b5050565b600b60009054906101000a900460ff16610869576040517f08c379a0000000000000000000000000000000000000000000000000000000008152600401610860906125e3565b60405180910390fd5b60075434146108ad576040517f08c379a00000000000000000000000000000000000000000000000000000000081526004016108a49061264f565b60405180910390fd5b60095460085411156108f4576040517f08c379a00000000000000000000000000000000000000000000000000000000081526004016108eb906126bb565b60405180910390fd5b600a54600e60003373ffffffffffffffffffffffffffffffffffffffff1673ffffffffffffffffffffffffffffffffffffffff1681526020019081526020016000205414610977576040517f08c379a000000000000000000000000000000000000000000000000000000000815260040161096e90612727565b60405180910390fd5b600060016008546109889190612776565b90506008600081548092919061099d906127aa565b91905055506109ac33826110ff565b50565b60085481565b6109bd61111d565b80600b60006101000a81548160ff02191690831515021790555050565b600073ffffffffffffffffffffffffffffffffffffffff168273ffffffffffffffffffffffffffffffffffffffff1603610a4c5760006040517f64a0ae92000000000000000000000000000000000000000000000000000000008152600401610a43919061208c565b60405180910390fd5b6000610a608383610a5b6110e5565b6111a4565b90508373ffffffffffffffffffffffffffffffffffffffff168173ffffffffffffffffffffffffffffffffffffffff1614610ad6578382826040517f64283d7b000000000000000000000000000000000000000000000000000000008152600401610acd939291906127f2565b60405180910390fd5b50505050565b610af783838360405180602001604052806000815250610db6565b505050565b600a5481565b610b0a61111d565b60008173ffffffffffffffffffffffffffffffffffffffff1647604051610b309061285a565b60006040518083038185875af1925050503d8060008114610b6d576040519150601f19603f3d011682016040523d82523d6000602084013e610b72565b606091505b5050905080610bb6576040517f08c379a0000000000000000000000000000000000000000000000000000000008152600401610bad906128bb565b60405180910390fd5b5050565b6000610bc582611020565b9050919050565b60075481565b60008073ffffffffffffffffffffffffffffffffffffffff168273ffffffffffffffffffffffffffffffffffffffff1603610c455760006040517f89c62b64000000000000000000000000000000000000000000000000000000008152600401610c3c919061208c565b60405180910390fd5b600360008373ffffffffffffffffffffffffffffffffffffffff1673ffffffffffffffffffffffffffffffffffffffff168152602001908152602001600020549050919050565b610c9461111d565b610c9e60006113be565b565b600d60009054906101000a900473ffffffffffffffffffffffffffffffffffffffff1681565b6000600660009054906101000a900473ffffffffffffffffffffffffffffffffffffffff16905090565b610cf861111d565b8181600c9182610d09929190612a92565b505050565b606060018054610d1d90612566565b80601f0160208091040260200160405190810160405280929190818152602001828054610d4990612566565b8015610d965780601f10610d6b57610100808354040283529160200191610d96565b820191906000526020600020905b815481529060010190602001808311610d7957829003601f168201915b5050505050905090565b610db2610dab6110e5565b8383611484565b5050565b610dc18484846109da565b610dcd848484846115f3565b50505050565b6060600073ffffffffffffffffffffffffffffffffffffffff16610df6836117aa565b73ffffffffffffffffffffffffffffffffffffffff1603610e4c576040517f08c379a0000000000000000000000000000000000000000000000000000000008152600401610e4390612bae565b60405180910390fd5b600c610e57836117e7565b604051602001610e68929190612cd9565b6040516020818303038152906040529050919050565b60095481565b6000600560008473ffffffffffffffffffffffffffffffffffffffff1673ffffffffffffffffffffffffffffffffffffffff16815260200190815260200160002060008373ffffffffffffffffffffffffffffffffffffffff1673ffffffffffffffffffffffffffffffffffffffff16815260200190815260200160002060009054906101000a900460ff16905092915050565b600e6020528060005260406000206000915090505481565b610f3861111d565b600073ffffffffffffffffffffffffffffffffffffffff168173ffffffffffffffffffffffffffffffffffffffff1603610faa5760006040517f1e4fbdf7000000000000000000000000000000000000000000000000000000008152600401610fa1919061208c565b60405180910390fd5b610fb3816113be565b50565b60007f01ffc9a7000000000000000000000000000000000000000000000000000000007bffffffffffffffffffffffffffffffffffffffffffffffffffffffff1916827bffffffffffffffffffffffffffffffffffffffffffffffffffffffff1916149050919050565b60008061102c836117aa565b9050600073ffffffffffffffffffffffffffffffffffffffff168173ffffffffffffffffffffffffffffffffffffffff160361109f57826040517f7e2732890000000000000000000000000000000000000000000000000000000081526004016110969190612122565b60405180910390fd5b80915050919050565b60006004600083815260200190815260200160002060009054906101000a900473ffffffffffffffffffffffffffffffffffffffff169050919050565b600033905090565b6110fa83838360016118b5565b505050565b611119828260405180602001604052806000815250611a7a565b5050565b6111256110e5565b73ffffffffffffffffffffffffffffffffffffffff16611143610cc6565b73ffffffffffffffffffffffffffffffffffffffff16146111a2576111666110e5565b6040517f118cdaa7000000000000000000000000000000000000000000000000000000008152600401611199919061208c565b60405180910390fd5b565b6000806111b0846117aa565b9050600073ffffffffffffffffffffffffffffffffffffffff168373ffffffffffffffffffffffffffffffffffffffff16146111f2576111f1818486611a96565b5b600073ffffffffffffffffffffffffffffffffffffffff168173ffffffffffffffffffffffffffffffffffffffff1614611283576112346000856000806118b5565b6001600360008373ffffffffffffffffffffffffffffffffffffffff1673ffffffffffffffffffffffffffffffffffffffff168152602001908152602001600020600082825403925050819055505b600073ffffffffffffffffffffffffffffffffffffffff168573ffffffffffffffffffffffffffffffffffffffff1614611306576001600360008773ffffffffffffffffffffffffffffffffffffffff1673ffffffffffffffffffffffffffffffffffffffff168152602001908152602001600020600082825401925050819055505b846002600086815260200190815260200160002060006101000a81548173ffffffffffffffffffffffffffffffffffffffff021916908373ffffffffffffffffffffffffffffffffffffffff160217905550838573ffffffffffffffffffffffffffffffffffffffff168273ffffffffffffffffffffffffffffffffffffffff167fddf252ad1be2c89b69c2b068fc378daa952ba7f163c4a11628f55a4df523b3ef60405160405180910390a4809150509392505050565b6000600660009054906101000a900473ffffffffffffffffffffffffffffffffffffffff16905081600660006101000a81548173ffffffffffffffffffffffffffffffffffffffff021916908373ffffffffffffffffffffffffffffffffffffffff1602179055508173ffffffffffffffffffffffffffffffffffffffff168173ffffffffffffffffffffffffffffffffffffffff167f8be0079c531659141344cd1fd0a4f28419497f9722a3daafe3b4186f6b6457e060405160405180910390a35050565b600073ffffffffffffffffffffffffffffffffffffffff168273ffffffffffffffffffffffffffffffffffffffff16036114f557816040517f5b08ba180000000000000000000000000000000000000000000000000000000081526004016114ec919061208c565b60405180910390fd5b80600560008573ffffffffffffffffffffffffffffffffffffffff1673ffffffffffffffffffffffffffffffffffffffff16815260200190815260200160002060008473ffffffffffffffffffffffffffffffffffffffff1673ffffffffffffffffffffffffffffffffffffffff16815260200190815260200160002060006101000a81548160ff0219169083151502179055508173ffffffffffffffffffffffffffffffffffffffff168373ffffffffffffffffffffffffffffffffffffffff167f17307eab39ab6107e8899845ad3d59bd9653f200f220920489ca2b5937696c31836040516115e69190611e82565b60405180910390a3505050565b60008373ffffffffffffffffffffffffffffffffffffffff163b11156117a4578273ffffffffffffffffffffffffffffffffffffffff1663150b7a026116376110e5565b8685856040518563ffffffff1660e01b81526004016116599493929190612d5d565b6020604051808303816000875af192505050801561169557506040513d601f19601f820116820180604052508101906116929190612dbe565b60015b611719573d80600081146116c5576040519150601f19603f3d011682016040523d82523d6000602084013e6116ca565b606091505b50600081510361171157836040517f64a0ae92000000000000000000000000000000000000000000000000000000008152600401611708919061208c565b60405180910390fd5b805181602001fd5b63150b7a0260e01b7bffffffffffffffffffffffffffffffffffffffffffffffffffffffff1916817bffffffffffffffffffffffffffffffffffffffffffffffffffffffff1916146117a257836040517f64a0ae92000000000000000000000000000000000000000000000000000000008152600401611799919061208c565b60405180910390fd5b505b50505050565b60006002600083815260200190815260200160002060009054906101000a900473ffffffffffffffffffffffffffffffffffffffff169050919050565b6060600060016117f684611b5a565b01905060008167ffffffffffffffff81111561181557611814612349565b5b6040519080825280601f01601f1916602001820160405280156118475781602001600182028036833780820191505090505b509050600082602001820190505b6001156118aa578080600190039150507f3031323334353637383961626364656600000000000000000000000000000000600a86061a8153600a858161189e5761189d612deb565b5b04945060008503611855575b819350505050919050565b80806118ee5750600073ffffffffffffffffffffffffffffffffffffffff168273ffffffffffffffffffffffffffffffffffffffff1614155b15611a225760006118fe84611020565b9050600073ffffffffffffffffffffffffffffffffffffffff168373ffffffffffffffffffffffffffffffffffffffff161415801561196957508273ffffffffffffffffffffffffffffffffffffffff168173ffffffffffffffffffffffffffffffffffffffff1614155b801561197c575061197a8184610e84565b155b156119be57826040517fa9fbf51f0000000000000000000000000000000000000000000000000000000081526004016119b5919061208c565b60405180910390fd5b8115611a2057838573ffffffffffffffffffffffffffffffffffffffff168273ffffffffffffffffffffffffffffffffffffffff167f8c5be1e5ebec7d5bd14f71427d1e84f3dd0314c0f7b2291e5b200ac8c7c3b92560405160405180910390a45b505b836004600085815260200190815260200160002060006101000a81548173ffffffffffffffffffffffffffffffffffffffff021916908373ffffffffffffffffffffffffffffffffffffffff16021790555050505050565b611a848383611cad565b611a9160008484846115f3565b505050565b611aa1838383611da6565b611b5557600073ffffffffffffffffffffffffffffffffffffffff168373ffffffffffffffffffffffffffffffffffffffff1603611b1657806040517f7e273289000000000000000000000000000000000000000000000000000000008152600401611b0d9190612122565b60405180910390fd5b81816040517f177e802f000000000000000000000000000000000000000000000000000000008152600401611b4c929190612e1a565b60405180910390fd5b505050565b600080600090507a184f03e93ff9f4daa797ed6e38ed64bf6a1f0100000000000000008310611bb8577a184f03e93ff9f4daa797ed6e38ed64bf6a1f0100000000000000008381611bae57611bad612deb565b5b0492506040810190505b6d04ee2d6d415b85acef81000000008310611bf5576d04ee2d6d415b85acef81000000008381611beb57611bea612deb565b5b0492506020810190505b662386f26fc100008310611c2457662386f26fc100008381611c1a57611c19612deb565b5b0492506010810190505b6305f5e1008310611c4d576305f5e1008381611c4357611c42612deb565b5b0492506008810190505b6127108310611c72576127108381611c6857611c67612deb565b5b0492506004810190505b60648310611c955760648381611c8b57611c8a612deb565b5b0492506002810190505b600a8310611ca4576001810190505b80915050919050565b600073ffffffffffffffffffffffffffffffffffffffff168273ffffffffffffffffffffffffffffffffffffffff1603611d1f5760006040517f64a0ae92000000000000000000000000000000000000000000000000000000008152600401611d16919061208c565b60405180910390fd5b6000611d2d838360006111a4565b9050600073ffffffffffffffffffffffffffffffffffffffff168173ffffffffffffffffffffffffffffffffffffffff1614611da15760006040517f73c6ac6e000000000000000000000000000000000000000000000000000000008152600401611d98919061208c565b60405180910390fd5b505050565b60008073ffffffffffffffffffffffffffffffffffffffff168373ffffffffffffffffffffffffffffffffffffffff1614158015611e5e57508273ffffffffffffffffffffffffffffffffffffffff168473ffffffffffffffffffffffffffffffffffffffff161480611e1f5750611e1e8484610e84565b5b80611e5d57508273ffffffffffffffffffffffffffffffffffffffff16611e45836110a8565b73ffffffffffffffffffffffffffffffffffffffff16145b5b90509392505050565b60008115159050919050565b611e7c81611e67565b82525050565b6000602082019050611e976000830184611e73565b92915050565b6000604051905090565b600080fd5b600080fd5b60007fffffffff0000000000000000000000000000000000000000000000000000000082169050919050565b611ee681611eb1565b8114611ef157600080fd5b50565b600081359050611f0381611edd565b92915050565b600060208284031215611f1f57611f1e611ea7565b5b6000611f2d84828501611ef4565b91505092915050565b600081519050919050565b600082825260208201905092915050565b60005b83811015611f70578082015181840152602081019050611f55565b60008484015250505050565b6000601f19601f8301169050919050565b6000611f9882611f36565b611fa28185611f41565b9350611fb2818560208601611f52565b611fbb81611f7c565b840191505092915050565b60006020820190508181036000830152611fe08184611f8d565b905092915050565b6000819050919050565b611ffb81611fe8565b811461200657600080fd5b50565b60008135905061201881611ff2565b92915050565b60006020828403121561203457612033611ea7565b5b600061204284828501612009565b91505092915050565b600073ffffffffffffffffffffffffffffffffffffffff82169050919050565b60006120768261204b565b9050919050565b6120868161206b565b82525050565b60006020820190506120a1600083018461207d565b92915050565b6120b08161206b565b81146120bb57600080fd5b50565b6000813590506120cd816120a7565b92915050565b600080604083850312156120ea576120e9611ea7565b5b60006120f8858286016120be565b925050602061210985828601612009565b9150509250929050565b61211c81611fe8565b82525050565b60006020820190506121376000830184612113565b92915050565b61214681611e67565b811461215157600080fd5b50565b6000813590506121638161213d565b92915050565b60006020828403121561217f5761217e611ea7565b5b600061218d84828501612154565b91505092915050565b6000806000606084860312156121af576121ae611ea7565b5b60006121bd868287016120be565b93505060206121ce868287016120be565b92505060406121df86828701612009565b9150509250925092565b6000602082840312156121ff576121fe611ea7565b5b600061220d848285016120be565b91505092915050565b60006122218261204b565b9050919050565b61223181612216565b82525050565b600060208201905061224c6000830184612228565b92915050565b600080fd5b600080fd5b600080fd5b60008083601f84011261227757612276612252565b5b8235905067ffffffffffffffff81111561229457612293612257565b5b6020830191508360018202830111156122b0576122af61225c565b5b9250929050565b600080602083850312156122ce576122cd611ea7565b5b600083013567ffffffffffffffff8111156122ec576122eb611eac565b5b6122f885828601612261565b92509250509250929050565b6000806040838503121561231b5761231a611ea7565b5b6000612329858286016120be565b925050602061233a85828601612154565b9150509250929050565b600080fd5b7f4e487b7100000000000000000000000000000000000000000000000000000000600052604160045260246000fd5b61238182611f7c565b810181811067ffffffffffffffff821117156123a05761239f612349565b5b80604052505050565b60006123b3611e9d565b90506123bf8282612378565b919050565b600067ffffffffffffffff8211156123df576123de612349565b5b6123e882611f7c565b9050602081019050919050565b82818337600083830152505050565b6000612417612412846123c4565b6123a9565b90508281526020810184848401111561243357612432612344565b5b61243e8482856123f5565b509392505050565b600082601f83011261245b5761245a612252565b5b813561246b848260208601612404565b91505092915050565b6000806000806080858703121561248e5761248d611ea7565b5b600061249c878288016120be565b94505060206124ad878288016120be565b93505060406124be87828801612009565b925050606085013567ffffffffffffffff8111156124df576124de611eac565b5b6124eb87828801612446565b91505092959194509250565b6000806040838503121561250e5761250d611ea7565b5b600061251c858286016120be565b925050602061252d858286016120be565b9150509250929050565b7f4e487b7100000000000000000000000000000000000000000000000000000000600052602260045260246000fd5b6000600282049050600182168061257e57607f821691505b60208210810361259157612590612537565b5b50919050565b7f5075626c6963206d696e74696e67206e6f7420656e61626c6564000000000000600082015250565b60006125cd601a83611f41565b91506125d882612597565b602082019050919050565b600060208201905081810360008301526125fc816125c0565b9050919050565b7f57726f6e67206d696e742076616c756500000000000000000000000000000000600082015250565b6000612639601083611f41565b915061264482612603565b602082019050919050565b600060208201905081810360008301526126688161262c565b9050919050565b7f536f6c64206f7574000000000000000000000000000000000000000000000000600082015250565b60006126a5600883611f41565b91506126b08261266f565b602082019050919050565b600060208201905081810360008301526126d481612698565b9050919050565b7f457863656564206d6178207175616e7469747900000000000000000000000000600082015250565b6000612711601383611f41565b915061271c826126db565b602082019050919050565b6000602082019050818103600083015261274081612704565b9050919050565b7f4e487b7100000000000000000000000000000000000000000000000000000000600052601160045260246000fd5b600061278182611fe8565b915061278c83611fe8565b92508282019050808211156127a4576127a3612747565b5b92915050565b60006127b582611fe8565b91507fffffffffffffffffffffffffffffffffffffffffffffffffffffffffffffffff82036127e7576127e6612747565b5b600182019050919050565b6000606082019050612807600083018661207d565b6128146020830185612113565b612821604083018461207d565b949350505050565b600081905092915050565b50565b6000612844600083612829565b915061284f82612834565b600082019050919050565b600061286582612837565b9150819050919050565b7f5769746864726177206661696c65640000000000000000000000000000000000600082015250565b60006128a5600f83611f41565b91506128b08261286f565b602082019050919050565b600060208201905081810360008301526128d481612898565b9050919050565b600082905092915050565b60008190508160005260206000209050919050565b60006020601f8301049050919050565b600082821b905092915050565b6000600883026129487fffffffffffffffffffffffffffffffffffffffffffffffffffffffffffffffff8261290b565b612952868361290b565b95508019841693508086168417925050509392505050565b6000819050919050565b600061298f61298a61298584611fe8565b61296a565b611fe8565b9050919050565b6000819050919050565b6129a983612974565b6129bd6129b582612996565b848454612918565b825550505050565b600090565b6129d26129c5565b6129dd8184846129a0565b505050565b5b81811015612a01576129f66000826129ca565b6001810190506129e3565b5050565b601f821115612a4657612a17816128e6565b612a20846128fb565b81016020851015612a2f578190505b612a43612a3b856128fb565b8301826129e2565b50505b505050565b600082821c905092915050565b6000612a6960001984600802612a4b565b1980831691505092915050565b6000612a828383612a58565b9150826002028217905092915050565b612a9c83836128db565b67ffffffffffffffff811115612ab557612ab4612349565b5b612abf8254612566565b612aca828285612a05565b6000601f831160018114612af95760008415612ae7578287013590505b612af18582612a76565b865550612b59565b601f198416612b07866128e6565b60005b82811015612b2f57848901358255600182019150602085019450602081019050612b0a565b86831015612b4c5784890135612b48601f891682612a58565b8355505b6001600288020188555050505b50505050505050565b7f546f6b656e20646f6573206e6f74206578697374000000000000000000000000600082015250565b6000612b98601483611f41565b9150612ba382612b62565b602082019050919050565b60006020820190508181036000830152612bc781612b8b565b9050919050565b600081905092915050565b60008154612be681612566565b612bf08186612bce565b94506001821660008114612c0b5760018114612c2057612c53565b60ff1983168652811515820286019350612c53565b612c29856128e6565b60005b83811015612c4b57815481890152600182019150602081019050612c2c565b838801955050505b50505092915050565b6000612c6782611f36565b612c718185612bce565b9350612c81818560208601611f52565b80840191505092915050565b7f2e6a736f6e000000000000000000000000000000000000000000000000000000600082015250565b6000612cc3600583612bce565b9150612cce82612c8d565b600582019050919050565b6000612ce58285612bd9565b9150612cf18284612c5c565b9150612cfc82612cb6565b91508190509392505050565b600081519050919050565b600082825260208201905092915050565b6000612d2f82612d08565b612d398185612d13565b9350612d49818560208601611f52565b612d5281611f7c565b840191505092915050565b6000608082019050612d72600083018761207d565b612d7f602083018661207d565b612d8c6040830185612113565b8181036060830152612d9e8184612d24565b905095945050505050565b600081519050612db881611edd565b92915050565b600060208284031215612dd457612dd3611ea7565b5b6000612de284828501612da9565b91505092915050565b7f4e487b7100000000000000000000000000000000000000000000000000000000600052601260045260246000fd5b6000604082019050612e2f600083018561207d565b612e3c6020830184612113565b939250505056fea26469706673582212209eaef9c574453eedc43fbc4e9166e354e628a742f9d97d2ef890e2be15f901d564736f6c63430008180033",
  "linkReferences": {},
  "deployedLinkReferences": {}
}