{
  "_format": "hh-sol-artifact-1",
  "contractName": "NFT",
  "sourceName": "contracts/NFT.sol",
  "abi": [
    {
      "inputs": [
        {
          "internalType": "string",
          "name": "_name",
          "type": "string"
        },
        {
          "internalType": "string",
          "name": "_symbol",
          "type": "string"
        },
        {
          "internalType": "uint256",
          "name": "_mintPrice",
          "type": "uint256"
        },
        {
          "internalType": "uint256",
          "name": "_maxSupply",
          "type": "uint256"
        }
      ],
      "stateMutability": "payable",
      "type": "constructor"
    },
    {
      "inputs": [
        {
          "internalType": "address",
          "name": "sender",
          "type": "address"
        },
        {
          "internalType": "uint256",
          "name": "tokenId",
          "type": "uint256"
        },
        {
          "internalType": "address",
          "name": "owner",
          "type": "address"
        }
      ],
      "name": "ERC721IncorrectOwner",
      "type": "error"
    },
    {
      "inputs": [
        {
          "internalType": "address",
          "name": "operator",
          "type": "address"
        },
        {
          "internalType": "uint256",
          "name": "tokenId",
          "type": "uint256"
        }
      ],
      "name": "ERC721InsufficientApproval",
      "type": "error"
    },
    {
      "inputs": [
        {
          "internalType": "address",
          "name": "approver",
          "type": "address"
        }
      ],
      "name": "ERC721InvalidApprover",
      "type": "error"
    },
    {
      "inputs": [
        {
          "internalType": "address",
          "name": "operator",
          "type": "address"
        }
      ],
      "name": "ERC721InvalidOperator",
      "type": "error"
    },
    {
      "inputs": [
        {
          "internalType": "address",
          "name": "owner",
          "type": "address"
        }
      ],
      "name": "ERC721InvalidOwner",
      "type": "error"
    },
    {
      "inputs": [
        {
          "internalType": "address",
          "name": "receiver",
          "type": "address"
        }
      ],
      "name": "ERC721InvalidReceiver",
      "type": "error"
    },
    {
      "inputs": [
        {
          "internalType": "address",
          "name": "sender",
          "type": "address"
        }
      ],
      "name": "ERC721InvalidSender",
      "type": "error"
    },
    {
      "inputs": [
        {
          "internalType": "uint256",
          "name": "tokenId",
          "type": "uint256"
        }
      ],
      "name": "ERC721NonexistentToken",
      "type": "error"
    },
    {
      "inputs": [
        {
          "internalType": "address",
          "name": "owner",
          "type": "address"
        }
      ],
      "name": "OwnableInvalidOwner",
      "type": "error"
    },
    {
      "inputs": [
        {
          "internalType": "address",
          "name": "account",
          "type": "address"
        }
      ],
      "name": "OwnableUnauthorizedAccount",
      "type": "error"
    },
    {
      "anonymous": false,
      "inputs": [
        {
          "indexed": true,
          "internalType": "address",
          "name": "owner",
          "type": "address"
        },
        {
          "indexed": true,
          "internalType": "address",
          "name": "approved",
          "type": "address"
        },
        {
          "indexed": true,
          "internalType": "uint256",
          "name": "tokenId",
          "type": "uint256"
        }
      ],
      "name": "Approval",
      "type": "event"
    },
    {
      "anonymous": false,
      "inputs": [
        {
          "indexed": true,
          "internalType": "address",
          "name": "owner",
          "type": "address"
        },
        {
          "indexed": true,
          "internalType": "address",
          "name": "operator",
          "type": "address"
        },
        {
          "indexed": false,
          "internalType": "bool",
          "name": "approved",
          "type": "bool"
        }
      ],
      "name": "ApprovalForAll",
      "type": "event"
    },
    {
      "anonymous": false,
      "inputs": [
        {
          "indexed": false,
          "internalType": "uint256",
          "name": "_fromTokenId",
          "type": "uint256"
        },
        {
          "indexed": false,
          "internalType": "uint256",
          "name": "_toTokenId",
          "type": "uint256"
        }
      ],
      "name": "BatchMetadataUpdate",
      "type": "event"
    },
    {
      "anonymous": false,
      "inputs": [
        {
          "indexed": false,
          "internalType": "uint256",
          "name": "_tokenId",
          "type": "uint256"
        }
      ],
      "name": "MetadataUpdate",
      "type": "event"
    },
    {
      "anonymous": false,
      "inputs": [
        {
          "indexed": true,
          "internalType": "address",
          "name": "previousOwner",
          "type": "address"
        },
        {
          "indexed": true,
          "internalType": "address",
          "name": "newOwner",
          "type": "address"
        }
      ],
      "name": "OwnershipTransferred",
      "type": "event"
    },
    {
      "anonymous": false,
      "inputs": [
        {
          "indexed": true,
          "internalType": "address",
          "name": "from",
          "type": "address"
        },
        {
          "indexed": true,
          "internalType": "address",
          "name": "to",
          "type": "address"
        },
        {
          "indexed": true,
          "internalType": "uint256",
          "name": "tokenId",
          "type": "uint256"
        }
      ],
      "name": "Transfer",
      "type": "event"
    },
    {
      "inputs": [
        {
          "internalType": "address",
          "name": "to",
          "type": "address"
        },
        {
          "internalType": "uint256",
          "name": "tokenId",
          "type": "uint256"
        }
      ],
      "name": "approve",
      "outputs": [],
      "stateMutability": "nonpayable",
      "type": "function"
    },
    {
      "inputs": [
        {
          "internalType": "address",
          "name": "owner",
          "type": "address"
        }
      ],
      "name": "balanceOf",
      "outputs": [
        {
          "internalType": "uint256",
          "name": "",
          "type": "uint256"
        }
      ],
      "stateMutability": "view",
      "type": "function"
    },
    {
      "inputs": [
        {
          "internalType": "uint256",
          "name": "tokenId",
          "type": "uint256"
        }
      ],
      "name": "getApproved",
      "outputs": [
        {
          "internalType": "address",
          "name": "",
          "type": "address"
        }
      ],
      "stateMutability": "view",
      "type": "function"
    },
    {
      "inputs": [
        {
          "internalType": "address",
          "name": "owner",
          "type": "address"
        },
        {
          "internalType": "address",
          "name": "operator",
          "type": "address"
        }
      ],
      "name": "isApprovedForAll",
      "outputs": [
        {
          "internalType": "bool",
          "name": "",
          "type": "bool"
        }
      ],
      "stateMutability": "view",
      "type": "function"
    },
    {
      "inputs": [],
      "name": "isPublicMintEnabled",
      "outputs": [
        {
          "internalType": "bool",
          "name": "",
          "type": "bool"
        }
      ],
      "stateMutability": "view",
      "type": "function"
    },
    {
      "inputs": [],
      "name": "maxPerWallet",
      "outputs": [
        {
          "internalType": "uint256",
          "name": "",
          "type": "uint256"
        }
      ],
      "stateMutability": "view",
      "type": "function"
    },
    {
      "inputs": [],
      "name": "maxSupply",
      "outputs": [
        {
          "internalType": "uint256",
          "name": "",
          "type": "uint256"
        }
      ],
      "stateMutability": "view",
      "type": "function"
    },
    {
      "inputs": [
        {
          "internalType": "uint256",
          "name": "_tokenId",
          "type": "uint256"
        },
        {
          "internalType": "string",
          "name": "_uri",
          "type": "string"
        }
      ],
      "name": "mint",
      "outputs": [],
      "stateMutability": "payable",
      "type": "function"
    },
    {
      "inputs": [],
      "name": "mintPrice",
      "outputs": [
        {
          "internalType": "uint256",
          "name": "",
          "type": "uint256"
        }
      ],
      "stateMutability": "view",
      "type": "function"
    },
    {
      "inputs": [],
      "name": "name",
      "outputs": [
        {
          "internalType": "string",
          "name": "",
          "type": "string"
        }
      ],
      "stateMutability": "view",
      "type": "function"
    },
    {
      "inputs": [],
      "name": "owner",
      "outputs": [
        {
          "internalType": "address",
          "name": "",
          "type": "address"
        }
      ],
      "stateMutability": "view",
      "type": "function"
    },
    {
      "inputs": [
        {
          "internalType": "uint256",
          "name": "tokenId",
          "type": "uint256"
        }
      ],
      "name": "ownerOf",
      "outputs": [
        {
          "internalType": "address",
          "name": "",
          "type": "address"
        }
      ],
      "stateMutability": "view",
      "type": "function"
    },
    {
      "inputs": [],
      "name": "renounceOwnership",
      "outputs": [],
      "stateMutability": "nonpayable",
      "type": "function"
    },
    {
      "inputs": [
        {
          "internalType": "address",
          "name": "from",
          "type": "address"
        },
        {
          "internalType": "address",
          "name": "to",
          "type": "address"
        },
        {
          "internalType": "uint256",
          "name": "tokenId",
          "type": "uint256"
        }
      ],
      "name": "safeTransferFrom",
      "outputs": [],
      "stateMutability": "nonpayable",
      "type": "function"
    },
    {
      "inputs": [
        {
          "internalType": "address",
          "name": "from",
          "type": "address"
        },
        {
          "internalType": "address",
          "name": "to",
          "type": "address"
        },
        {
          "internalType": "uint256",
          "name": "tokenId",
          "type": "uint256"
        },
        {
          "internalType": "bytes",
          "name": "data",
          "type": "bytes"
        }
      ],
      "name": "safeTransferFrom",
      "outputs": [],
      "stateMutability": "nonpayable",
      "type": "function"
    },
    {
      "inputs": [
        {
          "internalType": "address",
          "name": "operator",
          "type": "address"
        },
        {
          "internalType": "bool",
          "name": "approved",
          "type": "bool"
        }
      ],
      "name": "setApprovalForAll",
      "outputs": [],
      "stateMutability": "nonpayable",
      "type": "function"
    },
    {
      "inputs": [
        {
          "internalType": "bool",
          "name": "_isPublicMintEnabled",
          "type": "bool"
        }
      ],
      "name": "setIsPublicMintEnabled",
      "outputs": [],
      "stateMutability": "nonpayable",
      "type": "function"
    },
    {
      "inputs": [
        {
          "internalType": "bytes4",
          "name": "interfaceId",
          "type": "bytes4"
        }
      ],
      "name": "supportsInterface",
      "outputs": [
        {
          "internalType": "bool",
          "name": "",
          "type": "bool"
        }
      ],
      "stateMutability": "view",
      "type": "function"
    },
    {
      "inputs": [],
      "name": "symbol",
      "outputs": [
        {
          "internalType": "string",
          "name": "",
          "type": "string"
        }
      ],
      "stateMutability": "view",
      "type": "function"
    },
    {
      "inputs": [
        {
          "internalType": "uint256",
          "name": "tokenId",
          "type": "uint256"
        }
      ],
      "name": "tokenURI",
      "outputs": [
        {
          "internalType": "string",
          "name": "",
          "type": "string"
        }
      ],
      "stateMutability": "view",
      "type": "function"
    },
    {
      "inputs": [],
      "name": "totalSupply",
      "outputs": [
        {
          "internalType": "uint256",
          "name": "",
          "type": "uint256"
        }
      ],
      "stateMutability": "view",
      "type": "function"
    },
    {
      "inputs": [
        {
          "internalType": "address",
          "name": "from",
          "type": "address"
        },
        {
          "internalType": "address",
          "name": "to",
          "type": "address"
        },
        {
          "internalType": "uint256",
          "name": "tokenId",
          "type": "uint256"
        }
      ],
      "name": "transferFrom",
      "outputs": [],
      "stateMutability": "nonpayable",
      "type": "function"
    },
    {
      "inputs": [
        {
          "internalType": "address",
          "name": "newOwner",
          "type": "address"
        }
      ],
      "name": "transferOwnership",
      "outputs": [],
      "stateMutability": "nonpayable",
      "type": "function"
    },
    {
      "inputs": [
        {
          "internalType": "address",
          "name": "",
          "type": "address"
        }
      ],
      "name": "walletMints",
      "outputs": [
        {
          "internalType": "uint256",
          "name": "",
          "type": "uint256"
        }
      ],
      "stateMutability": "view",
      "type": "function"
    },
    {
      "inputs": [
        {
          "internalType": "address",
          "name": "_address",
          "type": "address"
        }
      ],
      "name": "withdraw",
      "outputs": [],
      "stateMutability": "nonpayable",
      "type": "function"
    },
    {
      "inputs": [],
      "name": "withdrawWallet",
      "outputs": [
        {
          "internalType": "address payable",
          "name": "",
          "type": "address"
        }
      ],
      "stateMutability": "view",
      "type": "function"
    }
  ],
  "bytecode": "0x60806040526040516200367a3803806200367a833981810160405281019062000029919062000395565b33848481600090816200003d919062000686565b5080600190816200004f919062000686565b505050600073ffffffffffffffffffffffffffffffffffffffff168173ffffffffffffffffffffffffffffffffffffffff1603620000c75760006040517f1e4fbdf7000000000000000000000000000000000000000000000000000000008152600401620000be9190620007b2565b60405180910390fd5b620000d8816200010160201b60201c565b5081600881905550600060098190555080600a819055506001600b8190555050505050620007cf565b6000600760009054906101000a900473ffffffffffffffffffffffffffffffffffffffff16905081600760006101000a81548173ffffffffffffffffffffffffffffffffffffffff021916908373ffffffffffffffffffffffffffffffffffffffff1602179055508173ffffffffffffffffffffffffffffffffffffffff168173ffffffffffffffffffffffffffffffffffffffff167f8be0079c531659141344cd1fd0a4f28419497f9722a3daafe3b4186f6b6457e060405160405180910390a35050565b6000604051905090565b600080fd5b600080fd5b600080fd5b600080fd5b6000601f19601f8301169050919050565b7f4e487b7100000000000000000000000000000000000000000000000000000000600052604160045260246000fd5b6200023082620001e5565b810181811067ffffffffffffffff82111715620002525762000251620001f6565b5b80604052505050565b600062000267620001c7565b905062000275828262000225565b919050565b600067ffffffffffffffff821115620002985762000297620001f6565b5b620002a382620001e5565b9050602081019050919050565b60005b83811015620002d0578082015181840152602081019050620002b3565b60008484015250505050565b6000620002f3620002ed846200027a565b6200025b565b905082815260208101848484011115620003125762000311620001e0565b5b6200031f848285620002b0565b509392505050565b600082601f8301126200033f576200033e620001db565b5b815162000351848260208601620002dc565b91505092915050565b6000819050919050565b6200036f816200035a565b81146200037b57600080fd5b50565b6000815190506200038f8162000364565b92915050565b60008060008060808587031215620003b257620003b1620001d1565b5b600085015167ffffffffffffffff811115620003d357620003d2620001d6565b5b620003e18782880162000327565b945050602085015167ffffffffffffffff811115620004055762000404620001d6565b5b620004138782880162000327565b935050604062000426878288016200037e565b925050606062000439878288016200037e565b91505092959194509250565b600081519050919050565b7f4e487b7100000000000000000000000000000000000000000000000000000000600052602260045260246000fd5b600060028204905060018216806200049857607f821691505b602082108103620004ae57620004ad62000450565b5b50919050565b60008190508160005260206000209050919050565b60006020601f8301049050919050565b600082821b905092915050565b600060088302620005187fffffffffffffffffffffffffffffffffffffffffffffffffffffffffffffffff82620004d9565b620005248683620004d9565b95508019841693508086168417925050509392505050565b6000819050919050565b600062000567620005616200055b846200035a565b6200053c565b6200035a565b9050919050565b6000819050919050565b620005838362000546565b6200059b62000592826200056e565b848454620004e6565b825550505050565b600090565b620005b2620005a3565b620005bf81848462000578565b505050565b5b81811015620005e757620005db600082620005a8565b600181019050620005c5565b5050565b601f82111562000636576200060081620004b4565b6200060b84620004c9565b810160208510156200061b578190505b620006336200062a85620004c9565b830182620005c4565b50505b505050565b600082821c905092915050565b60006200065b600019846008026200063b565b1980831691505092915050565b600062000676838362000648565b9150826002028217905092915050565b620006918262000445565b67ffffffffffffffff811115620006ad57620006ac620001f6565b5b620006b982546200047f565b620006c6828285620005eb565b600060209050601f831160018114620006fe5760008415620006e9578287015190505b620006f5858262000668565b86555062000765565b601f1984166200070e86620004b4565b60005b82811015620007385784890151825560018201915060208501945060208101905062000711565b8683101562000758578489015162000754601f89168262000648565b8355505b6001600288020188555050505b505050505050565b600073ffffffffffffffffffffffffffffffffffffffff82169050919050565b60006200079a826200076d565b9050919050565b620007ac816200078d565b82525050565b6000602082019050620007c96000830184620007a1565b92915050565b612e9b80620007df6000396000f3fe6080604052600436106101815760003560e01c806370a08231116100d1578063a22cb4651161008a578063d5abeb0111610064578063d5abeb0114610561578063e985e9c51461058c578063f0293fd3146105c9578063f2fde38b1461060657610181565b8063a22cb465146104d2578063b88d4fde146104fb578063c87b56dd1461052457610181565b806370a08231146103e1578063715018a61461041e57806377097fc81461043557806385d178f4146104515780638da5cb5b1461047c57806395d89b41146104a757610181565b80632373ac221161013e578063453c231011610118578063453c23101461032557806351cff8d9146103505780636352211e146103795780636817c76c146103b657610181565b80632373ac22146102aa57806323b872dd146102d357806342842e0e146102fc57610181565b80630116bc2d1461018657806301ffc9a7146101b157806306fdde03146101ee578063081812fc14610219578063095ea7b31461025657806318160ddd1461027f575b600080fd5b34801561019257600080fd5b5061019b61062f565b6040516101a89190612014565b60405180910390f35b3480156101bd57600080fd5b506101d860048036038101906101d3919061209b565b610642565b6040516101e59190612014565b60405180910390f35b3480156101fa57600080fd5b506102036106a3565b6040516102109190612158565b60405180910390f35b34801561022557600080fd5b50610240600480360381019061023b91906121b0565b610735565b60405161024d919061221e565b60405180910390f35b34801561026257600080fd5b5061027d60048036038101906102789190612265565b610751565b005b34801561028b57600080fd5b50610294610767565b6040516102a191906122b4565b60405180910390f35b3480156102b657600080fd5b506102d160048036038101906102cc91906122fb565b61076d565b005b3480156102df57600080fd5b506102fa60048036038101906102f59190612328565b610792565b005b34801561030857600080fd5b50610323600480360381019061031e9190612328565b610894565b005b34801561033157600080fd5b5061033a6108b4565b60405161034791906122b4565b60405180910390f35b34801561035c57600080fd5b506103776004803603810190610372919061237b565b6108ba565b005b34801561038557600080fd5b506103a0600480360381019061039b91906121b0565b610972565b6040516103ad919061221e565b60405180910390f35b3480156103c257600080fd5b506103cb610984565b6040516103d891906122b4565b60405180910390f35b3480156103ed57600080fd5b506104086004803603810190610403919061237b565b61098a565b60405161041591906122b4565b60405180910390f35b34801561042a57600080fd5b50610433610a44565b005b61044f600480360381019061044a919061240d565b610a58565b005b34801561045d57600080fd5b50610466610c2a565b604051610473919061248e565b60405180910390f35b34801561048857600080fd5b50610491610c50565b60405161049e919061221e565b60405180910390f35b3480156104b357600080fd5b506104bc610c7a565b6040516104c99190612158565b60405180910390f35b3480156104de57600080fd5b506104f960048036038101906104f491906124a9565b610d0c565b005b34801561050757600080fd5b50610522600480360381019061051d9190612619565b610d22565b005b34801561053057600080fd5b5061054b600480360381019061054691906121b0565b610d3f565b6040516105589190612158565b60405180910390f35b34801561056d57600080fd5b50610576610e52565b60405161058391906122b4565b60405180910390f35b34801561059857600080fd5b506105b360048036038101906105ae919061269c565b610e58565b6040516105c09190612014565b60405180910390f35b3480156105d557600080fd5b506105f060048036038101906105eb919061237b565b610eec565b6040516105fd91906122b4565b60405180910390f35b34801561061257600080fd5b5061062d6004803603810190610628919061237b565b610f04565b005b600c60009054906101000a900460ff1681565b6000634906490660e01b7bffffffffffffffffffffffffffffffffffffffffffffffffffffffff1916827bffffffffffffffffffffffffffffffffffffffffffffffffffffffff1916148061069c575061069b82610f8a565b5b9050919050565b6060600080546106b29061270b565b80601f01602080910402602001604051908101604052809291908181526020018280546106de9061270b565b801561072b5780601f106107005761010080835404028352916020019161072b565b820191906000526020600020905b81548152906001019060200180831161070e57829003601f168201915b5050505050905090565b60006107408261106c565b5061074a826110f4565b9050919050565b610763828261075e611131565b611139565b5050565b60095481565b61077561114b565b80600c60006101000a81548160ff02191690831515021790555050565b600073ffffffffffffffffffffffffffffffffffffffff168273ffffffffffffffffffffffffffffffffffffffff16036108045760006040517f64a0ae920000000000000000000000000000000000000000000000000000000081526004016107fb919061221e565b60405180910390fd5b60006108188383610813611131565b6111d2565b90508373ffffffffffffffffffffffffffffffffffffffff168173ffffffffffffffffffffffffffffffffffffffff161461088e578382826040517f64283d7b0000000000000000000000000000000000000000000000000000000081526004016108859392919061273c565b60405180910390fd5b50505050565b6108af83838360405180602001604052806000815250610d22565b505050565b600b5481565b6108c261114b565b60008173ffffffffffffffffffffffffffffffffffffffff16476040516108e8906127a4565b60006040518083038185875af1925050503d8060008114610925576040519150601f19603f3d011682016040523d82523d6000602084013e61092a565b606091505b505090508061096e576040517f08c379a000000000000000000000000000000000000000000000000000000000815260040161096590612805565b60405180910390fd5b5050565b600061097d8261106c565b9050919050565b60085481565b60008073ffffffffffffffffffffffffffffffffffffffff168273ffffffffffffffffffffffffffffffffffffffff16036109fd5760006040517f89c62b640000000000000000000000000000000000000000000000000000000081526004016109f4919061221e565b60405180910390fd5b600360008373ffffffffffffffffffffffffffffffffffffffff1673ffffffffffffffffffffffffffffffffffffffff168152602001908152602001600020549050919050565b610a4c61114b565b610a5660006113ec565b565b600c60009054906101000a900460ff16610aa7576040517f08c379a0000000000000000000000000000000000000000000000000000000008152600401610a9e90612871565b60405180910390fd5b6008543414610aeb576040517f08c379a0000000000000000000000000000000000000000000000000000000008152600401610ae2906128dd565b60405180910390fd5b600a546009541115610b32576040517f08c379a0000000000000000000000000000000000000000000000000000000008152600401610b2990612949565b60405180910390fd5b600b54600f60003373ffffffffffffffffffffffffffffffffffffffff1673ffffffffffffffffffffffffffffffffffffffff1681526020019081526020016000205410610bb5576040517f08c379a0000000000000000000000000000000000000000000000000000000008152600401610bac906129b5565b60405180910390fd5b60096000815480929190610bc890612a04565b9190505550610bd733846114b2565b610c258383838080601f016020809104026020016040519081016040528093929190818152602001838380828437600081840152601f19601f820116905080830192505050505050506114d0565b505050565b600e60009054906101000a900473ffffffffffffffffffffffffffffffffffffffff1681565b6000600760009054906101000a900473ffffffffffffffffffffffffffffffffffffffff16905090565b606060018054610c899061270b565b80601f0160208091040260200160405190810160405280929190818152602001828054610cb59061270b565b8015610d025780601f10610cd757610100808354040283529160200191610d02565b820191906000526020600020905b815481529060010190602001808311610ce557829003601f168201915b5050505050905090565b610d1e610d17611131565b838361152c565b5050565b610d2d848484610792565b610d398484848461169b565b50505050565b6060610d4a8261106c565b506000600660008481526020019081526020016000208054610d6b9061270b565b80601f0160208091040260200160405190810160405280929190818152602001828054610d979061270b565b8015610de45780601f10610db957610100808354040283529160200191610de4565b820191906000526020600020905b815481529060010190602001808311610dc757829003601f168201915b505050505090506000610df5611852565b90506000815103610e0a578192505050610e4d565b600082511115610e3f578082604051602001610e27929190612a88565b60405160208183030381529060405292505050610e4d565b610e4884611869565b925050505b919050565b600a5481565b6000600560008473ffffffffffffffffffffffffffffffffffffffff1673ffffffffffffffffffffffffffffffffffffffff16815260200190815260200160002060008373ffffffffffffffffffffffffffffffffffffffff1673ffffffffffffffffffffffffffffffffffffffff16815260200190815260200160002060009054906101000a900460ff16905092915050565b600f6020528060005260406000206000915090505481565b610f0c61114b565b600073ffffffffffffffffffffffffffffffffffffffff168173ffffffffffffffffffffffffffffffffffffffff1603610f7e5760006040517f1e4fbdf7000000000000000000000000000000000000000000000000000000008152600401610f75919061221e565b60405180910390fd5b610f87816113ec565b50565b60007f80ac58cd000000000000000000000000000000000000000000000000000000007bffffffffffffffffffffffffffffffffffffffffffffffffffffffff1916827bffffffffffffffffffffffffffffffffffffffffffffffffffffffff1916148061105557507f5b5e139f000000000000000000000000000000000000000000000000000000007bffffffffffffffffffffffffffffffffffffffffffffffffffffffff1916827bffffffffffffffffffffffffffffffffffffffffffffffffffffffff1916145b806110655750611064826118d2565b5b9050919050565b6000806110788361193c565b9050600073ffffffffffffffffffffffffffffffffffffffff168173ffffffffffffffffffffffffffffffffffffffff16036110eb57826040517f7e2732890000000000000000000000000000000000000000000000000000000081526004016110e291906122b4565b60405180910390fd5b80915050919050565b60006004600083815260200190815260200160002060009054906101000a900473ffffffffffffffffffffffffffffffffffffffff169050919050565b600033905090565b6111468383836001611979565b505050565b611153611131565b73ffffffffffffffffffffffffffffffffffffffff16611171610c50565b73ffffffffffffffffffffffffffffffffffffffff16146111d057611194611131565b6040517f118cdaa70000000000000000000000000000000000000000000000000000000081526004016111c7919061221e565b60405180910390fd5b565b6000806111de8461193c565b9050600073ffffffffffffffffffffffffffffffffffffffff168373ffffffffffffffffffffffffffffffffffffffff16146112205761121f818486611b3e565b5b600073ffffffffffffffffffffffffffffffffffffffff168173ffffffffffffffffffffffffffffffffffffffff16146112b157611262600085600080611979565b6001600360008373ffffffffffffffffffffffffffffffffffffffff1673ffffffffffffffffffffffffffffffffffffffff168152602001908152602001600020600082825403925050819055505b600073ffffffffffffffffffffffffffffffffffffffff168573ffffffffffffffffffffffffffffffffffffffff1614611334576001600360008773ffffffffffffffffffffffffffffffffffffffff1673ffffffffffffffffffffffffffffffffffffffff168152602001908152602001600020600082825401925050819055505b846002600086815260200190815260200160002060006101000a81548173ffffffffffffffffffffffffffffffffffffffff021916908373ffffffffffffffffffffffffffffffffffffffff160217905550838573ffffffffffffffffffffffffffffffffffffffff168273ffffffffffffffffffffffffffffffffffffffff167fddf252ad1be2c89b69c2b068fc378daa952ba7f163c4a11628f55a4df523b3ef60405160405180910390a4809150509392505050565b6000600760009054906101000a900473ffffffffffffffffffffffffffffffffffffffff16905081600760006101000a81548173ffffffffffffffffffffffffffffffffffffffff021916908373ffffffffffffffffffffffffffffffffffffffff1602179055508173ffffffffffffffffffffffffffffffffffffffff168173ffffffffffffffffffffffffffffffffffffffff167f8be0079c531659141344cd1fd0a4f28419497f9722a3daafe3b4186f6b6457e060405160405180910390a35050565b6114cc828260405180602001604052806000815250611c02565b5050565b806006600084815260200190815260200160002090816114f09190612c58565b507ff8e1a15aba9398e019f0b49df1a4fde98ee17ae345cb5f6b5e2c27f5033e8ce78260405161152091906122b4565b60405180910390a15050565b600073ffffffffffffffffffffffffffffffffffffffff168273ffffffffffffffffffffffffffffffffffffffff160361159d57816040517f5b08ba18000000000000000000000000000000000000000000000000000000008152600401611594919061221e565b60405180910390fd5b80600560008573ffffffffffffffffffffffffffffffffffffffff1673ffffffffffffffffffffffffffffffffffffffff16815260200190815260200160002060008473ffffffffffffffffffffffffffffffffffffffff1673ffffffffffffffffffffffffffffffffffffffff16815260200190815260200160002060006101000a81548160ff0219169083151502179055508173ffffffffffffffffffffffffffffffffffffffff168373ffffffffffffffffffffffffffffffffffffffff167f17307eab39ab6107e8899845ad3d59bd9653f200f220920489ca2b5937696c318360405161168e9190612014565b60405180910390a3505050565b60008373ffffffffffffffffffffffffffffffffffffffff163b111561184c578273ffffffffffffffffffffffffffffffffffffffff1663150b7a026116df611131565b8685856040518563ffffffff1660e01b81526004016117019493929190612d7f565b6020604051808303816000875af192505050801561173d57506040513d601f19601f8201168201806040525081019061173a9190612de0565b60015b6117c1573d806000811461176d576040519150601f19603f3d011682016040523d82523d6000602084013e611772565b606091505b5060008151036117b957836040517f64a0ae920000000000000000000000000000000000000000000000000000000081526004016117b0919061221e565b60405180910390fd5b805181602001fd5b63150b7a0260e01b7bffffffffffffffffffffffffffffffffffffffffffffffffffffffff1916817bffffffffffffffffffffffffffffffffffffffffffffffffffffffff19161461184a57836040517f64a0ae92000000000000000000000000000000000000000000000000000000008152600401611841919061221e565b60405180910390fd5b505b50505050565b606060405180602001604052806000815250905090565b60606118748261106c565b50600061187f611852565b9050600081511161189f57604051806020016040528060008152506118ca565b806118a984611c1e565b6040516020016118ba929190612a88565b6040516020818303038152906040525b915050919050565b60007f01ffc9a7000000000000000000000000000000000000000000000000000000007bffffffffffffffffffffffffffffffffffffffffffffffffffffffff1916827bffffffffffffffffffffffffffffffffffffffffffffffffffffffff1916149050919050565b60006002600083815260200190815260200160002060009054906101000a900473ffffffffffffffffffffffffffffffffffffffff169050919050565b80806119b25750600073ffffffffffffffffffffffffffffffffffffffff168273ffffffffffffffffffffffffffffffffffffffff1614155b15611ae65760006119c28461106c565b9050600073ffffffffffffffffffffffffffffffffffffffff168373ffffffffffffffffffffffffffffffffffffffff1614158015611a2d57508273ffffffffffffffffffffffffffffffffffffffff168173ffffffffffffffffffffffffffffffffffffffff1614155b8015611a405750611a3e8184610e58565b155b15611a8257826040517fa9fbf51f000000000000000000000000000000000000000000000000000000008152600401611a79919061221e565b60405180910390fd5b8115611ae457838573ffffffffffffffffffffffffffffffffffffffff168273ffffffffffffffffffffffffffffffffffffffff167f8c5be1e5ebec7d5bd14f71427d1e84f3dd0314c0f7b2291e5b200ac8c7c3b92560405160405180910390a45b505b836004600085815260200190815260200160002060006101000a81548173ffffffffffffffffffffffffffffffffffffffff021916908373ffffffffffffffffffffffffffffffffffffffff16021790555050505050565b611b49838383611cec565b611bfd57600073ffffffffffffffffffffffffffffffffffffffff168373ffffffffffffffffffffffffffffffffffffffff1603611bbe57806040517f7e273289000000000000000000000000000000000000000000000000000000008152600401611bb591906122b4565b60405180910390fd5b81816040517f177e802f000000000000000000000000000000000000000000000000000000008152600401611bf4929190612e0d565b60405180910390fd5b505050565b611c0c8383611dad565b611c19600084848461169b565b505050565b606060006001611c2d84611ea6565b01905060008167ffffffffffffffff811115611c4c57611c4b6124ee565b5b6040519080825280601f01601f191660200182016040528015611c7e5781602001600182028036833780820191505090505b509050600082602001820190505b600115611ce1578080600190039150507f3031323334353637383961626364656600000000000000000000000000000000600a86061a8153600a8581611cd557611cd4612e36565b5b04945060008503611c8c575b819350505050919050565b60008073ffffffffffffffffffffffffffffffffffffffff168373ffffffffffffffffffffffffffffffffffffffff1614158015611da457508273ffffffffffffffffffffffffffffffffffffffff168473ffffffffffffffffffffffffffffffffffffffff161480611d655750611d648484610e58565b5b80611da357508273ffffffffffffffffffffffffffffffffffffffff16611d8b836110f4565b73ffffffffffffffffffffffffffffffffffffffff16145b5b90509392505050565b600073ffffffffffffffffffffffffffffffffffffffff168273ffffffffffffffffffffffffffffffffffffffff1603611e1f5760006040517f64a0ae92000000000000000000000000000000000000000000000000000000008152600401611e16919061221e565b60405180910390fd5b6000611e2d838360006111d2565b9050600073ffffffffffffffffffffffffffffffffffffffff168173ffffffffffffffffffffffffffffffffffffffff1614611ea15760006040517f73c6ac6e000000000000000000000000000000000000000000000000000000008152600401611e98919061221e565b60405180910390fd5b505050565b600080600090507a184f03e93ff9f4daa797ed6e38ed64bf6a1f0100000000000000008310611f04577a184f03e93ff9f4daa797ed6e38ed64bf6a1f0100000000000000008381611efa57611ef9612e36565b5b0492506040810190505b6d04ee2d6d415b85acef81000000008310611f41576d04ee2d6d415b85acef81000000008381611f3757611f36612e36565b5b0492506020810190505b662386f26fc100008310611f7057662386f26fc100008381611f6657611f65612e36565b5b0492506010810190505b6305f5e1008310611f99576305f5e1008381611f8f57611f8e612e36565b5b0492506008810190505b6127108310611fbe576127108381611fb457611fb3612e36565b5b0492506004810190505b60648310611fe15760648381611fd757611fd6612e36565b5b0492506002810190505b600a8310611ff0576001810190505b80915050919050565b60008115159050919050565b61200e81611ff9565b82525050565b60006020820190506120296000830184612005565b92915050565b6000604051905090565b600080fd5b600080fd5b60007fffffffff0000000000000000000000000000000000000000000000000000000082169050919050565b61207881612043565b811461208357600080fd5b50565b6000813590506120958161206f565b92915050565b6000602082840312156120b1576120b0612039565b5b60006120bf84828501612086565b91505092915050565b600081519050919050565b600082825260208201905092915050565b60005b838110156121025780820151818401526020810190506120e7565b60008484015250505050565b6000601f19601f8301169050919050565b600061212a826120c8565b61213481856120d3565b93506121448185602086016120e4565b61214d8161210e565b840191505092915050565b60006020820190508181036000830152612172818461211f565b905092915050565b6000819050919050565b61218d8161217a565b811461219857600080fd5b50565b6000813590506121aa81612184565b92915050565b6000602082840312156121c6576121c5612039565b5b60006121d48482850161219b565b91505092915050565b600073ffffffffffffffffffffffffffffffffffffffff82169050919050565b6000612208826121dd565b9050919050565b612218816121fd565b82525050565b6000602082019050612233600083018461220f565b92915050565b612242816121fd565b811461224d57600080fd5b50565b60008135905061225f81612239565b92915050565b6000806040838503121561227c5761227b612039565b5b600061228a85828601612250565b925050602061229b8582860161219b565b9150509250929050565b6122ae8161217a565b82525050565b60006020820190506122c960008301846122a5565b92915050565b6122d881611ff9565b81146122e357600080fd5b50565b6000813590506122f5816122cf565b92915050565b60006020828403121561231157612310612039565b5b600061231f848285016122e6565b91505092915050565b60008060006060848603121561234157612340612039565b5b600061234f86828701612250565b935050602061236086828701612250565b92505060406123718682870161219b565b9150509250925092565b60006020828403121561239157612390612039565b5b600061239f84828501612250565b91505092915050565b600080fd5b600080fd5b600080fd5b60008083601f8401126123cd576123cc6123a8565b5b8235905067ffffffffffffffff8111156123ea576123e96123ad565b5b602083019150836001820283011115612406576124056123b2565b5b9250929050565b60008060006040848603121561242657612425612039565b5b60006124348682870161219b565b935050602084013567ffffffffffffffff8111156124555761245461203e565b5b612461868287016123b7565b92509250509250925092565b6000612478826121dd565b9050919050565b6124888161246d565b82525050565b60006020820190506124a3600083018461247f565b92915050565b600080604083850312156124c0576124bf612039565b5b60006124ce85828601612250565b92505060206124df858286016122e6565b9150509250929050565b600080fd5b7f4e487b7100000000000000000000000000000000000000000000000000000000600052604160045260246000fd5b6125268261210e565b810181811067ffffffffffffffff82111715612545576125446124ee565b5b80604052505050565b600061255861202f565b9050612564828261251d565b919050565b600067ffffffffffffffff821115612584576125836124ee565b5b61258d8261210e565b9050602081019050919050565b82818337600083830152505050565b60006125bc6125b784612569565b61254e565b9050828152602081018484840111156125d8576125d76124e9565b5b6125e384828561259a565b509392505050565b600082601f830112612600576125ff6123a8565b5b81356126108482602086016125a9565b91505092915050565b6000806000806080858703121561263357612632612039565b5b600061264187828801612250565b945050602061265287828801612250565b93505060406126638782880161219b565b925050606085013567ffffffffffffffff8111156126845761268361203e565b5b612690878288016125eb565b91505092959194509250565b600080604083850312156126b3576126b2612039565b5b60006126c185828601612250565b92505060206126d285828601612250565b9150509250929050565b7f4e487b7100000000000000000000000000000000000000000000000000000000600052602260045260246000fd5b6000600282049050600182168061272357607f821691505b602082108103612736576127356126dc565b5b50919050565b6000606082019050612751600083018661220f565b61275e60208301856122a5565b61276b604083018461220f565b949350505050565b600081905092915050565b50565b600061278e600083612773565b91506127998261277e565b600082019050919050565b60006127af82612781565b9150819050919050565b7f5769746864726177206661696c65640000000000000000000000000000000000600082015250565b60006127ef600f836120d3565b91506127fa826127b9565b602082019050919050565b6000602082019050818103600083015261281e816127e2565b9050919050565b7f5075626c6963206d696e74696e67206e6f7420656e61626c6564000000000000600082015250565b600061285b601a836120d3565b915061286682612825565b602082019050919050565b6000602082019050818103600083015261288a8161284e565b9050919050565b7f57726f6e67206d696e742076616c756500000000000000000000000000000000600082015250565b60006128c76010836120d3565b91506128d282612891565b602082019050919050565b600060208201905081810360008301526128f6816128ba565b9050919050565b7f536f6c64206f7574000000000000000000000000000000000000000000000000600082015250565b60006129336008836120d3565b915061293e826128fd565b602082019050919050565b6000602082019050818103600083015261296281612926565b9050919050565b7f457863656564206d6178207175616e7469747900000000000000000000000000600082015250565b600061299f6013836120d3565b91506129aa82612969565b602082019050919050565b600060208201905081810360008301526129ce81612992565b9050919050565b7f4e487b7100000000000000000000000000000000000000000000000000000000600052601160045260246000fd5b6000612a0f8261217a565b91507fffffffffffffffffffffffffffffffffffffffffffffffffffffffffffffffff8203612a4157612a406129d5565b5b600182019050919050565b600081905092915050565b6000612a62826120c8565b612a6c8185612a4c565b9350612a7c8185602086016120e4565b80840191505092915050565b6000612a948285612a57565b9150612aa08284612a57565b91508190509392505050565b60008190508160005260206000209050919050565b60006020601f8301049050919050565b600082821b905092915050565b600060088302612b0e7fffffffffffffffffffffffffffffffffffffffffffffffffffffffffffffffff82612ad1565b612b188683612ad1565b95508019841693508086168417925050509392505050565b6000819050919050565b6000612b55612b50612b4b8461217a565b612b30565b61217a565b9050919050565b6000819050919050565b612b6f83612b3a565b612b83612b7b82612b5c565b848454612ade565b825550505050565b600090565b612b98612b8b565b612ba3818484612b66565b505050565b5b81811015612bc757612bbc600082612b90565b600181019050612ba9565b5050565b601f821115612c0c57612bdd81612aac565b612be684612ac1565b81016020851015612bf5578190505b612c09612c0185612ac1565b830182612ba8565b50505b505050565b600082821c905092915050565b6000612c2f60001984600802612c11565b1980831691505092915050565b6000612c488383612c1e565b9150826002028217905092915050565b612c61826120c8565b67ffffffffffffffff811115612c7a57612c796124ee565b5b612c84825461270b565b612c8f828285612bcb565b600060209050601f831160018114612cc25760008415612cb0578287015190505b612cba8582612c3c565b865550612d22565b601f198416612cd086612aac565b60005b82811015612cf857848901518255600182019150602085019450602081019050612cd3565b86831015612d155784890151612d11601f891682612c1e565b8355505b6001600288020188555050505b505050505050565b600081519050919050565b600082825260208201905092915050565b6000612d5182612d2a565b612d5b8185612d35565b9350612d6b8185602086016120e4565b612d748161210e565b840191505092915050565b6000608082019050612d94600083018761220f565b612da1602083018661220f565b612dae60408301856122a5565b8181036060830152612dc08184612d46565b905095945050505050565b600081519050612dda8161206f565b92915050565b600060208284031215612df657612df5612039565b5b6000612e0484828501612dcb565b91505092915050565b6000604082019050612e22600083018561220f565b612e2f60208301846122a5565b9392505050565b7f4e487b7100000000000000000000000000000000000000000000000000000000600052601260045260246000fdfea26469706673582212207fc68e00c671273328cf3839312e196370d86669e0362ca21397f2624a2c18a264736f6c63430008180033",
  "linkReferences": {},
  "deployedLinkReferences": {}
}