{
  "_format": "hh-sol-artifact-1",
  "contractName": "NFT",
  "sourceName": "contracts/NFT.sol",
  "abi": [
    {
      "inputs": [
        {
          "internalType": "string",
          "name": "_name",
          "type": "string"
        },
        {
          "internalType": "string",
          "name": "_symbol",
          "type": "string"
        },
        {
          "internalType": "uint256",
          "name": "_mintPrice",
          "type": "uint256"
        }
      ],
      "stateMutability": "payable",
      "type": "constructor"
    },
    {
      "inputs": [
        {
          "internalType": "address",
          "name": "sender",
          "type": "address"
        },
        {
          "internalType": "uint256",
          "name": "tokenId",
          "type": "uint256"
        },
        {
          "internalType": "address",
          "name": "owner",
          "type": "address"
        }
      ],
      "name": "ERC721IncorrectOwner",
      "type": "error"
    },
    {
      "inputs": [
        {
          "internalType": "address",
          "name": "operator",
          "type": "address"
        },
        {
          "internalType": "uint256",
          "name": "tokenId",
          "type": "uint256"
        }
      ],
      "name": "ERC721InsufficientApproval",
      "type": "error"
    },
    {
      "inputs": [
        {
          "internalType": "address",
          "name": "approver",
          "type": "address"
        }
      ],
      "name": "ERC721InvalidApprover",
      "type": "error"
    },
    {
      "inputs": [
        {
          "internalType": "address",
          "name": "operator",
          "type": "address"
        }
      ],
      "name": "ERC721InvalidOperator",
      "type": "error"
    },
    {
      "inputs": [
        {
          "internalType": "address",
          "name": "owner",
          "type": "address"
        }
      ],
      "name": "ERC721InvalidOwner",
      "type": "error"
    },
    {
      "inputs": [
        {
          "internalType": "address",
          "name": "receiver",
          "type": "address"
        }
      ],
      "name": "ERC721InvalidReceiver",
      "type": "error"
    },
    {
      "inputs": [
        {
          "internalType": "address",
          "name": "sender",
          "type": "address"
        }
      ],
      "name": "ERC721InvalidSender",
      "type": "error"
    },
    {
      "inputs": [
        {
          "internalType": "uint256",
          "name": "tokenId",
          "type": "uint256"
        }
      ],
      "name": "ERC721NonexistentToken",
      "type": "error"
    },
    {
      "inputs": [
        {
          "internalType": "address",
          "name": "owner",
          "type": "address"
        }
      ],
      "name": "OwnableInvalidOwner",
      "type": "error"
    },
    {
      "inputs": [
        {
          "internalType": "address",
          "name": "account",
          "type": "address"
        }
      ],
      "name": "OwnableUnauthorizedAccount",
      "type": "error"
    },
    {
      "anonymous": false,
      "inputs": [
        {
          "indexed": true,
          "internalType": "address",
          "name": "owner",
          "type": "address"
        },
        {
          "indexed": true,
          "internalType": "address",
          "name": "approved",
          "type": "address"
        },
        {
          "indexed": true,
          "internalType": "uint256",
          "name": "tokenId",
          "type": "uint256"
        }
      ],
      "name": "Approval",
      "type": "event"
    },
    {
      "anonymous": false,
      "inputs": [
        {
          "indexed": true,
          "internalType": "address",
          "name": "owner",
          "type": "address"
        },
        {
          "indexed": true,
          "internalType": "address",
          "name": "operator",
          "type": "address"
        },
        {
          "indexed": false,
          "internalType": "bool",
          "name": "approved",
          "type": "bool"
        }
      ],
      "name": "ApprovalForAll",
      "type": "event"
    },
    {
      "anonymous": false,
      "inputs": [
        {
          "indexed": false,
          "internalType": "uint256",
          "name": "_fromTokenId",
          "type": "uint256"
        },
        {
          "indexed": false,
          "internalType": "uint256",
          "name": "_toTokenId",
          "type": "uint256"
        }
      ],
      "name": "BatchMetadataUpdate",
      "type": "event"
    },
    {
      "anonymous": false,
      "inputs": [
        {
          "indexed": false,
          "internalType": "uint256",
          "name": "_tokenId",
          "type": "uint256"
        }
      ],
      "name": "MetadataUpdate",
      "type": "event"
    },
    {
      "anonymous": false,
      "inputs": [
        {
          "indexed": true,
          "internalType": "address",
          "name": "previousOwner",
          "type": "address"
        },
        {
          "indexed": true,
          "internalType": "address",
          "name": "newOwner",
          "type": "address"
        }
      ],
      "name": "OwnershipTransferred",
      "type": "event"
    },
    {
      "anonymous": false,
      "inputs": [
        {
          "indexed": true,
          "internalType": "address",
          "name": "from",
          "type": "address"
        },
        {
          "indexed": true,
          "internalType": "address",
          "name": "to",
          "type": "address"
        },
        {
          "indexed": true,
          "internalType": "uint256",
          "name": "tokenId",
          "type": "uint256"
        }
      ],
      "name": "Transfer",
      "type": "event"
    },
    {
      "inputs": [
        {
          "internalType": "address",
          "name": "to",
          "type": "address"
        },
        {
          "internalType": "uint256",
          "name": "tokenId",
          "type": "uint256"
        }
      ],
      "name": "approve",
      "outputs": [],
      "stateMutability": "nonpayable",
      "type": "function"
    },
    {
      "inputs": [
        {
          "internalType": "address",
          "name": "owner",
          "type": "address"
        }
      ],
      "name": "balanceOf",
      "outputs": [
        {
          "internalType": "uint256",
          "name": "",
          "type": "uint256"
        }
      ],
      "stateMutability": "view",
      "type": "function"
    },
    {
      "inputs": [
        {
          "internalType": "uint256",
          "name": "tokenId",
          "type": "uint256"
        }
      ],
      "name": "getApproved",
      "outputs": [
        {
          "internalType": "address",
          "name": "",
          "type": "address"
        }
      ],
      "stateMutability": "view",
      "type": "function"
    },
    {
      "inputs": [
        {
          "internalType": "address",
          "name": "owner",
          "type": "address"
        },
        {
          "internalType": "address",
          "name": "operator",
          "type": "address"
        }
      ],
      "name": "isApprovedForAll",
      "outputs": [
        {
          "internalType": "bool",
          "name": "",
          "type": "bool"
        }
      ],
      "stateMutability": "view",
      "type": "function"
    },
    {
      "inputs": [],
      "name": "isPublicMintEnabled",
      "outputs": [
        {
          "internalType": "bool",
          "name": "",
          "type": "bool"
        }
      ],
      "stateMutability": "view",
      "type": "function"
    },
    {
      "inputs": [
        {
          "internalType": "string",
          "name": "_uri",
          "type": "string"
        }
      ],
      "name": "mint",
      "outputs": [],
      "stateMutability": "payable",
      "type": "function"
    },
    {
      "inputs": [],
      "name": "mintPrice",
      "outputs": [
        {
          "internalType": "uint256",
          "name": "",
          "type": "uint256"
        }
      ],
      "stateMutability": "view",
      "type": "function"
    },
    {
      "inputs": [],
      "name": "name",
      "outputs": [
        {
          "internalType": "string",
          "name": "",
          "type": "string"
        }
      ],
      "stateMutability": "view",
      "type": "function"
    },
    {
      "inputs": [],
      "name": "owner",
      "outputs": [
        {
          "internalType": "address",
          "name": "",
          "type": "address"
        }
      ],
      "stateMutability": "view",
      "type": "function"
    },
    {
      "inputs": [
        {
          "internalType": "uint256",
          "name": "tokenId",
          "type": "uint256"
        }
      ],
      "name": "ownerOf",
      "outputs": [
        {
          "internalType": "address",
          "name": "",
          "type": "address"
        }
      ],
      "stateMutability": "view",
      "type": "function"
    },
    {
      "inputs": [],
      "name": "renounceOwnership",
      "outputs": [],
      "stateMutability": "nonpayable",
      "type": "function"
    },
    {
      "inputs": [
        {
          "internalType": "address",
          "name": "from",
          "type": "address"
        },
        {
          "internalType": "address",
          "name": "to",
          "type": "address"
        },
        {
          "internalType": "uint256",
          "name": "tokenId",
          "type": "uint256"
        }
      ],
      "name": "safeTransferFrom",
      "outputs": [],
      "stateMutability": "nonpayable",
      "type": "function"
    },
    {
      "inputs": [
        {
          "internalType": "address",
          "name": "from",
          "type": "address"
        },
        {
          "internalType": "address",
          "name": "to",
          "type": "address"
        },
        {
          "internalType": "uint256",
          "name": "tokenId",
          "type": "uint256"
        },
        {
          "internalType": "bytes",
          "name": "data",
          "type": "bytes"
        }
      ],
      "name": "safeTransferFrom",
      "outputs": [],
      "stateMutability": "nonpayable",
      "type": "function"
    },
    {
      "inputs": [
        {
          "internalType": "address",
          "name": "operator",
          "type": "address"
        },
        {
          "internalType": "bool",
          "name": "approved",
          "type": "bool"
        }
      ],
      "name": "setApprovalForAll",
      "outputs": [],
      "stateMutability": "nonpayable",
      "type": "function"
    },
    {
      "inputs": [
        {
          "internalType": "bool",
          "name": "_isPublicMintEnabled",
          "type": "bool"
        }
      ],
      "name": "setIsPublicMintEnabled",
      "outputs": [],
      "stateMutability": "nonpayable",
      "type": "function"
    },
    {
      "inputs": [
        {
          "internalType": "bytes4",
          "name": "interfaceId",
          "type": "bytes4"
        }
      ],
      "name": "supportsInterface",
      "outputs": [
        {
          "internalType": "bool",
          "name": "",
          "type": "bool"
        }
      ],
      "stateMutability": "view",
      "type": "function"
    },
    {
      "inputs": [],
      "name": "symbol",
      "outputs": [
        {
          "internalType": "string",
          "name": "",
          "type": "string"
        }
      ],
      "stateMutability": "view",
      "type": "function"
    },
    {
      "inputs": [
        {
          "internalType": "uint256",
          "name": "tokenId",
          "type": "uint256"
        }
      ],
      "name": "tokenURI",
      "outputs": [
        {
          "internalType": "string",
          "name": "",
          "type": "string"
        }
      ],
      "stateMutability": "view",
      "type": "function"
    },
    {
      "inputs": [],
      "name": "totalSupply",
      "outputs": [
        {
          "internalType": "uint256",
          "name": "",
          "type": "uint256"
        }
      ],
      "stateMutability": "view",
      "type": "function"
    },
    {
      "inputs": [
        {
          "internalType": "address",
          "name": "from",
          "type": "address"
        },
        {
          "internalType": "address",
          "name": "to",
          "type": "address"
        },
        {
          "internalType": "uint256",
          "name": "tokenId",
          "type": "uint256"
        }
      ],
      "name": "transferFrom",
      "outputs": [],
      "stateMutability": "nonpayable",
      "type": "function"
    },
    {
      "inputs": [
        {
          "internalType": "address",
          "name": "newOwner",
          "type": "address"
        }
      ],
      "name": "transferOwnership",
      "outputs": [],
      "stateMutability": "nonpayable",
      "type": "function"
    },
    {
      "inputs": [
        {
          "internalType": "address",
          "name": "",
          "type": "address"
        }
      ],
      "name": "walletMints",
      "outputs": [
        {
          "internalType": "uint256",
          "name": "",
          "type": "uint256"
        }
      ],
      "stateMutability": "view",
      "type": "function"
    },
    {
      "inputs": [
        {
          "internalType": "address",
          "name": "_address",
          "type": "address"
        }
      ],
      "name": "withdraw",
      "outputs": [],
      "stateMutability": "nonpayable",
      "type": "function"
    }
  ],
  "bytecode": "0x6080604052604051620033cb380380620033cb833981810160405281019062000029919062000385565b33838381600090816200003d919062000660565b5080600190816200004f919062000660565b505050600073ffffffffffffffffffffffffffffffffffffffff168173ffffffffffffffffffffffffffffffffffffffff1603620000c75760006040517f1e4fbdf7000000000000000000000000000000000000000000000000000000008152600401620000be91906200078c565b60405180910390fd5b620000d881620000f160201b60201c565b50806008819055506000600981905550505050620007a9565b6000600760009054906101000a900473ffffffffffffffffffffffffffffffffffffffff16905081600760006101000a81548173ffffffffffffffffffffffffffffffffffffffff021916908373ffffffffffffffffffffffffffffffffffffffff1602179055508173ffffffffffffffffffffffffffffffffffffffff168173ffffffffffffffffffffffffffffffffffffffff167f8be0079c531659141344cd1fd0a4f28419497f9722a3daafe3b4186f6b6457e060405160405180910390a35050565b6000604051905090565b600080fd5b600080fd5b600080fd5b600080fd5b6000601f19601f8301169050919050565b7f4e487b7100000000000000000000000000000000000000000000000000000000600052604160045260246000fd5b6200022082620001d5565b810181811067ffffffffffffffff82111715620002425762000241620001e6565b5b80604052505050565b600062000257620001b7565b905062000265828262000215565b919050565b600067ffffffffffffffff821115620002885762000287620001e6565b5b6200029382620001d5565b9050602081019050919050565b60005b83811015620002c0578082015181840152602081019050620002a3565b60008484015250505050565b6000620002e3620002dd846200026a565b6200024b565b905082815260208101848484011115620003025762000301620001d0565b5b6200030f848285620002a0565b509392505050565b600082601f8301126200032f576200032e620001cb565b5b815162000341848260208601620002cc565b91505092915050565b6000819050919050565b6200035f816200034a565b81146200036b57600080fd5b50565b6000815190506200037f8162000354565b92915050565b600080600060608486031215620003a157620003a0620001c1565b5b600084015167ffffffffffffffff811115620003c257620003c1620001c6565b5b620003d08682870162000317565b935050602084015167ffffffffffffffff811115620003f457620003f3620001c6565b5b620004028682870162000317565b925050604062000415868287016200036e565b9150509250925092565b600081519050919050565b7f4e487b7100000000000000000000000000000000000000000000000000000000600052602260045260246000fd5b600060028204905060018216806200047257607f821691505b6020821081036200048857620004876200042a565b5b50919050565b60008190508160005260206000209050919050565b60006020601f8301049050919050565b600082821b905092915050565b600060088302620004f27fffffffffffffffffffffffffffffffffffffffffffffffffffffffffffffffff82620004b3565b620004fe8683620004b3565b95508019841693508086168417925050509392505050565b6000819050919050565b6000620005416200053b62000535846200034a565b62000516565b6200034a565b9050919050565b6000819050919050565b6200055d8362000520565b620005756200056c8262000548565b848454620004c0565b825550505050565b600090565b6200058c6200057d565b6200059981848462000552565b505050565b5b81811015620005c157620005b560008262000582565b6001810190506200059f565b5050565b601f8211156200061057620005da816200048e565b620005e584620004a3565b81016020851015620005f5578190505b6200060d6200060485620004a3565b8301826200059e565b50505b505050565b600082821c905092915050565b6000620006356000198460080262000615565b1980831691505092915050565b600062000650838362000622565b9150826002028217905092915050565b6200066b826200041f565b67ffffffffffffffff811115620006875762000686620001e6565b5b62000693825462000459565b620006a0828285620005c5565b600060209050601f831160018114620006d85760008415620006c3578287015190505b620006cf858262000642565b8655506200073f565b601f198416620006e8866200048e565b60005b828110156200071257848901518255600182019150602085019450602081019050620006eb565b868310156200073257848901516200072e601f89168262000622565b8355505b6001600288020188555050505b505050505050565b600073ffffffffffffffffffffffffffffffffffffffff82169050919050565b6000620007748262000747565b9050919050565b620007868162000767565b82525050565b6000602082019050620007a360008301846200077b565b92915050565b612c1280620007b96000396000f3fe6080604052600436106101405760003560e01c80636817c76c116100b6578063b88d4fde1161006f578063b88d4fde14610448578063c87b56dd14610471578063d85d3d27146104ae578063e985e9c5146104ca578063f0293fd314610507578063f2fde38b1461054457610140565b80636817c76c1461034a57806370a0823114610375578063715018a6146103b25780638da5cb5b146103c957806395d89b41146103f4578063a22cb4651461041f57610140565b806318160ddd1161010857806318160ddd1461023e5780632373ac221461026957806323b872dd1461029257806342842e0e146102bb57806351cff8d9146102e45780636352211e1461030d57610140565b80630116bc2d1461014557806301ffc9a71461017057806306fdde03146101ad578063081812fc146101d8578063095ea7b314610215575b600080fd5b34801561015157600080fd5b5061015a61056d565b6040516101679190611eb2565b60405180910390f35b34801561017c57600080fd5b5061019760048036038101906101929190611f39565b610580565b6040516101a49190611eb2565b60405180910390f35b3480156101b957600080fd5b506101c26105e1565b6040516101cf9190611ff6565b60405180910390f35b3480156101e457600080fd5b506101ff60048036038101906101fa919061204e565b610673565b60405161020c91906120bc565b60405180910390f35b34801561022157600080fd5b5061023c60048036038101906102379190612103565b61068f565b005b34801561024a57600080fd5b506102536106a5565b6040516102609190612152565b60405180910390f35b34801561027557600080fd5b50610290600480360381019061028b9190612199565b6106ab565b005b34801561029e57600080fd5b506102b960048036038101906102b491906121c6565b6106d0565b005b3480156102c757600080fd5b506102e260048036038101906102dd91906121c6565b6107d2565b005b3480156102f057600080fd5b5061030b60048036038101906103069190612219565b6107f2565b005b34801561031957600080fd5b50610334600480360381019061032f919061204e565b6108aa565b60405161034191906120bc565b60405180910390f35b34801561035657600080fd5b5061035f6108bc565b60405161036c9190612152565b60405180910390f35b34801561038157600080fd5b5061039c60048036038101906103979190612219565b6108c2565b6040516103a99190612152565b60405180910390f35b3480156103be57600080fd5b506103c761097c565b005b3480156103d557600080fd5b506103de610990565b6040516103eb91906120bc565b60405180910390f35b34801561040057600080fd5b506104096109ba565b6040516104169190611ff6565b60405180910390f35b34801561042b57600080fd5b5061044660048036038101906104419190612246565b610a4c565b005b34801561045457600080fd5b5061046f600480360381019061046a91906123bb565b610a62565b005b34801561047d57600080fd5b506104986004803603810190610493919061204e565b610a7f565b6040516104a59190611ff6565b60405180910390f35b6104c860048036038101906104c3919061249e565b610b92565b005b3480156104d657600080fd5b506104f160048036038101906104ec91906124eb565b610cf6565b6040516104fe9190611eb2565b60405180910390f35b34801561051357600080fd5b5061052e60048036038101906105299190612219565b610d8a565b60405161053b9190612152565b60405180910390f35b34801561055057600080fd5b5061056b60048036038101906105669190612219565b610da2565b005b600a60009054906101000a900460ff1681565b6000634906490660e01b7bffffffffffffffffffffffffffffffffffffffffffffffffffffffff1916827bffffffffffffffffffffffffffffffffffffffffffffffffffffffff191614806105da57506105d982610e28565b5b9050919050565b6060600080546105f09061255a565b80601f016020809104026020016040519081016040528092919081815260200182805461061c9061255a565b80156106695780601f1061063e57610100808354040283529160200191610669565b820191906000526020600020905b81548152906001019060200180831161064c57829003601f168201915b5050505050905090565b600061067e82610f0a565b5061068882610f92565b9050919050565b6106a1828261069c610fcf565b610fd7565b5050565b60095481565b6106b3610fe9565b80600a60006101000a81548160ff02191690831515021790555050565b600073ffffffffffffffffffffffffffffffffffffffff168273ffffffffffffffffffffffffffffffffffffffff16036107425760006040517f64a0ae9200000000000000000000000000000000000000000000000000000000815260040161073991906120bc565b60405180910390fd5b60006107568383610751610fcf565b611070565b90508373ffffffffffffffffffffffffffffffffffffffff168173ffffffffffffffffffffffffffffffffffffffff16146107cc578382826040517f64283d7b0000000000000000000000000000000000000000000000000000000081526004016107c39392919061258b565b60405180910390fd5b50505050565b6107ed83838360405180602001604052806000815250610a62565b505050565b6107fa610fe9565b60008173ffffffffffffffffffffffffffffffffffffffff1647604051610820906125f3565b60006040518083038185875af1925050503d806000811461085d576040519150601f19603f3d011682016040523d82523d6000602084013e610862565b606091505b50509050806108a6576040517f08c379a000000000000000000000000000000000000000000000000000000000815260040161089d90612654565b60405180910390fd5b5050565b60006108b582610f0a565b9050919050565b60085481565b60008073ffffffffffffffffffffffffffffffffffffffff168273ffffffffffffffffffffffffffffffffffffffff16036109355760006040517f89c62b6400000000000000000000000000000000000000000000000000000000815260040161092c91906120bc565b60405180910390fd5b600360008373ffffffffffffffffffffffffffffffffffffffff1673ffffffffffffffffffffffffffffffffffffffff168152602001908152602001600020549050919050565b610984610fe9565b61098e600061128a565b565b6000600760009054906101000a900473ffffffffffffffffffffffffffffffffffffffff16905090565b6060600180546109c99061255a565b80601f01602080910402602001604051908101604052809291908181526020018280546109f59061255a565b8015610a425780601f10610a1757610100808354040283529160200191610a42565b820191906000526020600020905b815481529060010190602001808311610a2557829003601f168201915b5050505050905090565b610a5e610a57610fcf565b8383611350565b5050565b610a6d8484846106d0565b610a79848484846114bf565b50505050565b6060610a8a82610f0a565b506000600660008481526020019081526020016000208054610aab9061255a565b80601f0160208091040260200160405190810160405280929190818152602001828054610ad79061255a565b8015610b245780601f10610af957610100808354040283529160200191610b24565b820191906000526020600020905b815481529060010190602001808311610b0757829003601f168201915b505050505090506000610b35611676565b90506000815103610b4a578192505050610b8d565b600082511115610b7f578082604051602001610b679291906126b0565b60405160208183030381529060405292505050610b8d565b610b888461168d565b925050505b919050565b600a60009054906101000a900460ff16610be1576040517f08c379a0000000000000000000000000000000000000000000000000000000008152600401610bd890612720565b60405180910390fd5b6008543414610c25576040517f08c379a0000000000000000000000000000000000000000000000000000000008152600401610c1c9061278c565b60405180910390fd5b6000600954905060096000815480929190610c3f906127db565b9190505550600b60003373ffffffffffffffffffffffffffffffffffffffff1673ffffffffffffffffffffffffffffffffffffffff1681526020019081526020016000206000815480929190610c94906127db565b9190505550610ca333826116f6565b610cf18184848080601f016020809104026020016040519081016040528093929190818152602001838380828437600081840152601f19601f82011690508083019250505050505050611714565b505050565b6000600560008473ffffffffffffffffffffffffffffffffffffffff1673ffffffffffffffffffffffffffffffffffffffff16815260200190815260200160002060008373ffffffffffffffffffffffffffffffffffffffff1673ffffffffffffffffffffffffffffffffffffffff16815260200190815260200160002060009054906101000a900460ff16905092915050565b600b6020528060005260406000206000915090505481565b610daa610fe9565b600073ffffffffffffffffffffffffffffffffffffffff168173ffffffffffffffffffffffffffffffffffffffff1603610e1c5760006040517f1e4fbdf7000000000000000000000000000000000000000000000000000000008152600401610e1391906120bc565b60405180910390fd5b610e258161128a565b50565b60007f80ac58cd000000000000000000000000000000000000000000000000000000007bffffffffffffffffffffffffffffffffffffffffffffffffffffffff1916827bffffffffffffffffffffffffffffffffffffffffffffffffffffffff19161480610ef357507f5b5e139f000000000000000000000000000000000000000000000000000000007bffffffffffffffffffffffffffffffffffffffffffffffffffffffff1916827bffffffffffffffffffffffffffffffffffffffffffffffffffffffff1916145b80610f035750610f0282611770565b5b9050919050565b600080610f16836117da565b9050600073ffffffffffffffffffffffffffffffffffffffff168173ffffffffffffffffffffffffffffffffffffffff1603610f8957826040517f7e273289000000000000000000000000000000000000000000000000000000008152600401610f809190612152565b60405180910390fd5b80915050919050565b60006004600083815260200190815260200160002060009054906101000a900473ffffffffffffffffffffffffffffffffffffffff169050919050565b600033905090565b610fe48383836001611817565b505050565b610ff1610fcf565b73ffffffffffffffffffffffffffffffffffffffff1661100f610990565b73ffffffffffffffffffffffffffffffffffffffff161461106e57611032610fcf565b6040517f118cdaa700000000000000000000000000000000000000000000000000000000815260040161106591906120bc565b60405180910390fd5b565b60008061107c846117da565b9050600073ffffffffffffffffffffffffffffffffffffffff168373ffffffffffffffffffffffffffffffffffffffff16146110be576110bd8184866119dc565b5b600073ffffffffffffffffffffffffffffffffffffffff168173ffffffffffffffffffffffffffffffffffffffff161461114f57611100600085600080611817565b6001600360008373ffffffffffffffffffffffffffffffffffffffff1673ffffffffffffffffffffffffffffffffffffffff168152602001908152602001600020600082825403925050819055505b600073ffffffffffffffffffffffffffffffffffffffff168573ffffffffffffffffffffffffffffffffffffffff16146111d2576001600360008773ffffffffffffffffffffffffffffffffffffffff1673ffffffffffffffffffffffffffffffffffffffff168152602001908152602001600020600082825401925050819055505b846002600086815260200190815260200160002060006101000a81548173ffffffffffffffffffffffffffffffffffffffff021916908373ffffffffffffffffffffffffffffffffffffffff160217905550838573ffffffffffffffffffffffffffffffffffffffff168273ffffffffffffffffffffffffffffffffffffffff167fddf252ad1be2c89b69c2b068fc378daa952ba7f163c4a11628f55a4df523b3ef60405160405180910390a4809150509392505050565b6000600760009054906101000a900473ffffffffffffffffffffffffffffffffffffffff16905081600760006101000a81548173ffffffffffffffffffffffffffffffffffffffff021916908373ffffffffffffffffffffffffffffffffffffffff1602179055508173ffffffffffffffffffffffffffffffffffffffff168173ffffffffffffffffffffffffffffffffffffffff167f8be0079c531659141344cd1fd0a4f28419497f9722a3daafe3b4186f6b6457e060405160405180910390a35050565b600073ffffffffffffffffffffffffffffffffffffffff168273ffffffffffffffffffffffffffffffffffffffff16036113c157816040517f5b08ba180000000000000000000000000000000000000000000000000000000081526004016113b891906120bc565b60405180910390fd5b80600560008573ffffffffffffffffffffffffffffffffffffffff1673ffffffffffffffffffffffffffffffffffffffff16815260200190815260200160002060008473ffffffffffffffffffffffffffffffffffffffff1673ffffffffffffffffffffffffffffffffffffffff16815260200190815260200160002060006101000a81548160ff0219169083151502179055508173ffffffffffffffffffffffffffffffffffffffff168373ffffffffffffffffffffffffffffffffffffffff167f17307eab39ab6107e8899845ad3d59bd9653f200f220920489ca2b5937696c31836040516114b29190611eb2565b60405180910390a3505050565b60008373ffffffffffffffffffffffffffffffffffffffff163b1115611670578273ffffffffffffffffffffffffffffffffffffffff1663150b7a02611503610fcf565b8685856040518563ffffffff1660e01b81526004016115259493929190612878565b6020604051808303816000875af192505050801561156157506040513d601f19601f8201168201806040525081019061155e91906128d9565b60015b6115e5573d8060008114611591576040519150601f19603f3d011682016040523d82523d6000602084013e611596565b606091505b5060008151036115dd57836040517f64a0ae920000000000000000000000000000000000000000000000000000000081526004016115d491906120bc565b60405180910390fd5b805181602001fd5b63150b7a0260e01b7bffffffffffffffffffffffffffffffffffffffffffffffffffffffff1916817bffffffffffffffffffffffffffffffffffffffffffffffffffffffff19161461166e57836040517f64a0ae9200000000000000000000000000000000000000000000000000000000815260040161166591906120bc565b60405180910390fd5b505b50505050565b606060405180602001604052806000815250905090565b606061169882610f0a565b5060006116a3611676565b905060008151116116c357604051806020016040528060008152506116ee565b806116cd84611aa0565b6040516020016116de9291906126b0565b6040516020818303038152906040525b915050919050565b611710828260405180602001604052806000815250611b6e565b5050565b806006600084815260200190815260200160002090816117349190612ab2565b507ff8e1a15aba9398e019f0b49df1a4fde98ee17ae345cb5f6b5e2c27f5033e8ce7826040516117649190612152565b60405180910390a15050565b60007f01ffc9a7000000000000000000000000000000000000000000000000000000007bffffffffffffffffffffffffffffffffffffffffffffffffffffffff1916827bffffffffffffffffffffffffffffffffffffffffffffffffffffffff1916149050919050565b60006002600083815260200190815260200160002060009054906101000a900473ffffffffffffffffffffffffffffffffffffffff169050919050565b80806118505750600073ffffffffffffffffffffffffffffffffffffffff168273ffffffffffffffffffffffffffffffffffffffff1614155b1561198457600061186084610f0a565b9050600073ffffffffffffffffffffffffffffffffffffffff168373ffffffffffffffffffffffffffffffffffffffff16141580156118cb57508273ffffffffffffffffffffffffffffffffffffffff168173ffffffffffffffffffffffffffffffffffffffff1614155b80156118de57506118dc8184610cf6565b155b1561192057826040517fa9fbf51f00000000000000000000000000000000000000000000000000000000815260040161191791906120bc565b60405180910390fd5b811561198257838573ffffffffffffffffffffffffffffffffffffffff168273ffffffffffffffffffffffffffffffffffffffff167f8c5be1e5ebec7d5bd14f71427d1e84f3dd0314c0f7b2291e5b200ac8c7c3b92560405160405180910390a45b505b836004600085815260200190815260200160002060006101000a81548173ffffffffffffffffffffffffffffffffffffffff021916908373ffffffffffffffffffffffffffffffffffffffff16021790555050505050565b6119e7838383611b8a565b611a9b57600073ffffffffffffffffffffffffffffffffffffffff168373ffffffffffffffffffffffffffffffffffffffff1603611a5c57806040517f7e273289000000000000000000000000000000000000000000000000000000008152600401611a539190612152565b60405180910390fd5b81816040517f177e802f000000000000000000000000000000000000000000000000000000008152600401611a92929190612b84565b60405180910390fd5b505050565b606060006001611aaf84611c4b565b01905060008167ffffffffffffffff811115611ace57611acd612290565b5b6040519080825280601f01601f191660200182016040528015611b005781602001600182028036833780820191505090505b509050600082602001820190505b600115611b63578080600190039150507f3031323334353637383961626364656600000000000000000000000000000000600a86061a8153600a8581611b5757611b56612bad565b5b04945060008503611b0e575b819350505050919050565b611b788383611d9e565b611b8560008484846114bf565b505050565b60008073ffffffffffffffffffffffffffffffffffffffff168373ffffffffffffffffffffffffffffffffffffffff1614158015611c4257508273ffffffffffffffffffffffffffffffffffffffff168473ffffffffffffffffffffffffffffffffffffffff161480611c035750611c028484610cf6565b5b80611c4157508273ffffffffffffffffffffffffffffffffffffffff16611c2983610f92565b73ffffffffffffffffffffffffffffffffffffffff16145b5b90509392505050565b600080600090507a184f03e93ff9f4daa797ed6e38ed64bf6a1f0100000000000000008310611ca9577a184f03e93ff9f4daa797ed6e38ed64bf6a1f0100000000000000008381611c9f57611c9e612bad565b5b0492506040810190505b6d04ee2d6d415b85acef81000000008310611ce6576d04ee2d6d415b85acef81000000008381611cdc57611cdb612bad565b5b0492506020810190505b662386f26fc100008310611d1557662386f26fc100008381611d0b57611d0a612bad565b5b0492506010810190505b6305f5e1008310611d3e576305f5e1008381611d3457611d33612bad565b5b0492506008810190505b6127108310611d63576127108381611d5957611d58612bad565b5b0492506004810190505b60648310611d865760648381611d7c57611d7b612bad565b5b0492506002810190505b600a8310611d95576001810190505b80915050919050565b600073ffffffffffffffffffffffffffffffffffffffff168273ffffffffffffffffffffffffffffffffffffffff1603611e105760006040517f64a0ae92000000000000000000000000000000000000000000000000000000008152600401611e0791906120bc565b60405180910390fd5b6000611e1e83836000611070565b9050600073ffffffffffffffffffffffffffffffffffffffff168173ffffffffffffffffffffffffffffffffffffffff1614611e925760006040517f73c6ac6e000000000000000000000000000000000000000000000000000000008152600401611e8991906120bc565b60405180910390fd5b505050565b60008115159050919050565b611eac81611e97565b82525050565b6000602082019050611ec76000830184611ea3565b92915050565b6000604051905090565b600080fd5b600080fd5b60007fffffffff0000000000000000000000000000000000000000000000000000000082169050919050565b611f1681611ee1565b8114611f2157600080fd5b50565b600081359050611f3381611f0d565b92915050565b600060208284031215611f4f57611f4e611ed7565b5b6000611f5d84828501611f24565b91505092915050565b600081519050919050565b600082825260208201905092915050565b60005b83811015611fa0578082015181840152602081019050611f85565b60008484015250505050565b6000601f19601f8301169050919050565b6000611fc882611f66565b611fd28185611f71565b9350611fe2818560208601611f82565b611feb81611fac565b840191505092915050565b600060208201905081810360008301526120108184611fbd565b905092915050565b6000819050919050565b61202b81612018565b811461203657600080fd5b50565b60008135905061204881612022565b92915050565b60006020828403121561206457612063611ed7565b5b600061207284828501612039565b91505092915050565b600073ffffffffffffffffffffffffffffffffffffffff82169050919050565b60006120a68261207b565b9050919050565b6120b68161209b565b82525050565b60006020820190506120d160008301846120ad565b92915050565b6120e08161209b565b81146120eb57600080fd5b50565b6000813590506120fd816120d7565b92915050565b6000806040838503121561211a57612119611ed7565b5b6000612128858286016120ee565b925050602061213985828601612039565b9150509250929050565b61214c81612018565b82525050565b60006020820190506121676000830184612143565b92915050565b61217681611e97565b811461218157600080fd5b50565b6000813590506121938161216d565b92915050565b6000602082840312156121af576121ae611ed7565b5b60006121bd84828501612184565b91505092915050565b6000806000606084860312156121df576121de611ed7565b5b60006121ed868287016120ee565b93505060206121fe868287016120ee565b925050604061220f86828701612039565b9150509250925092565b60006020828403121561222f5761222e611ed7565b5b600061223d848285016120ee565b91505092915050565b6000806040838503121561225d5761225c611ed7565b5b600061226b858286016120ee565b925050602061227c85828601612184565b9150509250929050565b600080fd5b600080fd5b7f4e487b7100000000000000000000000000000000000000000000000000000000600052604160045260246000fd5b6122c882611fac565b810181811067ffffffffffffffff821117156122e7576122e6612290565b5b80604052505050565b60006122fa611ecd565b905061230682826122bf565b919050565b600067ffffffffffffffff82111561232657612325612290565b5b61232f82611fac565b9050602081019050919050565b82818337600083830152505050565b600061235e6123598461230b565b6122f0565b90508281526020810184848401111561237a5761237961228b565b5b61238584828561233c565b509392505050565b600082601f8301126123a2576123a1612286565b5b81356123b284826020860161234b565b91505092915050565b600080600080608085870312156123d5576123d4611ed7565b5b60006123e3878288016120ee565b94505060206123f4878288016120ee565b935050604061240587828801612039565b925050606085013567ffffffffffffffff81111561242657612425611edc565b5b6124328782880161238d565b91505092959194509250565b600080fd5b600080fd5b60008083601f84011261245e5761245d612286565b5b8235905067ffffffffffffffff81111561247b5761247a61243e565b5b60208301915083600182028301111561249757612496612443565b5b9250929050565b600080602083850312156124b5576124b4611ed7565b5b600083013567ffffffffffffffff8111156124d3576124d2611edc565b5b6124df85828601612448565b92509250509250929050565b6000806040838503121561250257612501611ed7565b5b6000612510858286016120ee565b9250506020612521858286016120ee565b9150509250929050565b7f4e487b7100000000000000000000000000000000000000000000000000000000600052602260045260246000fd5b6000600282049050600182168061257257607f821691505b6020821081036125855761258461252b565b5b50919050565b60006060820190506125a060008301866120ad565b6125ad6020830185612143565b6125ba60408301846120ad565b949350505050565b600081905092915050565b50565b60006125dd6000836125c2565b91506125e8826125cd565b600082019050919050565b60006125fe826125d0565b9150819050919050565b7f5769746864726177206661696c65640000000000000000000000000000000000600082015250565b600061263e600f83611f71565b915061264982612608565b602082019050919050565b6000602082019050818103600083015261266d81612631565b9050919050565b600081905092915050565b600061268a82611f66565b6126948185612674565b93506126a4818560208601611f82565b80840191505092915050565b60006126bc828561267f565b91506126c8828461267f565b91508190509392505050565b7f5075626c6963206d696e74696e67206e6f7420656e61626c6564000000000000600082015250565b600061270a601a83611f71565b9150612715826126d4565b602082019050919050565b60006020820190508181036000830152612739816126fd565b9050919050565b7f57726f6e67206d696e742076616c756500000000000000000000000000000000600082015250565b6000612776601083611f71565b915061278182612740565b602082019050919050565b600060208201905081810360008301526127a581612769565b9050919050565b7f4e487b7100000000000000000000000000000000000000000000000000000000600052601160045260246000fd5b60006127e682612018565b91507fffffffffffffffffffffffffffffffffffffffffffffffffffffffffffffffff8203612818576128176127ac565b5b600182019050919050565b600081519050919050565b600082825260208201905092915050565b600061284a82612823565b612854818561282e565b9350612864818560208601611f82565b61286d81611fac565b840191505092915050565b600060808201905061288d60008301876120ad565b61289a60208301866120ad565b6128a76040830185612143565b81810360608301526128b9818461283f565b905095945050505050565b6000815190506128d381611f0d565b92915050565b6000602082840312156128ef576128ee611ed7565b5b60006128fd848285016128c4565b91505092915050565b60008190508160005260206000209050919050565b60006020601f8301049050919050565b600082821b905092915050565b6000600883026129687fffffffffffffffffffffffffffffffffffffffffffffffffffffffffffffffff8261292b565b612972868361292b565b95508019841693508086168417925050509392505050565b6000819050919050565b60006129af6129aa6129a584612018565b61298a565b612018565b9050919050565b6000819050919050565b6129c983612994565b6129dd6129d5826129b6565b848454612938565b825550505050565b600090565b6129f26129e5565b6129fd8184846129c0565b505050565b5b81811015612a2157612a166000826129ea565b600181019050612a03565b5050565b601f821115612a6657612a3781612906565b612a408461291b565b81016020851015612a4f578190505b612a63612a5b8561291b565b830182612a02565b50505b505050565b600082821c905092915050565b6000612a8960001984600802612a6b565b1980831691505092915050565b6000612aa28383612a78565b9150826002028217905092915050565b612abb82611f66565b67ffffffffffffffff811115612ad457612ad3612290565b5b612ade825461255a565b612ae9828285612a25565b600060209050601f831160018114612b1c5760008415612b0a578287015190505b612b148582612a96565b865550612b7c565b601f198416612b2a86612906565b60005b82811015612b5257848901518255600182019150602085019450602081019050612b2d565b86831015612b6f5784890151612b6b601f891682612a78565b8355505b6001600288020188555050505b505050505050565b6000604082019050612b9960008301856120ad565b612ba66020830184612143565b9392505050565b7f4e487b7100000000000000000000000000000000000000000000000000000000600052601260045260246000fdfea2646970667358221220285dbb63115f1c272cc12dc38da96e0a6e73679fcdaa5f958fec64ccc658703264736f6c63430008180033",
  "linkReferences": {},
  "deployedLinkReferences": {}
}