{
  "_format": "hh-sol-artifact-1",
  "contractName": "NFT",
  "sourceName": "contracts/NFT.sol",
  "abi": [
    {
      "inputs": [
        {
          "internalType": "string",
          "name": "_name",
          "type": "string"
        },
        {
          "internalType": "string",
          "name": "_symbol",
          "type": "string"
        },
        {
          "internalType": "uint256",
          "name": "_mintPrice",
          "type": "uint256"
        }
      ],
      "stateMutability": "payable",
      "type": "constructor"
    },
    {
      "inputs": [],
      "name": "ERC721EnumerableForbiddenBatchMint",
      "type": "error"
    },
    {
      "inputs": [
        {
          "internalType": "address",
          "name": "sender",
          "type": "address"
        },
        {
          "internalType": "uint256",
          "name": "tokenId",
          "type": "uint256"
        },
        {
          "internalType": "address",
          "name": "owner",
          "type": "address"
        }
      ],
      "name": "ERC721IncorrectOwner",
      "type": "error"
    },
    {
      "inputs": [
        {
          "internalType": "address",
          "name": "operator",
          "type": "address"
        },
        {
          "internalType": "uint256",
          "name": "tokenId",
          "type": "uint256"
        }
      ],
      "name": "ERC721InsufficientApproval",
      "type": "error"
    },
    {
      "inputs": [
        {
          "internalType": "address",
          "name": "approver",
          "type": "address"
        }
      ],
      "name": "ERC721InvalidApprover",
      "type": "error"
    },
    {
      "inputs": [
        {
          "internalType": "address",
          "name": "operator",
          "type": "address"
        }
      ],
      "name": "ERC721InvalidOperator",
      "type": "error"
    },
    {
      "inputs": [
        {
          "internalType": "address",
          "name": "owner",
          "type": "address"
        }
      ],
      "name": "ERC721InvalidOwner",
      "type": "error"
    },
    {
      "inputs": [
        {
          "internalType": "address",
          "name": "receiver",
          "type": "address"
        }
      ],
      "name": "ERC721InvalidReceiver",
      "type": "error"
    },
    {
      "inputs": [
        {
          "internalType": "address",
          "name": "sender",
          "type": "address"
        }
      ],
      "name": "ERC721InvalidSender",
      "type": "error"
    },
    {
      "inputs": [
        {
          "internalType": "uint256",
          "name": "tokenId",
          "type": "uint256"
        }
      ],
      "name": "ERC721NonexistentToken",
      "type": "error"
    },
    {
      "inputs": [
        {
          "internalType": "address",
          "name": "owner",
          "type": "address"
        },
        {
          "internalType": "uint256",
          "name": "index",
          "type": "uint256"
        }
      ],
      "name": "ERC721OutOfBoundsIndex",
      "type": "error"
    },
    {
      "inputs": [
        {
          "internalType": "address",
          "name": "owner",
          "type": "address"
        }
      ],
      "name": "OwnableInvalidOwner",
      "type": "error"
    },
    {
      "inputs": [
        {
          "internalType": "address",
          "name": "account",
          "type": "address"
        }
      ],
      "name": "OwnableUnauthorizedAccount",
      "type": "error"
    },
    {
      "anonymous": false,
      "inputs": [
        {
          "indexed": true,
          "internalType": "address",
          "name": "owner",
          "type": "address"
        },
        {
          "indexed": true,
          "internalType": "address",
          "name": "approved",
          "type": "address"
        },
        {
          "indexed": true,
          "internalType": "uint256",
          "name": "tokenId",
          "type": "uint256"
        }
      ],
      "name": "Approval",
      "type": "event"
    },
    {
      "anonymous": false,
      "inputs": [
        {
          "indexed": true,
          "internalType": "address",
          "name": "owner",
          "type": "address"
        },
        {
          "indexed": true,
          "internalType": "address",
          "name": "operator",
          "type": "address"
        },
        {
          "indexed": false,
          "internalType": "bool",
          "name": "approved",
          "type": "bool"
        }
      ],
      "name": "ApprovalForAll",
      "type": "event"
    },
    {
      "anonymous": false,
      "inputs": [
        {
          "indexed": false,
          "internalType": "uint256",
          "name": "_fromTokenId",
          "type": "uint256"
        },
        {
          "indexed": false,
          "internalType": "uint256",
          "name": "_toTokenId",
          "type": "uint256"
        }
      ],
      "name": "BatchMetadataUpdate",
      "type": "event"
    },
    {
      "anonymous": false,
      "inputs": [
        {
          "indexed": false,
          "internalType": "uint256",
          "name": "_tokenId",
          "type": "uint256"
        }
      ],
      "name": "MetadataUpdate",
      "type": "event"
    },
    {
      "anonymous": false,
      "inputs": [
        {
          "indexed": true,
          "internalType": "address",
          "name": "previousOwner",
          "type": "address"
        },
        {
          "indexed": true,
          "internalType": "address",
          "name": "newOwner",
          "type": "address"
        }
      ],
      "name": "OwnershipTransferred",
      "type": "event"
    },
    {
      "anonymous": false,
      "inputs": [
        {
          "indexed": true,
          "internalType": "address",
          "name": "from",
          "type": "address"
        },
        {
          "indexed": true,
          "internalType": "address",
          "name": "to",
          "type": "address"
        },
        {
          "indexed": true,
          "internalType": "uint256",
          "name": "tokenId",
          "type": "uint256"
        }
      ],
      "name": "Transfer",
      "type": "event"
    },
    {
      "inputs": [
        {
          "internalType": "address",
          "name": "to",
          "type": "address"
        },
        {
          "internalType": "uint256",
          "name": "tokenId",
          "type": "uint256"
        }
      ],
      "name": "approve",
      "outputs": [],
      "stateMutability": "nonpayable",
      "type": "function"
    },
    {
      "inputs": [
        {
          "internalType": "address",
          "name": "owner",
          "type": "address"
        }
      ],
      "name": "balanceOf",
      "outputs": [
        {
          "internalType": "uint256",
          "name": "",
          "type": "uint256"
        }
      ],
      "stateMutability": "view",
      "type": "function"
    },
    {
      "inputs": [
        {
          "internalType": "uint256",
          "name": "tokenId",
          "type": "uint256"
        }
      ],
      "name": "getApproved",
      "outputs": [
        {
          "internalType": "address",
          "name": "",
          "type": "address"
        }
      ],
      "stateMutability": "view",
      "type": "function"
    },
    {
      "inputs": [
        {
          "internalType": "address",
          "name": "owner",
          "type": "address"
        },
        {
          "internalType": "address",
          "name": "operator",
          "type": "address"
        }
      ],
      "name": "isApprovedForAll",
      "outputs": [
        {
          "internalType": "bool",
          "name": "",
          "type": "bool"
        }
      ],
      "stateMutability": "view",
      "type": "function"
    },
    {
      "inputs": [],
      "name": "isPublicMintEnabled",
      "outputs": [
        {
          "internalType": "bool",
          "name": "",
          "type": "bool"
        }
      ],
      "stateMutability": "view",
      "type": "function"
    },
    {
      "inputs": [
        {
          "internalType": "string",
          "name": "_uri",
          "type": "string"
        }
      ],
      "name": "mint",
      "outputs": [],
      "stateMutability": "payable",
      "type": "function"
    },
    {
      "inputs": [],
      "name": "mintPrice",
      "outputs": [
        {
          "internalType": "uint256",
          "name": "",
          "type": "uint256"
        }
      ],
      "stateMutability": "view",
      "type": "function"
    },
    {
      "inputs": [],
      "name": "name",
      "outputs": [
        {
          "internalType": "string",
          "name": "",
          "type": "string"
        }
      ],
      "stateMutability": "view",
      "type": "function"
    },
    {
      "inputs": [],
      "name": "owner",
      "outputs": [
        {
          "internalType": "address",
          "name": "",
          "type": "address"
        }
      ],
      "stateMutability": "view",
      "type": "function"
    },
    {
      "inputs": [
        {
          "internalType": "uint256",
          "name": "tokenId",
          "type": "uint256"
        }
      ],
      "name": "ownerOf",
      "outputs": [
        {
          "internalType": "address",
          "name": "",
          "type": "address"
        }
      ],
      "stateMutability": "view",
      "type": "function"
    },
    {
      "inputs": [],
      "name": "renounceOwnership",
      "outputs": [],
      "stateMutability": "nonpayable",
      "type": "function"
    },
    {
      "inputs": [
        {
          "internalType": "address",
          "name": "from",
          "type": "address"
        },
        {
          "internalType": "address",
          "name": "to",
          "type": "address"
        },
        {
          "internalType": "uint256",
          "name": "tokenId",
          "type": "uint256"
        }
      ],
      "name": "safeTransferFrom",
      "outputs": [],
      "stateMutability": "nonpayable",
      "type": "function"
    },
    {
      "inputs": [
        {
          "internalType": "address",
          "name": "from",
          "type": "address"
        },
        {
          "internalType": "address",
          "name": "to",
          "type": "address"
        },
        {
          "internalType": "uint256",
          "name": "tokenId",
          "type": "uint256"
        },
        {
          "internalType": "bytes",
          "name": "data",
          "type": "bytes"
        }
      ],
      "name": "safeTransferFrom",
      "outputs": [],
      "stateMutability": "nonpayable",
      "type": "function"
    },
    {
      "inputs": [
        {
          "internalType": "address",
          "name": "operator",
          "type": "address"
        },
        {
          "internalType": "bool",
          "name": "approved",
          "type": "bool"
        }
      ],
      "name": "setApprovalForAll",
      "outputs": [],
      "stateMutability": "nonpayable",
      "type": "function"
    },
    {
      "inputs": [
        {
          "internalType": "bool",
          "name": "_isPublicMintEnabled",
          "type": "bool"
        }
      ],
      "name": "setIsPublicMintEnabled",
      "outputs": [],
      "stateMutability": "nonpayable",
      "type": "function"
    },
    {
      "inputs": [
        {
          "internalType": "bytes4",
          "name": "interfaceId",
          "type": "bytes4"
        }
      ],
      "name": "supportsInterface",
      "outputs": [
        {
          "internalType": "bool",
          "name": "",
          "type": "bool"
        }
      ],
      "stateMutability": "view",
      "type": "function"
    },
    {
      "inputs": [],
      "name": "symbol",
      "outputs": [
        {
          "internalType": "string",
          "name": "",
          "type": "string"
        }
      ],
      "stateMutability": "view",
      "type": "function"
    },
    {
      "inputs": [
        {
          "internalType": "uint256",
          "name": "index",
          "type": "uint256"
        }
      ],
      "name": "tokenByIndex",
      "outputs": [
        {
          "internalType": "uint256",
          "name": "",
          "type": "uint256"
        }
      ],
      "stateMutability": "view",
      "type": "function"
    },
    {
      "inputs": [
        {
          "internalType": "address",
          "name": "owner",
          "type": "address"
        },
        {
          "internalType": "uint256",
          "name": "index",
          "type": "uint256"
        }
      ],
      "name": "tokenOfOwnerByIndex",
      "outputs": [
        {
          "internalType": "uint256",
          "name": "",
          "type": "uint256"
        }
      ],
      "stateMutability": "view",
      "type": "function"
    },
    {
      "inputs": [
        {
          "internalType": "uint256",
          "name": "tokenId",
          "type": "uint256"
        }
      ],
      "name": "tokenURI",
      "outputs": [
        {
          "internalType": "string",
          "name": "",
          "type": "string"
        }
      ],
      "stateMutability": "view",
      "type": "function"
    },
    {
      "inputs": [],
      "name": "totalSupply",
      "outputs": [
        {
          "internalType": "uint256",
          "name": "",
          "type": "uint256"
        }
      ],
      "stateMutability": "view",
      "type": "function"
    },
    {
      "inputs": [
        {
          "internalType": "address",
          "name": "from",
          "type": "address"
        },
        {
          "internalType": "address",
          "name": "to",
          "type": "address"
        },
        {
          "internalType": "uint256",
          "name": "tokenId",
          "type": "uint256"
        }
      ],
      "name": "transferFrom",
      "outputs": [],
      "stateMutability": "nonpayable",
      "type": "function"
    },
    {
      "inputs": [
        {
          "internalType": "address",
          "name": "newOwner",
          "type": "address"
        }
      ],
      "name": "transferOwnership",
      "outputs": [],
      "stateMutability": "nonpayable",
      "type": "function"
    },
    {
      "inputs": [
        {
          "internalType": "address",
          "name": "",
          "type": "address"
        }
      ],
      "name": "walletMints",
      "outputs": [
        {
          "internalType": "uint256",
          "name": "",
          "type": "uint256"
        }
      ],
      "stateMutability": "view",
      "type": "function"
    },
    {
      "inputs": [
        {
          "internalType": "address",
          "name": "_address",
          "type": "address"
        }
      ],
      "name": "withdraw",
      "outputs": [],
      "stateMutability": "nonpayable",
      "type": "function"
    }
  ],
  "bytecode": "0x608060405260405162003adf38038062003adf83398181016040528101906200002991906200037d565b33838381600090816200003d919062000658565b5080600190816200004f919062000658565b505050600073ffffffffffffffffffffffffffffffffffffffff168173ffffffffffffffffffffffffffffffffffffffff1603620000c75760006040517f1e4fbdf7000000000000000000000000000000000000000000000000000000008152600401620000be919062000784565b60405180910390fd5b620000d881620000e960201b60201c565b5080600c81905550505050620007a1565b6000600b60009054906101000a900473ffffffffffffffffffffffffffffffffffffffff16905081600b60006101000a81548173ffffffffffffffffffffffffffffffffffffffff021916908373ffffffffffffffffffffffffffffffffffffffff1602179055508173ffffffffffffffffffffffffffffffffffffffff168173ffffffffffffffffffffffffffffffffffffffff167f8be0079c531659141344cd1fd0a4f28419497f9722a3daafe3b4186f6b6457e060405160405180910390a35050565b6000604051905090565b600080fd5b600080fd5b600080fd5b600080fd5b6000601f19601f8301169050919050565b7f4e487b7100000000000000000000000000000000000000000000000000000000600052604160045260246000fd5b6200021882620001cd565b810181811067ffffffffffffffff821117156200023a5762000239620001de565b5b80604052505050565b60006200024f620001af565b90506200025d82826200020d565b919050565b600067ffffffffffffffff82111562000280576200027f620001de565b5b6200028b82620001cd565b9050602081019050919050565b60005b83811015620002b85780820151818401526020810190506200029b565b60008484015250505050565b6000620002db620002d58462000262565b62000243565b905082815260208101848484011115620002fa57620002f9620001c8565b5b6200030784828562000298565b509392505050565b600082601f830112620003275762000326620001c3565b5b815162000339848260208601620002c4565b91505092915050565b6000819050919050565b620003578162000342565b81146200036357600080fd5b50565b60008151905062000377816200034c565b92915050565b600080600060608486031215620003995762000398620001b9565b5b600084015167ffffffffffffffff811115620003ba57620003b9620001be565b5b620003c8868287016200030f565b935050602084015167ffffffffffffffff811115620003ec57620003eb620001be565b5b620003fa868287016200030f565b92505060406200040d8682870162000366565b9150509250925092565b600081519050919050565b7f4e487b7100000000000000000000000000000000000000000000000000000000600052602260045260246000fd5b600060028204905060018216806200046a57607f821691505b60208210810362000480576200047f62000422565b5b50919050565b60008190508160005260206000209050919050565b60006020601f8301049050919050565b600082821b905092915050565b600060088302620004ea7fffffffffffffffffffffffffffffffffffffffffffffffffffffffffffffffff82620004ab565b620004f68683620004ab565b95508019841693508086168417925050509392505050565b6000819050919050565b600062000539620005336200052d8462000342565b6200050e565b62000342565b9050919050565b6000819050919050565b620005558362000518565b6200056d620005648262000540565b848454620004b8565b825550505050565b600090565b6200058462000575565b620005918184846200054a565b505050565b5b81811015620005b957620005ad6000826200057a565b60018101905062000597565b5050565b601f8211156200060857620005d28162000486565b620005dd846200049b565b81016020851015620005ed578190505b62000605620005fc856200049b565b83018262000596565b50505b505050565b600082821c905092915050565b60006200062d600019846008026200060d565b1980831691505092915050565b60006200064883836200061a565b9150826002028217905092915050565b620006638262000417565b67ffffffffffffffff8111156200067f576200067e620001de565b5b6200068b825462000451565b62000698828285620005bd565b600060209050601f831160018114620006d05760008415620006bb578287015190505b620006c785826200063a565b86555062000737565b601f198416620006e08662000486565b60005b828110156200070a57848901518255600182019150602085019450602081019050620006e3565b868310156200072a578489015162000726601f8916826200061a565b8355505b6001600288020188555050505b505050505050565b600073ffffffffffffffffffffffffffffffffffffffff82169050919050565b60006200076c826200073f565b9050919050565b6200077e816200075f565b82525050565b60006020820190506200079b600083018462000773565b92915050565b61332e80620007b16000396000f3fe6080604052600436106101665760003560e01c80636352211e116100d1578063a22cb4651161008a578063d85d3d2711610064578063d85d3d271461054e578063e985e9c51461056a578063f0293fd3146105a7578063f2fde38b146105e457610166565b8063a22cb465146104bf578063b88d4fde146104e8578063c87b56dd1461051157610166565b80636352211e146103ad5780636817c76c146103ea57806370a0823114610415578063715018a6146104525780638da5cb5b1461046957806395d89b411461049457610166565b80632373ac22116101235780632373ac221461028f57806323b872dd146102b85780632f745c59146102e157806342842e0e1461031e5780634f6ccce71461034757806351cff8d91461038457610166565b80630116bc2d1461016b57806301ffc9a71461019657806306fdde03146101d3578063081812fc146101fe578063095ea7b31461023b57806318160ddd14610264575b600080fd5b34801561017757600080fd5b5061018061060d565b60405161018d919061253c565b60405180910390f35b3480156101a257600080fd5b506101bd60048036038101906101b891906125c3565b610620565b6040516101ca919061253c565b60405180910390f35b3480156101df57600080fd5b506101e8610632565b6040516101f59190612680565b60405180910390f35b34801561020a57600080fd5b50610225600480360381019061022091906126d8565b6106c4565b6040516102329190612746565b60405180910390f35b34801561024757600080fd5b50610262600480360381019061025d919061278d565b6106e0565b005b34801561027057600080fd5b506102796106f6565b60405161028691906127dc565b60405180910390f35b34801561029b57600080fd5b506102b660048036038101906102b19190612823565b610703565b005b3480156102c457600080fd5b506102df60048036038101906102da9190612850565b610728565b005b3480156102ed57600080fd5b506103086004803603810190610303919061278d565b61082a565b60405161031591906127dc565b60405180910390f35b34801561032a57600080fd5b5061034560048036038101906103409190612850565b6108d3565b005b34801561035357600080fd5b5061036e600480360381019061036991906126d8565b6108f3565b60405161037b91906127dc565b60405180910390f35b34801561039057600080fd5b506103ab60048036038101906103a691906128a3565b610969565b005b3480156103b957600080fd5b506103d460048036038101906103cf91906126d8565b610a21565b6040516103e19190612746565b60405180910390f35b3480156103f657600080fd5b506103ff610a33565b60405161040c91906127dc565b60405180910390f35b34801561042157600080fd5b5061043c600480360381019061043791906128a3565b610a39565b60405161044991906127dc565b60405180910390f35b34801561045e57600080fd5b50610467610af3565b005b34801561047557600080fd5b5061047e610b07565b60405161048b9190612746565b60405180910390f35b3480156104a057600080fd5b506104a9610b31565b6040516104b69190612680565b60405180910390f35b3480156104cb57600080fd5b506104e660048036038101906104e191906128d0565b610bc3565b005b3480156104f457600080fd5b5061050f600480360381019061050a9190612a45565b610bd9565b005b34801561051d57600080fd5b50610538600480360381019061053391906126d8565b610bf6565b6040516105459190612680565b60405180910390f35b61056860048036038101906105639190612b28565b610c08565b005b34801561057657600080fd5b50610591600480360381019061058c9190612b75565b610d59565b60405161059e919061253c565b60405180910390f35b3480156105b357600080fd5b506105ce60048036038101906105c991906128a3565b610ded565b6040516105db91906127dc565b60405180910390f35b3480156105f057600080fd5b5061060b600480360381019061060691906128a3565b610e05565b005b600d60009054906101000a900460ff1681565b600061062b82610e8b565b9050919050565b60606000805461064190612be4565b80601f016020809104026020016040519081016040528092919081815260200182805461066d90612be4565b80156106ba5780601f1061068f576101008083540402835291602001916106ba565b820191906000526020600020905b81548152906001019060200180831161069d57829003601f168201915b5050505050905090565b60006106cf82610f05565b506106d982610f8d565b9050919050565b6106f282826106ed610fca565b610fd2565b5050565b6000600980549050905090565b61070b610fe4565b80600d60006101000a81548160ff02191690831515021790555050565b600073ffffffffffffffffffffffffffffffffffffffff168273ffffffffffffffffffffffffffffffffffffffff160361079a5760006040517f64a0ae920000000000000000000000000000000000000000000000000000000081526004016107919190612746565b60405180910390fd5b60006107ae83836107a9610fca565b61106b565b90508373ffffffffffffffffffffffffffffffffffffffff168173ffffffffffffffffffffffffffffffffffffffff1614610824578382826040517f64283d7b00000000000000000000000000000000000000000000000000000000815260040161081b93929190612c15565b60405180910390fd5b50505050565b600061083583610a39565b821061087a5782826040517fa57d13dc000000000000000000000000000000000000000000000000000000008152600401610871929190612c4c565b60405180910390fd5b600760008473ffffffffffffffffffffffffffffffffffffffff1673ffffffffffffffffffffffffffffffffffffffff168152602001908152602001600020600083815260200190815260200160002054905092915050565b6108ee83838360405180602001604052806000815250610bd9565b505050565b60006108fd6106f6565b8210610943576000826040517fa57d13dc00000000000000000000000000000000000000000000000000000000815260040161093a929190612c4c565b60405180910390fd5b6009828154811061095757610956612c75565b5b90600052602060002001549050919050565b610971610fe4565b60008173ffffffffffffffffffffffffffffffffffffffff164760405161099790612cd5565b60006040518083038185875af1925050503d80600081146109d4576040519150601f19603f3d011682016040523d82523d6000602084013e6109d9565b606091505b5050905080610a1d576040517f08c379a0000000000000000000000000000000000000000000000000000000008152600401610a1490612d36565b60405180910390fd5b5050565b6000610a2c82610f05565b9050919050565b600c5481565b60008073ffffffffffffffffffffffffffffffffffffffff168273ffffffffffffffffffffffffffffffffffffffff1603610aac5760006040517f89c62b64000000000000000000000000000000000000000000000000000000008152600401610aa39190612746565b60405180910390fd5b600360008373ffffffffffffffffffffffffffffffffffffffff1673ffffffffffffffffffffffffffffffffffffffff168152602001908152602001600020549050919050565b610afb610fe4565b610b056000611081565b565b6000600b60009054906101000a900473ffffffffffffffffffffffffffffffffffffffff16905090565b606060018054610b4090612be4565b80601f0160208091040260200160405190810160405280929190818152602001828054610b6c90612be4565b8015610bb95780601f10610b8e57610100808354040283529160200191610bb9565b820191906000526020600020905b815481529060010190602001808311610b9c57829003601f168201915b5050505050905090565b610bd5610bce610fca565b8383611147565b5050565b610be4848484610728565b610bf0848484846112b6565b50505050565b6060610c018261146d565b9050919050565b600d60009054906101000a900460ff16610c57576040517f08c379a0000000000000000000000000000000000000000000000000000000008152600401610c4e90612da2565b60405180910390fd5b600c543414610c9b576040517f08c379a0000000000000000000000000000000000000000000000000000000008152600401610c9290612e0e565b60405180910390fd5b6000610ca56106f6565b9050600e60003373ffffffffffffffffffffffffffffffffffffffff1673ffffffffffffffffffffffffffffffffffffffff1681526020019081526020016000206000815480929190610cf790612e5d565b9190505550610d063382611580565b610d548184848080601f016020809104026020016040519081016040528093929190818152602001838380828437600081840152601f19601f8201169050808301925050505050505061159e565b505050565b6000600560008473ffffffffffffffffffffffffffffffffffffffff1673ffffffffffffffffffffffffffffffffffffffff16815260200190815260200160002060008373ffffffffffffffffffffffffffffffffffffffff1673ffffffffffffffffffffffffffffffffffffffff16815260200190815260200160002060009054906101000a900460ff16905092915050565b600e6020528060005260406000206000915090505481565b610e0d610fe4565b600073ffffffffffffffffffffffffffffffffffffffff168173ffffffffffffffffffffffffffffffffffffffff1603610e7f5760006040517f1e4fbdf7000000000000000000000000000000000000000000000000000000008152600401610e769190612746565b60405180910390fd5b610e8881611081565b50565b60007f780e9d63000000000000000000000000000000000000000000000000000000007bffffffffffffffffffffffffffffffffffffffffffffffffffffffff1916827bffffffffffffffffffffffffffffffffffffffffffffffffffffffff19161480610efe5750610efd826115fa565b5b9050919050565b600080610f118361165b565b9050600073ffffffffffffffffffffffffffffffffffffffff168173ffffffffffffffffffffffffffffffffffffffff1603610f8457826040517f7e273289000000000000000000000000000000000000000000000000000000008152600401610f7b91906127dc565b60405180910390fd5b80915050919050565b60006004600083815260200190815260200160002060009054906101000a900473ffffffffffffffffffffffffffffffffffffffff169050919050565b600033905090565b610fdf8383836001611698565b505050565b610fec610fca565b73ffffffffffffffffffffffffffffffffffffffff1661100a610b07565b73ffffffffffffffffffffffffffffffffffffffff16146110695761102d610fca565b6040517f118cdaa70000000000000000000000000000000000000000000000000000000081526004016110609190612746565b60405180910390fd5b565b600061107884848461185d565b90509392505050565b6000600b60009054906101000a900473ffffffffffffffffffffffffffffffffffffffff16905081600b60006101000a81548173ffffffffffffffffffffffffffffffffffffffff021916908373ffffffffffffffffffffffffffffffffffffffff1602179055508173ffffffffffffffffffffffffffffffffffffffff168173ffffffffffffffffffffffffffffffffffffffff167f8be0079c531659141344cd1fd0a4f28419497f9722a3daafe3b4186f6b6457e060405160405180910390a35050565b600073ffffffffffffffffffffffffffffffffffffffff168273ffffffffffffffffffffffffffffffffffffffff16036111b857816040517f5b08ba180000000000000000000000000000000000000000000000000000000081526004016111af9190612746565b60405180910390fd5b80600560008573ffffffffffffffffffffffffffffffffffffffff1673ffffffffffffffffffffffffffffffffffffffff16815260200190815260200160002060008473ffffffffffffffffffffffffffffffffffffffff1673ffffffffffffffffffffffffffffffffffffffff16815260200190815260200160002060006101000a81548160ff0219169083151502179055508173ffffffffffffffffffffffffffffffffffffffff168373ffffffffffffffffffffffffffffffffffffffff167f17307eab39ab6107e8899845ad3d59bd9653f200f220920489ca2b5937696c31836040516112a9919061253c565b60405180910390a3505050565b60008373ffffffffffffffffffffffffffffffffffffffff163b1115611467578273ffffffffffffffffffffffffffffffffffffffff1663150b7a026112fa610fca565b8685856040518563ffffffff1660e01b815260040161131c9493929190612efa565b6020604051808303816000875af192505050801561135857506040513d601f19601f820116820180604052508101906113559190612f5b565b60015b6113dc573d8060008114611388576040519150601f19603f3d011682016040523d82523d6000602084013e61138d565b606091505b5060008151036113d457836040517f64a0ae920000000000000000000000000000000000000000000000000000000081526004016113cb9190612746565b60405180910390fd5b805181602001fd5b63150b7a0260e01b7bffffffffffffffffffffffffffffffffffffffffffffffffffffffff1916817bffffffffffffffffffffffffffffffffffffffffffffffffffffffff19161461146557836040517f64a0ae9200000000000000000000000000000000000000000000000000000000815260040161145c9190612746565b60405180910390fd5b505b50505050565b606061147882610f05565b50600060066000848152602001908152602001600020805461149990612be4565b80601f01602080910402602001604051908101604052809291908181526020018280546114c590612be4565b80156115125780601f106114e757610100808354040283529160200191611512565b820191906000526020600020905b8154815290600101906020018083116114f557829003601f168201915b50505050509050600061152361197a565b9050600081510361153857819250505061157b565b60008251111561156d578082604051602001611555929190612fc4565b6040516020818303038152906040529250505061157b565b61157684611991565b925050505b919050565b61159a8282604051806020016040528060008152506119fa565b5050565b806006600084815260200190815260200160002090816115be9190613194565b507ff8e1a15aba9398e019f0b49df1a4fde98ee17ae345cb5f6b5e2c27f5033e8ce7826040516115ee91906127dc565b60405180910390a15050565b6000634906490660e01b7bffffffffffffffffffffffffffffffffffffffffffffffffffffffff1916827bffffffffffffffffffffffffffffffffffffffffffffffffffffffff19161480611654575061165382611a16565b5b9050919050565b60006002600083815260200190815260200160002060009054906101000a900473ffffffffffffffffffffffffffffffffffffffff169050919050565b80806116d15750600073ffffffffffffffffffffffffffffffffffffffff168273ffffffffffffffffffffffffffffffffffffffff1614155b156118055760006116e184610f05565b9050600073ffffffffffffffffffffffffffffffffffffffff168373ffffffffffffffffffffffffffffffffffffffff161415801561174c57508273ffffffffffffffffffffffffffffffffffffffff168173ffffffffffffffffffffffffffffffffffffffff1614155b801561175f575061175d8184610d59565b155b156117a157826040517fa9fbf51f0000000000000000000000000000000000000000000000000000000081526004016117989190612746565b60405180910390fd5b811561180357838573ffffffffffffffffffffffffffffffffffffffff168273ffffffffffffffffffffffffffffffffffffffff167f8c5be1e5ebec7d5bd14f71427d1e84f3dd0314c0f7b2291e5b200ac8c7c3b92560405160405180910390a45b505b836004600085815260200190815260200160002060006101000a81548173ffffffffffffffffffffffffffffffffffffffff021916908373ffffffffffffffffffffffffffffffffffffffff16021790555050505050565b60008061186b858585611af8565b9050600073ffffffffffffffffffffffffffffffffffffffff168173ffffffffffffffffffffffffffffffffffffffff16036118af576118aa84611d12565b6118ee565b8473ffffffffffffffffffffffffffffffffffffffff168173ffffffffffffffffffffffffffffffffffffffff16146118ed576118ec8185611d5b565b5b5b600073ffffffffffffffffffffffffffffffffffffffff168573ffffffffffffffffffffffffffffffffffffffff16036119305761192b84611ebc565b61196f565b8473ffffffffffffffffffffffffffffffffffffffff168173ffffffffffffffffffffffffffffffffffffffff161461196e5761196d8585611f8d565b5b5b809150509392505050565b606060405180602001604052806000815250905090565b606061199c82610f05565b5060006119a761197a565b905060008151116119c757604051806020016040528060008152506119f2565b806119d184612018565b6040516020016119e2929190612fc4565b6040516020818303038152906040525b915050919050565b611a0483836120e6565b611a1160008484846112b6565b505050565b60007f80ac58cd000000000000000000000000000000000000000000000000000000007bffffffffffffffffffffffffffffffffffffffffffffffffffffffff1916827bffffffffffffffffffffffffffffffffffffffffffffffffffffffff19161480611ae157507f5b5e139f000000000000000000000000000000000000000000000000000000007bffffffffffffffffffffffffffffffffffffffffffffffffffffffff1916827bffffffffffffffffffffffffffffffffffffffffffffffffffffffff1916145b80611af15750611af0826121df565b5b9050919050565b600080611b048461165b565b9050600073ffffffffffffffffffffffffffffffffffffffff168373ffffffffffffffffffffffffffffffffffffffff1614611b4657611b45818486612249565b5b600073ffffffffffffffffffffffffffffffffffffffff168173ffffffffffffffffffffffffffffffffffffffff1614611bd757611b88600085600080611698565b6001600360008373ffffffffffffffffffffffffffffffffffffffff1673ffffffffffffffffffffffffffffffffffffffff168152602001908152602001600020600082825403925050819055505b600073ffffffffffffffffffffffffffffffffffffffff168573ffffffffffffffffffffffffffffffffffffffff1614611c5a576001600360008773ffffffffffffffffffffffffffffffffffffffff1673ffffffffffffffffffffffffffffffffffffffff168152602001908152602001600020600082825401925050819055505b846002600086815260200190815260200160002060006101000a81548173ffffffffffffffffffffffffffffffffffffffff021916908373ffffffffffffffffffffffffffffffffffffffff160217905550838573ffffffffffffffffffffffffffffffffffffffff168273ffffffffffffffffffffffffffffffffffffffff167fddf252ad1be2c89b69c2b068fc378daa952ba7f163c4a11628f55a4df523b3ef60405160405180910390a4809150509392505050565b600980549050600a600083815260200190815260200160002081905550600981908060018154018082558091505060019003906000526020600020016000909190919091505550565b6000611d6683610a39565b9050600060086000848152602001908152602001600020549050818114611e4b576000600760008673ffffffffffffffffffffffffffffffffffffffff1673ffffffffffffffffffffffffffffffffffffffff168152602001908152602001600020600084815260200190815260200160002054905080600760008773ffffffffffffffffffffffffffffffffffffffff1673ffffffffffffffffffffffffffffffffffffffff168152602001908152602001600020600084815260200190815260200160002081905550816008600083815260200190815260200160002081905550505b6008600084815260200190815260200160002060009055600760008573ffffffffffffffffffffffffffffffffffffffff1673ffffffffffffffffffffffffffffffffffffffff16815260200190815260200160002060008381526020019081526020016000206000905550505050565b60006001600980549050611ed09190613266565b90506000600a6000848152602001908152602001600020549050600060098381548110611f0057611eff612c75565b5b906000526020600020015490508060098381548110611f2257611f21612c75565b5b906000526020600020018190555081600a600083815260200190815260200160002081905550600a6000858152602001908152602001600020600090556009805480611f7157611f7061329a565b5b6001900381819060005260206000200160009055905550505050565b60006001611f9a84610a39565b611fa49190613266565b905081600760008573ffffffffffffffffffffffffffffffffffffffff1673ffffffffffffffffffffffffffffffffffffffff168152602001908152602001600020600083815260200190815260200160002081905550806008600084815260200190815260200160002081905550505050565b6060600060016120278461230d565b01905060008167ffffffffffffffff8111156120465761204561291a565b5b6040519080825280601f01601f1916602001820160405280156120785781602001600182028036833780820191505090505b509050600082602001820190505b6001156120db578080600190039150507f3031323334353637383961626364656600000000000000000000000000000000600a86061a8153600a85816120cf576120ce6132c9565b5b04945060008503612086575b819350505050919050565b600073ffffffffffffffffffffffffffffffffffffffff168273ffffffffffffffffffffffffffffffffffffffff16036121585760006040517f64a0ae9200000000000000000000000000000000000000000000000000000000815260040161214f9190612746565b60405180910390fd5b60006121668383600061106b565b9050600073ffffffffffffffffffffffffffffffffffffffff168173ffffffffffffffffffffffffffffffffffffffff16146121da5760006040517f73c6ac6e0000000000000000000000000000000000000000000000000000000081526004016121d19190612746565b60405180910390fd5b505050565b60007f01ffc9a7000000000000000000000000000000000000000000000000000000007bffffffffffffffffffffffffffffffffffffffffffffffffffffffff1916827bffffffffffffffffffffffffffffffffffffffffffffffffffffffff1916149050919050565b612254838383612460565b61230857600073ffffffffffffffffffffffffffffffffffffffff168373ffffffffffffffffffffffffffffffffffffffff16036122c957806040517f7e2732890000000000000000000000000000000000000000000000000000000081526004016122c091906127dc565b60405180910390fd5b81816040517f177e802f0000000000000000000000000000000000000000000000000000000081526004016122ff929190612c4c565b60405180910390fd5b505050565b600080600090507a184f03e93ff9f4daa797ed6e38ed64bf6a1f010000000000000000831061236b577a184f03e93ff9f4daa797ed6e38ed64bf6a1f0100000000000000008381612361576123606132c9565b5b0492506040810190505b6d04ee2d6d415b85acef810000000083106123a8576d04ee2d6d415b85acef8100000000838161239e5761239d6132c9565b5b0492506020810190505b662386f26fc1000083106123d757662386f26fc1000083816123cd576123cc6132c9565b5b0492506010810190505b6305f5e1008310612400576305f5e10083816123f6576123f56132c9565b5b0492506008810190505b612710831061242557612710838161241b5761241a6132c9565b5b0492506004810190505b60648310612448576064838161243e5761243d6132c9565b5b0492506002810190505b600a8310612457576001810190505b80915050919050565b60008073ffffffffffffffffffffffffffffffffffffffff168373ffffffffffffffffffffffffffffffffffffffff161415801561251857508273ffffffffffffffffffffffffffffffffffffffff168473ffffffffffffffffffffffffffffffffffffffff1614806124d957506124d88484610d59565b5b8061251757508273ffffffffffffffffffffffffffffffffffffffff166124ff83610f8d565b73ffffffffffffffffffffffffffffffffffffffff16145b5b90509392505050565b60008115159050919050565b61253681612521565b82525050565b6000602082019050612551600083018461252d565b92915050565b6000604051905090565b600080fd5b600080fd5b60007fffffffff0000000000000000000000000000000000000000000000000000000082169050919050565b6125a08161256b565b81146125ab57600080fd5b50565b6000813590506125bd81612597565b92915050565b6000602082840312156125d9576125d8612561565b5b60006125e7848285016125ae565b91505092915050565b600081519050919050565b600082825260208201905092915050565b60005b8381101561262a57808201518184015260208101905061260f565b60008484015250505050565b6000601f19601f8301169050919050565b6000612652826125f0565b61265c81856125fb565b935061266c81856020860161260c565b61267581612636565b840191505092915050565b6000602082019050818103600083015261269a8184612647565b905092915050565b6000819050919050565b6126b5816126a2565b81146126c057600080fd5b50565b6000813590506126d2816126ac565b92915050565b6000602082840312156126ee576126ed612561565b5b60006126fc848285016126c3565b91505092915050565b600073ffffffffffffffffffffffffffffffffffffffff82169050919050565b600061273082612705565b9050919050565b61274081612725565b82525050565b600060208201905061275b6000830184612737565b92915050565b61276a81612725565b811461277557600080fd5b50565b60008135905061278781612761565b92915050565b600080604083850312156127a4576127a3612561565b5b60006127b285828601612778565b92505060206127c3858286016126c3565b9150509250929050565b6127d6816126a2565b82525050565b60006020820190506127f160008301846127cd565b92915050565b61280081612521565b811461280b57600080fd5b50565b60008135905061281d816127f7565b92915050565b60006020828403121561283957612838612561565b5b60006128478482850161280e565b91505092915050565b60008060006060848603121561286957612868612561565b5b600061287786828701612778565b935050602061288886828701612778565b9250506040612899868287016126c3565b9150509250925092565b6000602082840312156128b9576128b8612561565b5b60006128c784828501612778565b91505092915050565b600080604083850312156128e7576128e6612561565b5b60006128f585828601612778565b92505060206129068582860161280e565b9150509250929050565b600080fd5b600080fd5b7f4e487b7100000000000000000000000000000000000000000000000000000000600052604160045260246000fd5b61295282612636565b810181811067ffffffffffffffff821117156129715761297061291a565b5b80604052505050565b6000612984612557565b90506129908282612949565b919050565b600067ffffffffffffffff8211156129b0576129af61291a565b5b6129b982612636565b9050602081019050919050565b82818337600083830152505050565b60006129e86129e384612995565b61297a565b905082815260208101848484011115612a0457612a03612915565b5b612a0f8482856129c6565b509392505050565b600082601f830112612a2c57612a2b612910565b5b8135612a3c8482602086016129d5565b91505092915050565b60008060008060808587031215612a5f57612a5e612561565b5b6000612a6d87828801612778565b9450506020612a7e87828801612778565b9350506040612a8f878288016126c3565b925050606085013567ffffffffffffffff811115612ab057612aaf612566565b5b612abc87828801612a17565b91505092959194509250565b600080fd5b600080fd5b60008083601f840112612ae857612ae7612910565b5b8235905067ffffffffffffffff811115612b0557612b04612ac8565b5b602083019150836001820283011115612b2157612b20612acd565b5b9250929050565b60008060208385031215612b3f57612b3e612561565b5b600083013567ffffffffffffffff811115612b5d57612b5c612566565b5b612b6985828601612ad2565b92509250509250929050565b60008060408385031215612b8c57612b8b612561565b5b6000612b9a85828601612778565b9250506020612bab85828601612778565b9150509250929050565b7f4e487b7100000000000000000000000000000000000000000000000000000000600052602260045260246000fd5b60006002820490506001821680612bfc57607f821691505b602082108103612c0f57612c0e612bb5565b5b50919050565b6000606082019050612c2a6000830186612737565b612c3760208301856127cd565b612c446040830184612737565b949350505050565b6000604082019050612c616000830185612737565b612c6e60208301846127cd565b9392505050565b7f4e487b7100000000000000000000000000000000000000000000000000000000600052603260045260246000fd5b600081905092915050565b50565b6000612cbf600083612ca4565b9150612cca82612caf565b600082019050919050565b6000612ce082612cb2565b9150819050919050565b7f5769746864726177206661696c65640000000000000000000000000000000000600082015250565b6000612d20600f836125fb565b9150612d2b82612cea565b602082019050919050565b60006020820190508181036000830152612d4f81612d13565b9050919050565b7f5075626c6963206d696e74696e67206e6f7420656e61626c6564000000000000600082015250565b6000612d8c601a836125fb565b9150612d9782612d56565b602082019050919050565b60006020820190508181036000830152612dbb81612d7f565b9050919050565b7f57726f6e67206d696e742076616c756500000000000000000000000000000000600082015250565b6000612df86010836125fb565b9150612e0382612dc2565b602082019050919050565b60006020820190508181036000830152612e2781612deb565b9050919050565b7f4e487b7100000000000000000000000000000000000000000000000000000000600052601160045260246000fd5b6000612e68826126a2565b91507fffffffffffffffffffffffffffffffffffffffffffffffffffffffffffffffff8203612e9a57612e99612e2e565b5b600182019050919050565b600081519050919050565b600082825260208201905092915050565b6000612ecc82612ea5565b612ed68185612eb0565b9350612ee681856020860161260c565b612eef81612636565b840191505092915050565b6000608082019050612f0f6000830187612737565b612f1c6020830186612737565b612f2960408301856127cd565b8181036060830152612f3b8184612ec1565b905095945050505050565b600081519050612f5581612597565b92915050565b600060208284031215612f7157612f70612561565b5b6000612f7f84828501612f46565b91505092915050565b600081905092915050565b6000612f9e826125f0565b612fa88185612f88565b9350612fb881856020860161260c565b80840191505092915050565b6000612fd08285612f93565b9150612fdc8284612f93565b91508190509392505050565b60008190508160005260206000209050919050565b60006020601f8301049050919050565b600082821b905092915050565b60006008830261304a7fffffffffffffffffffffffffffffffffffffffffffffffffffffffffffffffff8261300d565b613054868361300d565b95508019841693508086168417925050509392505050565b6000819050919050565b600061309161308c613087846126a2565b61306c565b6126a2565b9050919050565b6000819050919050565b6130ab83613076565b6130bf6130b782613098565b84845461301a565b825550505050565b600090565b6130d46130c7565b6130df8184846130a2565b505050565b5b81811015613103576130f86000826130cc565b6001810190506130e5565b5050565b601f8211156131485761311981612fe8565b61312284612ffd565b81016020851015613131578190505b61314561313d85612ffd565b8301826130e4565b50505b505050565b600082821c905092915050565b600061316b6000198460080261314d565b1980831691505092915050565b6000613184838361315a565b9150826002028217905092915050565b61319d826125f0565b67ffffffffffffffff8111156131b6576131b561291a565b5b6131c08254612be4565b6131cb828285613107565b600060209050601f8311600181146131fe57600084156131ec578287015190505b6131f68582613178565b86555061325e565b601f19841661320c86612fe8565b60005b828110156132345784890151825560018201915060208501945060208101905061320f565b86831015613251578489015161324d601f89168261315a565b8355505b6001600288020188555050505b505050505050565b6000613271826126a2565b915061327c836126a2565b925082820390508181111561329457613293612e2e565b5b92915050565b7f4e487b7100000000000000000000000000000000000000000000000000000000600052603160045260246000fd5b7f4e487b7100000000000000000000000000000000000000000000000000000000600052601260045260246000fdfea26469706673582212208ea8245dcd123e0c40b33c7dc3e3f19af36f3c4082fd5a7ab0886acba55265ff64736f6c63430008180033",
  "linkReferences": {},
  "deployedLinkReferences": {}
}