{
  "_format": "hh-sol-artifact-1",
  "contractName": "NFT",
  "sourceName": "contracts/NFT.sol",
  "abi": [
    {
      "inputs": [
        {
          "internalType": "string",
          "name": "_name",
          "type": "string"
        },
        {
          "internalType": "string",
          "name": "_symbol",
          "type": "string"
        },
        {
          "internalType": "uint256",
          "name": "_mintPrice",
          "type": "uint256"
        }
      ],
      "stateMutability": "payable",
      "type": "constructor"
    },
    {
      "inputs": [],
      "name": "ERC721EnumerableForbiddenBatchMint",
      "type": "error"
    },
    {
      "inputs": [
        {
          "internalType": "address",
          "name": "sender",
          "type": "address"
        },
        {
          "internalType": "uint256",
          "name": "tokenId",
          "type": "uint256"
        },
        {
          "internalType": "address",
          "name": "owner",
          "type": "address"
        }
      ],
      "name": "ERC721IncorrectOwner",
      "type": "error"
    },
    {
      "inputs": [
        {
          "internalType": "address",
          "name": "operator",
          "type": "address"
        },
        {
          "internalType": "uint256",
          "name": "tokenId",
          "type": "uint256"
        }
      ],
      "name": "ERC721InsufficientApproval",
      "type": "error"
    },
    {
      "inputs": [
        {
          "internalType": "address",
          "name": "approver",
          "type": "address"
        }
      ],
      "name": "ERC721InvalidApprover",
      "type": "error"
    },
    {
      "inputs": [
        {
          "internalType": "address",
          "name": "operator",
          "type": "address"
        }
      ],
      "name": "ERC721InvalidOperator",
      "type": "error"
    },
    {
      "inputs": [
        {
          "internalType": "address",
          "name": "owner",
          "type": "address"
        }
      ],
      "name": "ERC721InvalidOwner",
      "type": "error"
    },
    {
      "inputs": [
        {
          "internalType": "address",
          "name": "receiver",
          "type": "address"
        }
      ],
      "name": "ERC721InvalidReceiver",
      "type": "error"
    },
    {
      "inputs": [
        {
          "internalType": "address",
          "name": "sender",
          "type": "address"
        }
      ],
      "name": "ERC721InvalidSender",
      "type": "error"
    },
    {
      "inputs": [
        {
          "internalType": "uint256",
          "name": "tokenId",
          "type": "uint256"
        }
      ],
      "name": "ERC721NonexistentToken",
      "type": "error"
    },
    {
      "inputs": [
        {
          "internalType": "address",
          "name": "owner",
          "type": "address"
        },
        {
          "internalType": "uint256",
          "name": "index",
          "type": "uint256"
        }
      ],
      "name": "ERC721OutOfBoundsIndex",
      "type": "error"
    },
    {
      "inputs": [
        {
          "internalType": "address",
          "name": "owner",
          "type": "address"
        }
      ],
      "name": "OwnableInvalidOwner",
      "type": "error"
    },
    {
      "inputs": [
        {
          "internalType": "address",
          "name": "account",
          "type": "address"
        }
      ],
      "name": "OwnableUnauthorizedAccount",
      "type": "error"
    },
    {
      "anonymous": false,
      "inputs": [
        {
          "indexed": true,
          "internalType": "address",
          "name": "owner",
          "type": "address"
        },
        {
          "indexed": true,
          "internalType": "address",
          "name": "approved",
          "type": "address"
        },
        {
          "indexed": true,
          "internalType": "uint256",
          "name": "tokenId",
          "type": "uint256"
        }
      ],
      "name": "Approval",
      "type": "event"
    },
    {
      "anonymous": false,
      "inputs": [
        {
          "indexed": true,
          "internalType": "address",
          "name": "owner",
          "type": "address"
        },
        {
          "indexed": true,
          "internalType": "address",
          "name": "operator",
          "type": "address"
        },
        {
          "indexed": false,
          "internalType": "bool",
          "name": "approved",
          "type": "bool"
        }
      ],
      "name": "ApprovalForAll",
      "type": "event"
    },
    {
      "anonymous": false,
      "inputs": [
        {
          "indexed": false,
          "internalType": "uint256",
          "name": "_fromTokenId",
          "type": "uint256"
        },
        {
          "indexed": false,
          "internalType": "uint256",
          "name": "_toTokenId",
          "type": "uint256"
        }
      ],
      "name": "BatchMetadataUpdate",
      "type": "event"
    },
    {
      "anonymous": false,
      "inputs": [
        {
          "indexed": false,
          "internalType": "uint256",
          "name": "_tokenId",
          "type": "uint256"
        }
      ],
      "name": "MetadataUpdate",
      "type": "event"
    },
    {
      "anonymous": false,
      "inputs": [
        {
          "indexed": true,
          "internalType": "address",
          "name": "previousOwner",
          "type": "address"
        },
        {
          "indexed": true,
          "internalType": "address",
          "name": "newOwner",
          "type": "address"
        }
      ],
      "name": "OwnershipTransferred",
      "type": "event"
    },
    {
      "anonymous": false,
      "inputs": [
        {
          "indexed": true,
          "internalType": "address",
          "name": "from",
          "type": "address"
        },
        {
          "indexed": true,
          "internalType": "address",
          "name": "to",
          "type": "address"
        },
        {
          "indexed": true,
          "internalType": "uint256",
          "name": "tokenId",
          "type": "uint256"
        }
      ],
      "name": "Transfer",
      "type": "event"
    },
    {
      "inputs": [
        {
          "internalType": "address",
          "name": "to",
          "type": "address"
        },
        {
          "internalType": "uint256",
          "name": "tokenId",
          "type": "uint256"
        }
      ],
      "name": "approve",
      "outputs": [],
      "stateMutability": "nonpayable",
      "type": "function"
    },
    {
      "inputs": [
        {
          "internalType": "address",
          "name": "owner",
          "type": "address"
        }
      ],
      "name": "balanceOf",
      "outputs": [
        {
          "internalType": "uint256",
          "name": "",
          "type": "uint256"
        }
      ],
      "stateMutability": "view",
      "type": "function"
    },
    {
      "inputs": [
        {
          "internalType": "uint256",
          "name": "tokenId",
          "type": "uint256"
        },
        {
          "internalType": "uint256",
          "name": "mintAmount",
          "type": "uint256"
        }
      ],
      "name": "burn",
      "outputs": [],
      "stateMutability": "nonpayable",
      "type": "function"
    },
    {
      "inputs": [
        {
          "internalType": "uint256",
          "name": "tokenId",
          "type": "uint256"
        }
      ],
      "name": "getApproved",
      "outputs": [
        {
          "internalType": "address",
          "name": "",
          "type": "address"
        }
      ],
      "stateMutability": "view",
      "type": "function"
    },
    {
      "inputs": [
        {
          "internalType": "address",
          "name": "owner",
          "type": "address"
        },
        {
          "internalType": "address",
          "name": "operator",
          "type": "address"
        }
      ],
      "name": "isApprovedForAll",
      "outputs": [
        {
          "internalType": "bool",
          "name": "",
          "type": "bool"
        }
      ],
      "stateMutability": "view",
      "type": "function"
    },
    {
      "inputs": [],
      "name": "isPublicMintEnabled",
      "outputs": [
        {
          "internalType": "bool",
          "name": "",
          "type": "bool"
        }
      ],
      "stateMutability": "view",
      "type": "function"
    },
    {
      "inputs": [
        {
          "internalType": "string",
          "name": "_uri",
          "type": "string"
        }
      ],
      "name": "mint",
      "outputs": [],
      "stateMutability": "payable",
      "type": "function"
    },
    {
      "inputs": [],
      "name": "mintPrice",
      "outputs": [
        {
          "internalType": "uint256",
          "name": "",
          "type": "uint256"
        }
      ],
      "stateMutability": "view",
      "type": "function"
    },
    {
      "inputs": [],
      "name": "name",
      "outputs": [
        {
          "internalType": "string",
          "name": "",
          "type": "string"
        }
      ],
      "stateMutability": "view",
      "type": "function"
    },
    {
      "inputs": [],
      "name": "owner",
      "outputs": [
        {
          "internalType": "address",
          "name": "",
          "type": "address"
        }
      ],
      "stateMutability": "view",
      "type": "function"
    },
    {
      "inputs": [
        {
          "internalType": "uint256",
          "name": "tokenId",
          "type": "uint256"
        }
      ],
      "name": "ownerOf",
      "outputs": [
        {
          "internalType": "address",
          "name": "",
          "type": "address"
        }
      ],
      "stateMutability": "view",
      "type": "function"
    },
    {
      "inputs": [],
      "name": "renounceOwnership",
      "outputs": [],
      "stateMutability": "nonpayable",
      "type": "function"
    },
    {
      "inputs": [
        {
          "internalType": "address",
          "name": "from",
          "type": "address"
        },
        {
          "internalType": "address",
          "name": "to",
          "type": "address"
        },
        {
          "internalType": "uint256",
          "name": "tokenId",
          "type": "uint256"
        }
      ],
      "name": "safeTransferFrom",
      "outputs": [],
      "stateMutability": "nonpayable",
      "type": "function"
    },
    {
      "inputs": [
        {
          "internalType": "address",
          "name": "from",
          "type": "address"
        },
        {
          "internalType": "address",
          "name": "to",
          "type": "address"
        },
        {
          "internalType": "uint256",
          "name": "tokenId",
          "type": "uint256"
        },
        {
          "internalType": "bytes",
          "name": "data",
          "type": "bytes"
        }
      ],
      "name": "safeTransferFrom",
      "outputs": [],
      "stateMutability": "nonpayable",
      "type": "function"
    },
    {
      "inputs": [
        {
          "internalType": "address",
          "name": "operator",
          "type": "address"
        },
        {
          "internalType": "bool",
          "name": "approved",
          "type": "bool"
        }
      ],
      "name": "setApprovalForAll",
      "outputs": [],
      "stateMutability": "nonpayable",
      "type": "function"
    },
    {
      "inputs": [
        {
          "internalType": "bool",
          "name": "_isPublicMintEnabled",
          "type": "bool"
        }
      ],
      "name": "setIsPublicMintEnabled",
      "outputs": [],
      "stateMutability": "nonpayable",
      "type": "function"
    },
    {
      "inputs": [
        {
          "internalType": "bytes4",
          "name": "interfaceId",
          "type": "bytes4"
        }
      ],
      "name": "supportsInterface",
      "outputs": [
        {
          "internalType": "bool",
          "name": "",
          "type": "bool"
        }
      ],
      "stateMutability": "view",
      "type": "function"
    },
    {
      "inputs": [],
      "name": "symbol",
      "outputs": [
        {
          "internalType": "string",
          "name": "",
          "type": "string"
        }
      ],
      "stateMutability": "view",
      "type": "function"
    },
    {
      "inputs": [
        {
          "internalType": "uint256",
          "name": "index",
          "type": "uint256"
        }
      ],
      "name": "tokenByIndex",
      "outputs": [
        {
          "internalType": "uint256",
          "name": "",
          "type": "uint256"
        }
      ],
      "stateMutability": "view",
      "type": "function"
    },
    {
      "inputs": [
        {
          "internalType": "address",
          "name": "owner",
          "type": "address"
        },
        {
          "internalType": "uint256",
          "name": "index",
          "type": "uint256"
        }
      ],
      "name": "tokenOfOwnerByIndex",
      "outputs": [
        {
          "internalType": "uint256",
          "name": "",
          "type": "uint256"
        }
      ],
      "stateMutability": "view",
      "type": "function"
    },
    {
      "inputs": [
        {
          "internalType": "uint256",
          "name": "tokenId",
          "type": "uint256"
        }
      ],
      "name": "tokenURI",
      "outputs": [
        {
          "internalType": "string",
          "name": "",
          "type": "string"
        }
      ],
      "stateMutability": "view",
      "type": "function"
    },
    {
      "inputs": [],
      "name": "totalSupply",
      "outputs": [
        {
          "internalType": "uint256",
          "name": "",
          "type": "uint256"
        }
      ],
      "stateMutability": "view",
      "type": "function"
    },
    {
      "inputs": [
        {
          "internalType": "address",
          "name": "from",
          "type": "address"
        },
        {
          "internalType": "address",
          "name": "to",
          "type": "address"
        },
        {
          "internalType": "uint256",
          "name": "tokenId",
          "type": "uint256"
        }
      ],
      "name": "transferFrom",
      "outputs": [],
      "stateMutability": "nonpayable",
      "type": "function"
    },
    {
      "inputs": [
        {
          "internalType": "address",
          "name": "newOwner",
          "type": "address"
        }
      ],
      "name": "transferOwnership",
      "outputs": [],
      "stateMutability": "nonpayable",
      "type": "function"
    },
    {
      "inputs": [
        {
          "internalType": "address",
          "name": "",
          "type": "address"
        }
      ],
      "name": "walletMints",
      "outputs": [
        {
          "internalType": "uint256",
          "name": "",
          "type": "uint256"
        }
      ],
      "stateMutability": "view",
      "type": "function"
    },
    {
      "inputs": [
        {
          "internalType": "address",
          "name": "_address",
          "type": "address"
        }
      ],
      "name": "withdraw",
      "outputs": [],
      "stateMutability": "nonpayable",
      "type": "function"
    }
  ],
  "bytecode": "0x608060405260405162003bd138038062003bd183398181016040528101906200002991906200037d565b33838381600090816200003d919062000658565b5080600190816200004f919062000658565b505050600073ffffffffffffffffffffffffffffffffffffffff168173ffffffffffffffffffffffffffffffffffffffff1603620000c75760006040517f1e4fbdf7000000000000000000000000000000000000000000000000000000008152600401620000be919062000784565b60405180910390fd5b620000d881620000e960201b60201c565b5080600c81905550505050620007a1565b6000600b60009054906101000a900473ffffffffffffffffffffffffffffffffffffffff16905081600b60006101000a81548173ffffffffffffffffffffffffffffffffffffffff021916908373ffffffffffffffffffffffffffffffffffffffff1602179055508173ffffffffffffffffffffffffffffffffffffffff168173ffffffffffffffffffffffffffffffffffffffff167f8be0079c531659141344cd1fd0a4f28419497f9722a3daafe3b4186f6b6457e060405160405180910390a35050565b6000604051905090565b600080fd5b600080fd5b600080fd5b600080fd5b6000601f19601f8301169050919050565b7f4e487b7100000000000000000000000000000000000000000000000000000000600052604160045260246000fd5b6200021882620001cd565b810181811067ffffffffffffffff821117156200023a5762000239620001de565b5b80604052505050565b60006200024f620001af565b90506200025d82826200020d565b919050565b600067ffffffffffffffff82111562000280576200027f620001de565b5b6200028b82620001cd565b9050602081019050919050565b60005b83811015620002b85780820151818401526020810190506200029b565b60008484015250505050565b6000620002db620002d58462000262565b62000243565b905082815260208101848484011115620002fa57620002f9620001c8565b5b6200030784828562000298565b509392505050565b600082601f830112620003275762000326620001c3565b5b815162000339848260208601620002c4565b91505092915050565b6000819050919050565b620003578162000342565b81146200036357600080fd5b50565b60008151905062000377816200034c565b92915050565b600080600060608486031215620003995762000398620001b9565b5b600084015167ffffffffffffffff811115620003ba57620003b9620001be565b5b620003c8868287016200030f565b935050602084015167ffffffffffffffff811115620003ec57620003eb620001be565b5b620003fa868287016200030f565b92505060406200040d8682870162000366565b9150509250925092565b600081519050919050565b7f4e487b7100000000000000000000000000000000000000000000000000000000600052602260045260246000fd5b600060028204905060018216806200046a57607f821691505b60208210810362000480576200047f62000422565b5b50919050565b60008190508160005260206000209050919050565b60006020601f8301049050919050565b600082821b905092915050565b600060088302620004ea7fffffffffffffffffffffffffffffffffffffffffffffffffffffffffffffffff82620004ab565b620004f68683620004ab565b95508019841693508086168417925050509392505050565b6000819050919050565b600062000539620005336200052d8462000342565b6200050e565b62000342565b9050919050565b6000819050919050565b620005558362000518565b6200056d620005648262000540565b848454620004b8565b825550505050565b600090565b6200058462000575565b620005918184846200054a565b505050565b5b81811015620005b957620005ad6000826200057a565b60018101905062000597565b5050565b601f8211156200060857620005d28162000486565b620005dd846200049b565b81016020851015620005ed578190505b62000605620005fc856200049b565b83018262000596565b50505b505050565b600082821c905092915050565b60006200062d600019846008026200060d565b1980831691505092915050565b60006200064883836200061a565b9150826002028217905092915050565b620006638262000417565b67ffffffffffffffff8111156200067f576200067e620001de565b5b6200068b825462000451565b62000698828285620005bd565b600060209050601f831160018114620006d05760008415620006bb578287015190505b620006c785826200063a565b86555062000737565b601f198416620006e08662000486565b60005b828110156200070a57848901518255600182019150602085019450602081019050620006e3565b868310156200072a578489015162000726601f8916826200061a565b8355505b6001600288020188555050505b505050505050565b600073ffffffffffffffffffffffffffffffffffffffff82169050919050565b60006200076c826200073f565b9050919050565b6200077e816200075f565b82525050565b60006020820190506200079b600083018462000773565b92915050565b61342080620007b16000396000f3fe6080604052600436106101815760003560e01c80636817c76c116100d1578063b390c0ab1161008a578063d85d3d2711610064578063d85d3d2714610592578063e985e9c5146105ae578063f0293fd3146105eb578063f2fde38b1461062857610181565b8063b390c0ab14610503578063b88d4fde1461052c578063c87b56dd1461055557610181565b80636817c76c1461040557806370a0823114610430578063715018a61461046d5780638da5cb5b1461048457806395d89b41146104af578063a22cb465146104da57610181565b80632373ac221161013e57806342842e0e1161011857806342842e0e146103395780634f6ccce71461036257806351cff8d91461039f5780636352211e146103c857610181565b80632373ac22146102aa57806323b872dd146102d35780632f745c59146102fc57610181565b80630116bc2d1461018657806301ffc9a7146101b157806306fdde03146101ee578063081812fc14610219578063095ea7b31461025657806318160ddd1461027f575b600080fd5b34801561019257600080fd5b5061019b610651565b6040516101a891906125ee565b60405180910390f35b3480156101bd57600080fd5b506101d860048036038101906101d39190612675565b610664565b6040516101e591906125ee565b60405180910390f35b3480156101fa57600080fd5b50610203610676565b6040516102109190612732565b60405180910390f35b34801561022557600080fd5b50610240600480360381019061023b919061278a565b610708565b60405161024d91906127f8565b60405180910390f35b34801561026257600080fd5b5061027d6004803603810190610278919061283f565b610724565b005b34801561028b57600080fd5b5061029461073a565b6040516102a1919061288e565b60405180910390f35b3480156102b657600080fd5b506102d160048036038101906102cc91906128d5565b610747565b005b3480156102df57600080fd5b506102fa60048036038101906102f59190612902565b61076c565b005b34801561030857600080fd5b50610323600480360381019061031e919061283f565b61086e565b604051610330919061288e565b60405180910390f35b34801561034557600080fd5b50610360600480360381019061035b9190612902565b610917565b005b34801561036e57600080fd5b506103896004803603810190610384919061278a565b610937565b604051610396919061288e565b60405180910390f35b3480156103ab57600080fd5b506103c660048036038101906103c19190612955565b6109ad565b005b3480156103d457600080fd5b506103ef60048036038101906103ea919061278a565b610a65565b6040516103fc91906127f8565b60405180910390f35b34801561041157600080fd5b5061041a610a77565b604051610427919061288e565b60405180910390f35b34801561043c57600080fd5b5061045760048036038101906104529190612955565b610a7d565b604051610464919061288e565b60405180910390f35b34801561047957600080fd5b50610482610b37565b005b34801561049057600080fd5b50610499610b4b565b6040516104a691906127f8565b60405180910390f35b3480156104bb57600080fd5b506104c4610b75565b6040516104d19190612732565b60405180910390f35b3480156104e657600080fd5b5061050160048036038101906104fc9190612982565b610c07565b005b34801561050f57600080fd5b5061052a600480360381019061052591906129c2565b610c1d565b005b34801561053857600080fd5b50610553600480360381019061054e9190612b37565b610c7c565b005b34801561056157600080fd5b5061057c6004803603810190610577919061278a565b610c99565b6040516105899190612732565b60405180910390f35b6105ac60048036038101906105a79190612c1a565b610cab565b005b3480156105ba57600080fd5b506105d560048036038101906105d09190612c67565b610e0b565b6040516105e291906125ee565b60405180910390f35b3480156105f757600080fd5b50610612600480360381019061060d9190612955565b610e9f565b60405161061f919061288e565b60405180910390f35b34801561063457600080fd5b5061064f600480360381019061064a9190612955565b610eb7565b005b600e60009054906101000a900460ff1681565b600061066f82610f3d565b9050919050565b60606000805461068590612cd6565b80601f01602080910402602001604051908101604052809291908181526020018280546106b190612cd6565b80156106fe5780601f106106d3576101008083540402835291602001916106fe565b820191906000526020600020905b8154815290600101906020018083116106e157829003601f168201915b5050505050905090565b600061071382610fb7565b5061071d8261103f565b9050919050565b610736828261073161107c565b611084565b5050565b6000600980549050905090565b61074f611096565b80600e60006101000a81548160ff02191690831515021790555050565b600073ffffffffffffffffffffffffffffffffffffffff168273ffffffffffffffffffffffffffffffffffffffff16036107de5760006040517f64a0ae920000000000000000000000000000000000000000000000000000000081526004016107d591906127f8565b60405180910390fd5b60006107f283836107ed61107c565b61111d565b90508373ffffffffffffffffffffffffffffffffffffffff168173ffffffffffffffffffffffffffffffffffffffff1614610868578382826040517f64283d7b00000000000000000000000000000000000000000000000000000000815260040161085f93929190612d07565b60405180910390fd5b50505050565b600061087983610a7d565b82106108be5782826040517fa57d13dc0000000000000000000000000000000000000000000000000000000081526004016108b5929190612d3e565b60405180910390fd5b600760008473ffffffffffffffffffffffffffffffffffffffff1673ffffffffffffffffffffffffffffffffffffffff168152602001908152602001600020600083815260200190815260200160002054905092915050565b61093283838360405180602001604052806000815250610c7c565b505050565b600061094161073a565b8210610987576000826040517fa57d13dc00000000000000000000000000000000000000000000000000000000815260040161097e929190612d3e565b60405180910390fd5b6009828154811061099b5761099a612d67565b5b90600052602060002001549050919050565b6109b5611096565b60008173ffffffffffffffffffffffffffffffffffffffff16476040516109db90612dc7565b60006040518083038185875af1925050503d8060008114610a18576040519150601f19603f3d011682016040523d82523d6000602084013e610a1d565b606091505b5050905080610a61576040517f08c379a0000000000000000000000000000000000000000000000000000000008152600401610a5890612e28565b60405180910390fd5b5050565b6000610a7082610fb7565b9050919050565b600c5481565b60008073ffffffffffffffffffffffffffffffffffffffff168273ffffffffffffffffffffffffffffffffffffffff1603610af05760006040517f89c62b64000000000000000000000000000000000000000000000000000000008152600401610ae791906127f8565b60405180910390fd5b600360008373ffffffffffffffffffffffffffffffffffffffff1673ffffffffffffffffffffffffffffffffffffffff168152602001908152602001600020549050919050565b610b3f611096565b610b496000611133565b565b6000600b60009054906101000a900473ffffffffffffffffffffffffffffffffffffffff16905090565b606060018054610b8490612cd6565b80601f0160208091040260200160405190810160405280929190818152602001828054610bb090612cd6565b8015610bfd5780601f10610bd257610100808354040283529160200191610bfd565b820191906000526020600020905b815481529060010190602001808311610be057829003601f168201915b5050505050905090565b610c19610c1261107c565b83836111f9565b5050565b610c30600083610c2b61107c565b61111d565b503373ffffffffffffffffffffffffffffffffffffffff166108fc829081150290604051600060405180830381858888f19350505050158015610c77573d6000803e3d6000fd5b505050565b610c8784848461076c565b610c9384848484611368565b50505050565b6060610ca48261151f565b9050919050565b600e60009054906101000a900460ff16610cfa576040517f08c379a0000000000000000000000000000000000000000000000000000000008152600401610cf190612e94565b60405180910390fd5b600c543414610d3e576040517f08c379a0000000000000000000000000000000000000000000000000000000008152600401610d3590612f00565b60405180910390fd5b6000600d6000815480929190610d5390612f4f565b919050559050600f60003373ffffffffffffffffffffffffffffffffffffffff1673ffffffffffffffffffffffffffffffffffffffff1681526020019081526020016000206000815480929190610da990612f4f565b9190505550610db83382611632565b610e068184848080601f016020809104026020016040519081016040528093929190818152602001838380828437600081840152601f19601f82011690508083019250505050505050611650565b505050565b6000600560008473ffffffffffffffffffffffffffffffffffffffff1673ffffffffffffffffffffffffffffffffffffffff16815260200190815260200160002060008373ffffffffffffffffffffffffffffffffffffffff1673ffffffffffffffffffffffffffffffffffffffff16815260200190815260200160002060009054906101000a900460ff16905092915050565b600f6020528060005260406000206000915090505481565b610ebf611096565b600073ffffffffffffffffffffffffffffffffffffffff168173ffffffffffffffffffffffffffffffffffffffff1603610f315760006040517f1e4fbdf7000000000000000000000000000000000000000000000000000000008152600401610f2891906127f8565b60405180910390fd5b610f3a81611133565b50565b60007f780e9d63000000000000000000000000000000000000000000000000000000007bffffffffffffffffffffffffffffffffffffffffffffffffffffffff1916827bffffffffffffffffffffffffffffffffffffffffffffffffffffffff19161480610fb05750610faf826116ac565b5b9050919050565b600080610fc38361170d565b9050600073ffffffffffffffffffffffffffffffffffffffff168173ffffffffffffffffffffffffffffffffffffffff160361103657826040517f7e27328900000000000000000000000000000000000000000000000000000000815260040161102d919061288e565b60405180910390fd5b80915050919050565b60006004600083815260200190815260200160002060009054906101000a900473ffffffffffffffffffffffffffffffffffffffff169050919050565b600033905090565b611091838383600161174a565b505050565b61109e61107c565b73ffffffffffffffffffffffffffffffffffffffff166110bc610b4b565b73ffffffffffffffffffffffffffffffffffffffff161461111b576110df61107c565b6040517f118cdaa700000000000000000000000000000000000000000000000000000000815260040161111291906127f8565b60405180910390fd5b565b600061112a84848461190f565b90509392505050565b6000600b60009054906101000a900473ffffffffffffffffffffffffffffffffffffffff16905081600b60006101000a81548173ffffffffffffffffffffffffffffffffffffffff021916908373ffffffffffffffffffffffffffffffffffffffff1602179055508173ffffffffffffffffffffffffffffffffffffffff168173ffffffffffffffffffffffffffffffffffffffff167f8be0079c531659141344cd1fd0a4f28419497f9722a3daafe3b4186f6b6457e060405160405180910390a35050565b600073ffffffffffffffffffffffffffffffffffffffff168273ffffffffffffffffffffffffffffffffffffffff160361126a57816040517f5b08ba1800000000000000000000000000000000000000000000000000000000815260040161126191906127f8565b60405180910390fd5b80600560008573ffffffffffffffffffffffffffffffffffffffff1673ffffffffffffffffffffffffffffffffffffffff16815260200190815260200160002060008473ffffffffffffffffffffffffffffffffffffffff1673ffffffffffffffffffffffffffffffffffffffff16815260200190815260200160002060006101000a81548160ff0219169083151502179055508173ffffffffffffffffffffffffffffffffffffffff168373ffffffffffffffffffffffffffffffffffffffff167f17307eab39ab6107e8899845ad3d59bd9653f200f220920489ca2b5937696c318360405161135b91906125ee565b60405180910390a3505050565b60008373ffffffffffffffffffffffffffffffffffffffff163b1115611519578273ffffffffffffffffffffffffffffffffffffffff1663150b7a026113ac61107c565b8685856040518563ffffffff1660e01b81526004016113ce9493929190612fec565b6020604051808303816000875af192505050801561140a57506040513d601f19601f82011682018060405250810190611407919061304d565b60015b61148e573d806000811461143a576040519150601f19603f3d011682016040523d82523d6000602084013e61143f565b606091505b50600081510361148657836040517f64a0ae9200000000000000000000000000000000000000000000000000000000815260040161147d91906127f8565b60405180910390fd5b805181602001fd5b63150b7a0260e01b7bffffffffffffffffffffffffffffffffffffffffffffffffffffffff1916817bffffffffffffffffffffffffffffffffffffffffffffffffffffffff19161461151757836040517f64a0ae9200000000000000000000000000000000000000000000000000000000815260040161150e91906127f8565b60405180910390fd5b505b50505050565b606061152a82610fb7565b50600060066000848152602001908152602001600020805461154b90612cd6565b80601f016020809104026020016040519081016040528092919081815260200182805461157790612cd6565b80156115c45780601f10611599576101008083540402835291602001916115c4565b820191906000526020600020905b8154815290600101906020018083116115a757829003601f168201915b5050505050905060006115d5611a2c565b905060008151036115ea57819250505061162d565b60008251111561161f5780826040516020016116079291906130b6565b6040516020818303038152906040529250505061162d565b61162884611a43565b925050505b919050565b61164c828260405180602001604052806000815250611aac565b5050565b806006600084815260200190815260200160002090816116709190613286565b507ff8e1a15aba9398e019f0b49df1a4fde98ee17ae345cb5f6b5e2c27f5033e8ce7826040516116a0919061288e565b60405180910390a15050565b6000634906490660e01b7bffffffffffffffffffffffffffffffffffffffffffffffffffffffff1916827bffffffffffffffffffffffffffffffffffffffffffffffffffffffff19161480611706575061170582611ac8565b5b9050919050565b60006002600083815260200190815260200160002060009054906101000a900473ffffffffffffffffffffffffffffffffffffffff169050919050565b80806117835750600073ffffffffffffffffffffffffffffffffffffffff168273ffffffffffffffffffffffffffffffffffffffff1614155b156118b757600061179384610fb7565b9050600073ffffffffffffffffffffffffffffffffffffffff168373ffffffffffffffffffffffffffffffffffffffff16141580156117fe57508273ffffffffffffffffffffffffffffffffffffffff168173ffffffffffffffffffffffffffffffffffffffff1614155b8015611811575061180f8184610e0b565b155b1561185357826040517fa9fbf51f00000000000000000000000000000000000000000000000000000000815260040161184a91906127f8565b60405180910390fd5b81156118b557838573ffffffffffffffffffffffffffffffffffffffff168273ffffffffffffffffffffffffffffffffffffffff167f8c5be1e5ebec7d5bd14f71427d1e84f3dd0314c0f7b2291e5b200ac8c7c3b92560405160405180910390a45b505b836004600085815260200190815260200160002060006101000a81548173ffffffffffffffffffffffffffffffffffffffff021916908373ffffffffffffffffffffffffffffffffffffffff16021790555050505050565b60008061191d858585611baa565b9050600073ffffffffffffffffffffffffffffffffffffffff168173ffffffffffffffffffffffffffffffffffffffff16036119615761195c84611dc4565b6119a0565b8473ffffffffffffffffffffffffffffffffffffffff168173ffffffffffffffffffffffffffffffffffffffff161461199f5761199e8185611e0d565b5b5b600073ffffffffffffffffffffffffffffffffffffffff168573ffffffffffffffffffffffffffffffffffffffff16036119e2576119dd84611f6e565b611a21565b8473ffffffffffffffffffffffffffffffffffffffff168173ffffffffffffffffffffffffffffffffffffffff1614611a2057611a1f858561203f565b5b5b809150509392505050565b606060405180602001604052806000815250905090565b6060611a4e82610fb7565b506000611a59611a2c565b90506000815111611a795760405180602001604052806000815250611aa4565b80611a83846120ca565b604051602001611a949291906130b6565b6040516020818303038152906040525b915050919050565b611ab68383612198565b611ac36000848484611368565b505050565b60007f80ac58cd000000000000000000000000000000000000000000000000000000007bffffffffffffffffffffffffffffffffffffffffffffffffffffffff1916827bffffffffffffffffffffffffffffffffffffffffffffffffffffffff19161480611b9357507f5b5e139f000000000000000000000000000000000000000000000000000000007bffffffffffffffffffffffffffffffffffffffffffffffffffffffff1916827bffffffffffffffffffffffffffffffffffffffffffffffffffffffff1916145b80611ba35750611ba282612291565b5b9050919050565b600080611bb68461170d565b9050600073ffffffffffffffffffffffffffffffffffffffff168373ffffffffffffffffffffffffffffffffffffffff1614611bf857611bf78184866122fb565b5b600073ffffffffffffffffffffffffffffffffffffffff168173ffffffffffffffffffffffffffffffffffffffff1614611c8957611c3a60008560008061174a565b6001600360008373ffffffffffffffffffffffffffffffffffffffff1673ffffffffffffffffffffffffffffffffffffffff168152602001908152602001600020600082825403925050819055505b600073ffffffffffffffffffffffffffffffffffffffff168573ffffffffffffffffffffffffffffffffffffffff1614611d0c576001600360008773ffffffffffffffffffffffffffffffffffffffff1673ffffffffffffffffffffffffffffffffffffffff168152602001908152602001600020600082825401925050819055505b846002600086815260200190815260200160002060006101000a81548173ffffffffffffffffffffffffffffffffffffffff021916908373ffffffffffffffffffffffffffffffffffffffff160217905550838573ffffffffffffffffffffffffffffffffffffffff168273ffffffffffffffffffffffffffffffffffffffff167fddf252ad1be2c89b69c2b068fc378daa952ba7f163c4a11628f55a4df523b3ef60405160405180910390a4809150509392505050565b600980549050600a600083815260200190815260200160002081905550600981908060018154018082558091505060019003906000526020600020016000909190919091505550565b6000611e1883610a7d565b9050600060086000848152602001908152602001600020549050818114611efd576000600760008673ffffffffffffffffffffffffffffffffffffffff1673ffffffffffffffffffffffffffffffffffffffff168152602001908152602001600020600084815260200190815260200160002054905080600760008773ffffffffffffffffffffffffffffffffffffffff1673ffffffffffffffffffffffffffffffffffffffff168152602001908152602001600020600084815260200190815260200160002081905550816008600083815260200190815260200160002081905550505b6008600084815260200190815260200160002060009055600760008573ffffffffffffffffffffffffffffffffffffffff1673ffffffffffffffffffffffffffffffffffffffff16815260200190815260200160002060008381526020019081526020016000206000905550505050565b60006001600980549050611f829190613358565b90506000600a6000848152602001908152602001600020549050600060098381548110611fb257611fb1612d67565b5b906000526020600020015490508060098381548110611fd457611fd3612d67565b5b906000526020600020018190555081600a600083815260200190815260200160002081905550600a60008581526020019081526020016000206000905560098054806120235761202261338c565b5b6001900381819060005260206000200160009055905550505050565b6000600161204c84610a7d565b6120569190613358565b905081600760008573ffffffffffffffffffffffffffffffffffffffff1673ffffffffffffffffffffffffffffffffffffffff168152602001908152602001600020600083815260200190815260200160002081905550806008600084815260200190815260200160002081905550505050565b6060600060016120d9846123bf565b01905060008167ffffffffffffffff8111156120f8576120f7612a0c565b5b6040519080825280601f01601f19166020018201604052801561212a5781602001600182028036833780820191505090505b509050600082602001820190505b60011561218d578080600190039150507f3031323334353637383961626364656600000000000000000000000000000000600a86061a8153600a8581612181576121806133bb565b5b04945060008503612138575b819350505050919050565b600073ffffffffffffffffffffffffffffffffffffffff168273ffffffffffffffffffffffffffffffffffffffff160361220a5760006040517f64a0ae9200000000000000000000000000000000000000000000000000000000815260040161220191906127f8565b60405180910390fd5b60006122188383600061111d565b9050600073ffffffffffffffffffffffffffffffffffffffff168173ffffffffffffffffffffffffffffffffffffffff161461228c5760006040517f73c6ac6e00000000000000000000000000000000000000000000000000000000815260040161228391906127f8565b60405180910390fd5b505050565b60007f01ffc9a7000000000000000000000000000000000000000000000000000000007bffffffffffffffffffffffffffffffffffffffffffffffffffffffff1916827bffffffffffffffffffffffffffffffffffffffffffffffffffffffff1916149050919050565b612306838383612512565b6123ba57600073ffffffffffffffffffffffffffffffffffffffff168373ffffffffffffffffffffffffffffffffffffffff160361237b57806040517f7e273289000000000000000000000000000000000000000000000000000000008152600401612372919061288e565b60405180910390fd5b81816040517f177e802f0000000000000000000000000000000000000000000000000000000081526004016123b1929190612d3e565b60405180910390fd5b505050565b600080600090507a184f03e93ff9f4daa797ed6e38ed64bf6a1f010000000000000000831061241d577a184f03e93ff9f4daa797ed6e38ed64bf6a1f0100000000000000008381612413576124126133bb565b5b0492506040810190505b6d04ee2d6d415b85acef8100000000831061245a576d04ee2d6d415b85acef810000000083816124505761244f6133bb565b5b0492506020810190505b662386f26fc10000831061248957662386f26fc10000838161247f5761247e6133bb565b5b0492506010810190505b6305f5e10083106124b2576305f5e10083816124a8576124a76133bb565b5b0492506008810190505b61271083106124d75761271083816124cd576124cc6133bb565b5b0492506004810190505b606483106124fa57606483816124f0576124ef6133bb565b5b0492506002810190505b600a8310612509576001810190505b80915050919050565b60008073ffffffffffffffffffffffffffffffffffffffff168373ffffffffffffffffffffffffffffffffffffffff16141580156125ca57508273ffffffffffffffffffffffffffffffffffffffff168473ffffffffffffffffffffffffffffffffffffffff16148061258b575061258a8484610e0b565b5b806125c957508273ffffffffffffffffffffffffffffffffffffffff166125b18361103f565b73ffffffffffffffffffffffffffffffffffffffff16145b5b90509392505050565b60008115159050919050565b6125e8816125d3565b82525050565b600060208201905061260360008301846125df565b92915050565b6000604051905090565b600080fd5b600080fd5b60007fffffffff0000000000000000000000000000000000000000000000000000000082169050919050565b6126528161261d565b811461265d57600080fd5b50565b60008135905061266f81612649565b92915050565b60006020828403121561268b5761268a612613565b5b600061269984828501612660565b91505092915050565b600081519050919050565b600082825260208201905092915050565b60005b838110156126dc5780820151818401526020810190506126c1565b60008484015250505050565b6000601f19601f8301169050919050565b6000612704826126a2565b61270e81856126ad565b935061271e8185602086016126be565b612727816126e8565b840191505092915050565b6000602082019050818103600083015261274c81846126f9565b905092915050565b6000819050919050565b61276781612754565b811461277257600080fd5b50565b6000813590506127848161275e565b92915050565b6000602082840312156127a05761279f612613565b5b60006127ae84828501612775565b91505092915050565b600073ffffffffffffffffffffffffffffffffffffffff82169050919050565b60006127e2826127b7565b9050919050565b6127f2816127d7565b82525050565b600060208201905061280d60008301846127e9565b92915050565b61281c816127d7565b811461282757600080fd5b50565b60008135905061283981612813565b92915050565b6000806040838503121561285657612855612613565b5b60006128648582860161282a565b925050602061287585828601612775565b9150509250929050565b61288881612754565b82525050565b60006020820190506128a3600083018461287f565b92915050565b6128b2816125d3565b81146128bd57600080fd5b50565b6000813590506128cf816128a9565b92915050565b6000602082840312156128eb576128ea612613565b5b60006128f9848285016128c0565b91505092915050565b60008060006060848603121561291b5761291a612613565b5b60006129298682870161282a565b935050602061293a8682870161282a565b925050604061294b86828701612775565b9150509250925092565b60006020828403121561296b5761296a612613565b5b60006129798482850161282a565b91505092915050565b6000806040838503121561299957612998612613565b5b60006129a78582860161282a565b92505060206129b8858286016128c0565b9150509250929050565b600080604083850312156129d9576129d8612613565b5b60006129e785828601612775565b92505060206129f885828601612775565b9150509250929050565b600080fd5b600080fd5b7f4e487b7100000000000000000000000000000000000000000000000000000000600052604160045260246000fd5b612a44826126e8565b810181811067ffffffffffffffff82111715612a6357612a62612a0c565b5b80604052505050565b6000612a76612609565b9050612a828282612a3b565b919050565b600067ffffffffffffffff821115612aa257612aa1612a0c565b5b612aab826126e8565b9050602081019050919050565b82818337600083830152505050565b6000612ada612ad584612a87565b612a6c565b905082815260208101848484011115612af657612af5612a07565b5b612b01848285612ab8565b509392505050565b600082601f830112612b1e57612b1d612a02565b5b8135612b2e848260208601612ac7565b91505092915050565b60008060008060808587031215612b5157612b50612613565b5b6000612b5f8782880161282a565b9450506020612b708782880161282a565b9350506040612b8187828801612775565b925050606085013567ffffffffffffffff811115612ba257612ba1612618565b5b612bae87828801612b09565b91505092959194509250565b600080fd5b600080fd5b60008083601f840112612bda57612bd9612a02565b5b8235905067ffffffffffffffff811115612bf757612bf6612bba565b5b602083019150836001820283011115612c1357612c12612bbf565b5b9250929050565b60008060208385031215612c3157612c30612613565b5b600083013567ffffffffffffffff811115612c4f57612c4e612618565b5b612c5b85828601612bc4565b92509250509250929050565b60008060408385031215612c7e57612c7d612613565b5b6000612c8c8582860161282a565b9250506020612c9d8582860161282a565b9150509250929050565b7f4e487b7100000000000000000000000000000000000000000000000000000000600052602260045260246000fd5b60006002820490506001821680612cee57607f821691505b602082108103612d0157612d00612ca7565b5b50919050565b6000606082019050612d1c60008301866127e9565b612d29602083018561287f565b612d3660408301846127e9565b949350505050565b6000604082019050612d5360008301856127e9565b612d60602083018461287f565b9392505050565b7f4e487b7100000000000000000000000000000000000000000000000000000000600052603260045260246000fd5b600081905092915050565b50565b6000612db1600083612d96565b9150612dbc82612da1565b600082019050919050565b6000612dd282612da4565b9150819050919050565b7f5769746864726177206661696c65640000000000000000000000000000000000600082015250565b6000612e12600f836126ad565b9150612e1d82612ddc565b602082019050919050565b60006020820190508181036000830152612e4181612e05565b9050919050565b7f5075626c6963206d696e74696e67206e6f7420656e61626c6564000000000000600082015250565b6000612e7e601a836126ad565b9150612e8982612e48565b602082019050919050565b60006020820190508181036000830152612ead81612e71565b9050919050565b7f57726f6e67206d696e742076616c756500000000000000000000000000000000600082015250565b6000612eea6010836126ad565b9150612ef582612eb4565b602082019050919050565b60006020820190508181036000830152612f1981612edd565b9050919050565b7f4e487b7100000000000000000000000000000000000000000000000000000000600052601160045260246000fd5b6000612f5a82612754565b91507fffffffffffffffffffffffffffffffffffffffffffffffffffffffffffffffff8203612f8c57612f8b612f20565b5b600182019050919050565b600081519050919050565b600082825260208201905092915050565b6000612fbe82612f97565b612fc88185612fa2565b9350612fd88185602086016126be565b612fe1816126e8565b840191505092915050565b600060808201905061300160008301876127e9565b61300e60208301866127e9565b61301b604083018561287f565b818103606083015261302d8184612fb3565b905095945050505050565b60008151905061304781612649565b92915050565b60006020828403121561306357613062612613565b5b600061307184828501613038565b91505092915050565b600081905092915050565b6000613090826126a2565b61309a818561307a565b93506130aa8185602086016126be565b80840191505092915050565b60006130c28285613085565b91506130ce8284613085565b91508190509392505050565b60008190508160005260206000209050919050565b60006020601f8301049050919050565b600082821b905092915050565b60006008830261313c7fffffffffffffffffffffffffffffffffffffffffffffffffffffffffffffffff826130ff565b61314686836130ff565b95508019841693508086168417925050509392505050565b6000819050919050565b600061318361317e61317984612754565b61315e565b612754565b9050919050565b6000819050919050565b61319d83613168565b6131b16131a98261318a565b84845461310c565b825550505050565b600090565b6131c66131b9565b6131d1818484613194565b505050565b5b818110156131f5576131ea6000826131be565b6001810190506131d7565b5050565b601f82111561323a5761320b816130da565b613214846130ef565b81016020851015613223578190505b61323761322f856130ef565b8301826131d6565b50505b505050565b600082821c905092915050565b600061325d6000198460080261323f565b1980831691505092915050565b6000613276838361324c565b9150826002028217905092915050565b61328f826126a2565b67ffffffffffffffff8111156132a8576132a7612a0c565b5b6132b28254612cd6565b6132bd8282856131f9565b600060209050601f8311600181146132f057600084156132de578287015190505b6132e8858261326a565b865550613350565b601f1984166132fe866130da565b60005b8281101561332657848901518255600182019150602085019450602081019050613301565b86831015613343578489015161333f601f89168261324c565b8355505b6001600288020188555050505b505050505050565b600061336382612754565b915061336e83612754565b925082820390508181111561338657613385612f20565b5b92915050565b7f4e487b7100000000000000000000000000000000000000000000000000000000600052603160045260246000fd5b7f4e487b7100000000000000000000000000000000000000000000000000000000600052601260045260246000fdfea2646970667358221220758693bae85772c1991f306f9282cd8b43eed8b366e888a7463f8e83ad1c868664736f6c63430008180033",
  "linkReferences": {},
  "deployedLinkReferences": {}
}